{
  "abi": [
    {
      "inputs": [],
      "name": "AcceptAdminPendingAdminCheck",
      "type": "error"
    },
    {
      "inputs": [
        {
          "internalType": "uint256",
          "name": "actualAddAmount",
          "type": "uint256"
        }
      ],
      "name": "AddReservesFactorFreshCheck",
      "type": "error"
    },
    {
      "inputs": [],
      "name": "BorrowCashNotAvailable",
      "type": "error"
    },
    {
      "inputs": [
        {
          "internalType": "uint256",
          "name": "errorCode",
          "type": "uint256"
        }
      ],
      "name": "BorrowComptrollerRejection",
      "type": "error"
    },
    {
      "inputs": [],
      "name": "BorrowFreshnessCheck",
      "type": "error"
    },
    {
      "inputs": [
        {
          "internalType": "uint256",
          "name": "errorCode",
          "type": "uint256"
        }
      ],
      "name": "LiquidateAccrueBorrowInterestFailed",
      "type": "error"
    },
    {
      "inputs": [
        {
          "internalType": "uint256",
          "name": "errorCode",
          "type": "uint256"
        }
      ],
      "name": "LiquidateAccrueCollateralInterestFailed",
      "type": "error"
    },
    {
      "inputs": [],
      "name": "LiquidateCloseAmountIsUintMax",
      "type": "error"
    },
    {
      "inputs": [],
      "name": "LiquidateCloseAmountIsZero",
      "type": "error"
    },
    {
      "inputs": [],
      "name": "LiquidateCollateralFreshnessCheck",
      "type": "error"
    },
    {
      "inputs": [
        {
          "internalType": "uint256",
          "name": "errorCode",
          "type": "uint256"
        }
      ],
      "name": "LiquidateComptrollerRejection",
      "type": "error"
    },
    {
      "inputs": [],
      "name": "LiquidateFreshnessCheck",
      "type": "error"
    },
    {
      "inputs": [],
      "name": "LiquidateLiquidatorIsBorrower",
      "type": "error"
    },
    {
      "inputs": [
        {
          "internalType": "uint256",
          "name": "errorCode",
          "type": "uint256"
        }
      ],
      "name": "LiquidateRepayBorrowFreshFailed",
      "type": "error"
    },
    {
      "inputs": [
        {
          "internalType": "uint256",
          "name": "errorCode",
          "type": "uint256"
        }
      ],
      "name": "LiquidateSeizeComptrollerRejection",
      "type": "error"
    },
    {
      "inputs": [],
      "name": "LiquidateSeizeLiquidatorIsBorrower",
      "type": "error"
    },
    {
      "inputs": [
        {
          "internalType": "uint256",
          "name": "errorCode",
          "type": "uint256"
        }
      ],
      "name": "MintComptrollerRejection",
      "type": "error"
    },
    {
      "inputs": [],
      "name": "MintFreshnessCheck",
      "type": "error"
    },
    {
      "inputs": [
        {
          "internalType": "uint256",
          "name": "errorCode",
          "type": "uint256"
        }
      ],
      "name": "RedeemComptrollerRejection",
      "type": "error"
    },
    {
      "inputs": [],
      "name": "RedeemFreshnessCheck",
      "type": "error"
    },
    {
      "inputs": [],
      "name": "RedeemTransferOutNotPossible",
      "type": "error"
    },
    {
      "inputs": [],
      "name": "ReduceReservesAdminCheck",
      "type": "error"
    },
    {
      "inputs": [],
      "name": "ReduceReservesCashNotAvailable",
      "type": "error"
    },
    {
      "inputs": [],
      "name": "ReduceReservesCashValidation",
      "type": "error"
    },
    {
      "inputs": [],
      "name": "ReduceReservesFreshCheck",
      "type": "error"
    },
    {
      "inputs": [
        {
          "internalType": "uint256",
          "name": "errorCode",
          "type": "uint256"
        }
      ],
      "name": "RepayBorrowComptrollerRejection",
      "type": "error"
    },
    {
      "inputs": [],
      "name": "RepayBorrowFreshnessCheck",
      "type": "error"
    },
    {
      "inputs": [],
      "name": "SetComptrollerOwnerCheck",
      "type": "error"
    },
    {
      "inputs": [],
      "name": "SetInterestRateModelFreshCheck",
      "type": "error"
    },
    {
      "inputs": [],
      "name": "SetInterestRateModelOwnerCheck",
      "type": "error"
    },
    {
      "inputs": [],
      "name": "SetPendingAdminOwnerCheck",
      "type": "error"
    },
    {
      "inputs": [],
      "name": "SetReserveFactorAdminCheck",
      "type": "error"
    },
    {
      "inputs": [],
      "name": "SetReserveFactorBoundsCheck",
      "type": "error"
    },
    {
      "inputs": [],
      "name": "SetReserveFactorFreshCheck",
      "type": "error"
    },
    {
      "inputs": [
        {
          "internalType": "uint256",
          "name": "errorCode",
          "type": "uint256"
        }
      ],
      "name": "TransferComptrollerRejection",
      "type": "error"
    },
    {
      "inputs": [],
      "name": "TransferNotAllowed",
      "type": "error"
    },
    {
      "inputs": [],
      "name": "TransferNotEnough",
      "type": "error"
    },
    {
      "inputs": [],
      "name": "TransferTooMuch",
      "type": "error"
    },
    {
      "anonymous": false,
      "inputs": [
        {
          "indexed": false,
          "internalType": "uint256",
          "name": "cashPrior",
          "type": "uint256"
        },
        {
          "indexed": false,
          "internalType": "uint256",
          "name": "interestAccumulated",
          "type": "uint256"
        },
        {
          "indexed": false,
          "internalType": "uint256",
          "name": "borrowIndex",
          "type": "uint256"
        },
        {
          "indexed": false,
          "internalType": "uint256",
          "name": "totalBorrows",
          "type": "uint256"
        }
      ],
      "name": "AccrueInterest",
      "type": "event"
    },
    {
      "anonymous": false,
      "inputs": [
        {
          "indexed": true,
          "internalType": "address",
          "name": "owner",
          "type": "address"
        },
        {
          "indexed": true,
          "internalType": "address",
          "name": "spender",
          "type": "address"
        },
        {
          "indexed": false,
          "internalType": "uint256",
          "name": "amount",
          "type": "uint256"
        }
      ],
      "name": "Approval",
      "type": "event"
    },
    {
      "anonymous": false,
      "inputs": [
        {
          "indexed": false,
          "internalType": "address",
          "name": "borrower",
          "type": "address"
        },
        {
          "indexed": false,
          "internalType": "uint256",
          "name": "borrowAmount",
          "type": "uint256"
        },
        {
          "indexed": false,
          "internalType": "uint256",
          "name": "accountBorrows",
          "type": "uint256"
        },
        {
          "indexed": false,
          "internalType": "uint256",
          "name": "totalBorrows",
          "type": "uint256"
        }
      ],
      "name": "Borrow",
      "type": "event"
    },
    {
      "anonymous": false,
      "inputs": [
        {
          "indexed": false,
          "internalType": "address",
          "name": "liquidator",
          "type": "address"
        },
        {
          "indexed": false,
          "internalType": "address",
          "name": "borrower",
          "type": "address"
        },
        {
          "indexed": false,
          "internalType": "uint256",
          "name": "repayAmount",
          "type": "uint256"
        },
        {
          "indexed": false,
          "internalType": "address",
          "name": "cTokenCollateral",
          "type": "address"
        },
        {
          "indexed": false,
          "internalType": "uint256",
          "name": "seizeTokens",
          "type": "uint256"
        }
      ],
      "name": "LiquidateBorrow",
      "type": "event"
    },
    {
      "anonymous": false,
      "inputs": [
        {
          "indexed": false,
          "internalType": "address",
          "name": "minter",
          "type": "address"
        },
        {
          "indexed": false,
          "internalType": "uint256",
          "name": "mintAmount",
          "type": "uint256"
        },
        {
          "indexed": false,
          "internalType": "uint256",
          "name": "mintTokens",
          "type": "uint256"
        }
      ],
      "name": "Mint",
      "type": "event"
    },
    {
      "anonymous": false,
      "inputs": [
        {
          "indexed": false,
          "internalType": "address",
          "name": "oldAdmin",
          "type": "address"
        },
        {
          "indexed": false,
          "internalType": "address",
          "name": "newAdmin",
          "type": "address"
        }
      ],
      "name": "NewAdmin",
      "type": "event"
    },
    {
      "anonymous": false,
      "inputs": [
        {
          "indexed": false,
          "internalType": "contract ComptrollerInterface",
          "name": "oldComptroller",
          "type": "address"
        },
        {
          "indexed": false,
          "internalType": "contract ComptrollerInterface",
          "name": "newComptroller",
          "type": "address"
        }
      ],
      "name": "NewComptroller",
      "type": "event"
    },
    {
      "anonymous": false,
      "inputs": [
        {
          "indexed": false,
          "internalType": "contract InterestRateModel",
          "name": "oldInterestRateModel",
          "type": "address"
        },
        {
          "indexed": false,
          "internalType": "contract InterestRateModel",
          "name": "newInterestRateModel",
          "type": "address"
        }
      ],
      "name": "NewMarketInterestRateModel",
      "type": "event"
    },
    {
      "anonymous": false,
      "inputs": [
        {
          "indexed": false,
          "internalType": "address",
          "name": "oldPendingAdmin",
          "type": "address"
        },
        {
          "indexed": false,
          "internalType": "address",
          "name": "newPendingAdmin",
          "type": "address"
        }
      ],
      "name": "NewPendingAdmin",
      "type": "event"
    },
    {
      "anonymous": false,
      "inputs": [
        {
          "indexed": false,
          "internalType": "uint256",
          "name": "oldReserveFactorMantissa",
          "type": "uint256"
        },
        {
          "indexed": false,
          "internalType": "uint256",
          "name": "newReserveFactorMantissa",
          "type": "uint256"
        }
      ],
      "name": "NewReserveFactor",
      "type": "event"
    },
    {
      "anonymous": false,
      "inputs": [
        {
          "indexed": false,
          "internalType": "address",
          "name": "redeemer",
          "type": "address"
        },
        {
          "indexed": false,
          "internalType": "uint256",
          "name": "redeemAmount",
          "type": "uint256"
        },
        {
          "indexed": false,
          "internalType": "uint256",
          "name": "redeemTokens",
          "type": "uint256"
        }
      ],
      "name": "Redeem",
      "type": "event"
    },
    {
      "anonymous": false,
      "inputs": [
        {
          "indexed": false,
          "internalType": "address",
          "name": "payer",
          "type": "address"
        },
        {
          "indexed": false,
          "internalType": "address",
          "name": "borrower",
          "type": "address"
        },
        {
          "indexed": false,
          "internalType": "uint256",
          "name": "repayAmount",
          "type": "uint256"
        },
        {
          "indexed": false,
          "internalType": "uint256",
          "name": "accountBorrows",
          "type": "uint256"
        },
        {
          "indexed": false,
          "internalType": "uint256",
          "name": "totalBorrows",
          "type": "uint256"
        }
      ],
      "name": "RepayBorrow",
      "type": "event"
    },
    {
      "anonymous": false,
      "inputs": [
        {
          "indexed": false,
          "internalType": "address",
          "name": "benefactor",
          "type": "address"
        },
        {
          "indexed": false,
          "internalType": "uint256",
          "name": "addAmount",
          "type": "uint256"
        },
        {
          "indexed": false,
          "internalType": "uint256",
          "name": "newTotalReserves",
          "type": "uint256"
        }
      ],
      "name": "ReservesAdded",
      "type": "event"
    },
    {
      "anonymous": false,
      "inputs": [
        {
          "indexed": false,
          "internalType": "address",
          "name": "admin",
          "type": "address"
        },
        {
          "indexed": false,
          "internalType": "uint256",
          "name": "reduceAmount",
          "type": "uint256"
        },
        {
          "indexed": false,
          "internalType": "uint256",
          "name": "newTotalReserves",
          "type": "uint256"
        }
      ],
      "name": "ReservesReduced",
      "type": "event"
    },
    {
      "anonymous": false,
      "inputs": [
        {
          "indexed": true,
          "internalType": "address",
          "name": "from",
          "type": "address"
        },
        {
          "indexed": true,
          "internalType": "address",
          "name": "to",
          "type": "address"
        },
        {
          "indexed": false,
          "internalType": "uint256",
          "name": "amount",
          "type": "uint256"
        }
      ],
      "name": "Transfer",
      "type": "event"
    },
    {
      "inputs": [],
      "name": "NO_ERROR",
      "outputs": [
        {
          "internalType": "uint256",
          "name": "",
          "type": "uint256"
        }
      ],
      "stateMutability": "view",
      "type": "function"
    },
    {
      "inputs": [],
      "name": "_acceptAdmin",
      "outputs": [
        {
          "internalType": "uint256",
          "name": "",
          "type": "uint256"
        }
      ],
      "stateMutability": "nonpayable",
      "type": "function"
    },
    {
      "inputs": [
        {
          "internalType": "uint256",
          "name": "addAmount",
          "type": "uint256"
        }
      ],
      "name": "_addReserves",
      "outputs": [
        {
          "internalType": "uint256",
          "name": "",
          "type": "uint256"
        }
      ],
      "stateMutability": "nonpayable",
      "type": "function"
    },
    {
      "inputs": [
        {
          "internalType": "address",
          "name": "compLikeDelegatee",
          "type": "address"
        }
      ],
      "name": "_delegateCompLikeTo",
      "outputs": [],
      "stateMutability": "nonpayable",
      "type": "function"
    },
    {
      "inputs": [
        {
          "internalType": "uint256",
          "name": "reduceAmount",
          "type": "uint256"
        }
      ],
      "name": "_reduceReserves",
      "outputs": [
        {
          "internalType": "uint256",
          "name": "",
          "type": "uint256"
        }
      ],
      "stateMutability": "nonpayable",
      "type": "function"
    },
    {
      "inputs": [
        {
          "internalType": "contract ComptrollerInterface",
          "name": "newComptroller",
          "type": "address"
        }
      ],
      "name": "_setComptroller",
      "outputs": [
        {
          "internalType": "uint256",
          "name": "",
          "type": "uint256"
        }
      ],
      "stateMutability": "nonpayable",
      "type": "function"
    },
    {
      "inputs": [
        {
          "internalType": "contract InterestRateModel",
          "name": "newInterestRateModel",
          "type": "address"
        }
      ],
      "name": "_setInterestRateModel",
      "outputs": [
        {
          "internalType": "uint256",
          "name": "",
          "type": "uint256"
        }
      ],
      "stateMutability": "nonpayable",
      "type": "function"
    },
    {
      "inputs": [
        {
          "internalType": "address payable",
          "name": "newPendingAdmin",
          "type": "address"
        }
      ],
      "name": "_setPendingAdmin",
      "outputs": [
        {
          "internalType": "uint256",
          "name": "",
          "type": "uint256"
        }
      ],
      "stateMutability": "nonpayable",
      "type": "function"
    },
    {
      "inputs": [
        {
          "internalType": "uint256",
          "name": "newReserveFactorMantissa",
          "type": "uint256"
        }
      ],
      "name": "_setReserveFactor",
      "outputs": [
        {
          "internalType": "uint256",
          "name": "",
          "type": "uint256"
        }
      ],
      "stateMutability": "nonpayable",
      "type": "function"
    },
    {
      "inputs": [],
      "name": "accrualBlockNumber",
      "outputs": [
        {
          "internalType": "uint256",
          "name": "",
          "type": "uint256"
        }
      ],
      "stateMutability": "view",
      "type": "function"
    },
    {
      "inputs": [],
      "name": "accrueInterest",
      "outputs": [
        {
          "internalType": "uint256",
          "name": "",
          "type": "uint256"
        }
      ],
      "stateMutability": "nonpayable",
      "type": "function"
    },
    {
      "inputs": [],
      "name": "admin",
      "outputs": [
        {
          "internalType": "address payable",
          "name": "",
          "type": "address"
        }
      ],
      "stateMutability": "view",
      "type": "function"
    },
    {
      "inputs": [
        {
          "internalType": "address",
          "name": "owner",
          "type": "address"
        },
        {
          "internalType": "address",
          "name": "spender",
          "type": "address"
        }
      ],
      "name": "allowance",
      "outputs": [
        {
          "internalType": "uint256",
          "name": "",
          "type": "uint256"
        }
      ],
      "stateMutability": "view",
      "type": "function"
    },
    {
      "inputs": [
        {
          "internalType": "address",
          "name": "spender",
          "type": "address"
        },
        {
          "internalType": "uint256",
          "name": "amount",
          "type": "uint256"
        }
      ],
      "name": "approve",
      "outputs": [
        {
          "internalType": "bool",
          "name": "",
          "type": "bool"
        }
      ],
      "stateMutability": "nonpayable",
      "type": "function"
    },
    {
      "inputs": [
        {
          "internalType": "address",
          "name": "owner",
          "type": "address"
        }
      ],
      "name": "balanceOf",
      "outputs": [
        {
          "internalType": "uint256",
          "name": "",
          "type": "uint256"
        }
      ],
      "stateMutability": "view",
      "type": "function"
    },
    {
      "inputs": [
        {
          "internalType": "address",
          "name": "owner",
          "type": "address"
        }
      ],
      "name": "balanceOfUnderlying",
      "outputs": [
        {
          "internalType": "uint256",
          "name": "",
          "type": "uint256"
        }
      ],
      "stateMutability": "nonpayable",
      "type": "function"
    },
    {
      "inputs": [
        {
          "internalType": "uint256",
          "name": "borrowAmount",
          "type": "uint256"
        }
      ],
      "name": "borrow",
      "outputs": [
        {
          "internalType": "uint256",
          "name": "",
          "type": "uint256"
        }
      ],
      "stateMutability": "nonpayable",
      "type": "function"
    },
    {
      "inputs": [
        {
          "internalType": "address",
          "name": "account",
          "type": "address"
        }
      ],
      "name": "borrowBalanceCurrent",
      "outputs": [
        {
          "internalType": "uint256",
          "name": "",
          "type": "uint256"
        }
      ],
      "stateMutability": "nonpayable",
      "type": "function"
    },
    {
      "inputs": [
        {
          "internalType": "address",
          "name": "account",
          "type": "address"
        }
      ],
      "name": "borrowBalanceStored",
      "outputs": [
        {
          "internalType": "uint256",
          "name": "",
          "type": "uint256"
        }
      ],
      "stateMutability": "view",
      "type": "function"
    },
    {
      "inputs": [],
      "name": "borrowIndex",
      "outputs": [
        {
          "internalType": "uint256",
          "name": "",
          "type": "uint256"
        }
      ],
      "stateMutability": "view",
      "type": "function"
    },
    {
      "inputs": [],
      "name": "borrowRatePerBlock",
      "outputs": [
        {
          "internalType": "uint256",
          "name": "",
          "type": "uint256"
        }
      ],
      "stateMutability": "view",
      "type": "function"
    },
    {
      "inputs": [],
      "name": "comptroller",
      "outputs": [
        {
          "internalType": "contract ComptrollerInterface",
          "name": "",
          "type": "address"
        }
      ],
      "stateMutability": "view",
      "type": "function"
    },
    {
      "inputs": [],
      "name": "decimals",
      "outputs": [
        {
          "internalType": "uint8",
          "name": "",
          "type": "uint8"
        }
      ],
      "stateMutability": "view",
      "type": "function"
    },
    {
      "inputs": [],
      "name": "exchangeRateCurrent",
      "outputs": [
        {
          "internalType": "uint256",
          "name": "",
          "type": "uint256"
        }
      ],
      "stateMutability": "nonpayable",
      "type": "function"
    },
    {
      "inputs": [],
      "name": "exchangeRateStored",
      "outputs": [
        {
          "internalType": "uint256",
          "name": "",
          "type": "uint256"
        }
      ],
      "stateMutability": "view",
      "type": "function"
    },
    {
      "inputs": [
        {
          "internalType": "address",
          "name": "account",
          "type": "address"
        }
      ],
      "name": "getAccountSnapshot",
      "outputs": [
        {
          "internalType": "uint256",
          "name": "",
          "type": "uint256"
        },
        {
          "internalType": "uint256",
          "name": "",
          "type": "uint256"
        },
        {
          "internalType": "uint256",
          "name": "",
          "type": "uint256"
        },
        {
          "internalType": "uint256",
          "name": "",
          "type": "uint256"
        }
      ],
      "stateMutability": "view",
      "type": "function"
    },
    {
      "inputs": [],
      "name": "getCash",
      "outputs": [
        {
          "internalType": "uint256",
          "name": "",
          "type": "uint256"
        }
      ],
      "stateMutability": "view",
      "type": "function"
    },
    {
      "inputs": [
        {
          "internalType": "address",
          "name": "underlying_",
          "type": "address"
        },
        {
          "internalType": "contract ComptrollerInterface",
          "name": "comptroller_",
          "type": "address"
        },
        {
          "internalType": "contract InterestRateModel",
          "name": "interestRateModel_",
          "type": "address"
        },
        {
          "internalType": "uint256",
          "name": "initialExchangeRateMantissa_",
          "type": "uint256"
        },
        {
          "internalType": "string",
          "name": "name_",
          "type": "string"
        },
        {
          "internalType": "string",
          "name": "symbol_",
          "type": "string"
        },
        {
          "internalType": "uint8",
          "name": "decimals_",
          "type": "uint8"
        }
      ],
      "name": "initialize",
      "outputs": [],
      "stateMutability": "nonpayable",
      "type": "function"
    },
    {
      "inputs": [
        {
          "internalType": "contract ComptrollerInterface",
          "name": "comptroller_",
          "type": "address"
        },
        {
          "internalType": "contract InterestRateModel",
          "name": "interestRateModel_",
          "type": "address"
        },
        {
          "internalType": "uint256",
          "name": "initialExchangeRateMantissa_",
          "type": "uint256"
        },
        {
          "internalType": "string",
          "name": "name_",
          "type": "string"
        },
        {
          "internalType": "string",
          "name": "symbol_",
          "type": "string"
        },
        {
          "internalType": "uint8",
          "name": "decimals_",
          "type": "uint8"
        }
      ],
      "name": "initialize",
      "outputs": [],
      "stateMutability": "nonpayable",
      "type": "function"
    },
    {
      "inputs": [],
      "name": "interestRateModel",
      "outputs": [
        {
          "internalType": "contract InterestRateModel",
          "name": "",
          "type": "address"
        }
      ],
      "stateMutability": "view",
      "type": "function"
    },
    {
      "inputs": [],
      "name": "isCToken",
      "outputs": [
        {
          "internalType": "bool",
          "name": "",
          "type": "bool"
        }
      ],
      "stateMutability": "view",
      "type": "function"
    },
    {
      "inputs": [
        {
          "internalType": "address",
          "name": "borrower",
          "type": "address"
        },
        {
          "internalType": "uint256",
          "name": "repayAmount",
          "type": "uint256"
        },
        {
          "internalType": "contract CTokenInterface",
          "name": "cTokenCollateral",
          "type": "address"
        }
      ],
      "name": "liquidateBorrow",
      "outputs": [
        {
          "internalType": "uint256",
          "name": "",
          "type": "uint256"
        }
      ],
      "stateMutability": "nonpayable",
      "type": "function"
    },
    {
      "inputs": [
        {
          "internalType": "uint256",
          "name": "mintAmount",
          "type": "uint256"
        }
      ],
      "name": "mint",
      "outputs": [
        {
          "internalType": "uint256",
          "name": "",
          "type": "uint256"
        }
      ],
      "stateMutability": "nonpayable",
      "type": "function"
    },
    {
      "inputs": [],
      "name": "name",
      "outputs": [
        {
          "internalType": "string",
          "name": "",
          "type": "string"
        }
      ],
      "stateMutability": "view",
      "type": "function"
    },
    {
      "inputs": [],
      "name": "pendingAdmin",
      "outputs": [
        {
          "internalType": "address payable",
          "name": "",
          "type": "address"
        }
      ],
      "stateMutability": "view",
      "type": "function"
    },
    {
      "inputs": [],
      "name": "protocolSeizeShareMantissa",
      "outputs": [
        {
          "internalType": "uint256",
          "name": "",
          "type": "uint256"
        }
      ],
      "stateMutability": "view",
      "type": "function"
    },
    {
      "inputs": [
        {
          "internalType": "uint256",
          "name": "redeemTokens",
          "type": "uint256"
        }
      ],
      "name": "redeem",
      "outputs": [
        {
          "internalType": "uint256",
          "name": "",
          "type": "uint256"
        }
      ],
      "stateMutability": "nonpayable",
      "type": "function"
    },
    {
      "inputs": [
        {
          "internalType": "uint256",
          "name": "redeemAmount",
          "type": "uint256"
        }
      ],
      "name": "redeemUnderlying",
      "outputs": [
        {
          "internalType": "uint256",
          "name": "",
          "type": "uint256"
        }
      ],
      "stateMutability": "nonpayable",
      "type": "function"
    },
    {
      "inputs": [
        {
          "internalType": "uint256",
          "name": "repayAmount",
          "type": "uint256"
        }
      ],
      "name": "repayBorrow",
      "outputs": [
        {
          "internalType": "uint256",
          "name": "",
          "type": "uint256"
        }
      ],
      "stateMutability": "nonpayable",
      "type": "function"
    },
    {
      "inputs": [
        {
          "internalType": "address",
          "name": "borrower",
          "type": "address"
        },
        {
          "internalType": "uint256",
          "name": "repayAmount",
          "type": "uint256"
        }
      ],
      "name": "repayBorrowBehalf",
      "outputs": [
        {
          "internalType": "uint256",
          "name": "",
          "type": "uint256"
        }
      ],
      "stateMutability": "nonpayable",
      "type": "function"
    },
    {
      "inputs": [],
      "name": "reserveFactorMantissa",
      "outputs": [
        {
          "internalType": "uint256",
          "name": "",
          "type": "uint256"
        }
      ],
      "stateMutability": "view",
      "type": "function"
    },
    {
      "inputs": [
        {
          "internalType": "address",
          "name": "liquidator",
          "type": "address"
        },
        {
          "internalType": "address",
          "name": "borrower",
          "type": "address"
        },
        {
          "internalType": "uint256",
          "name": "seizeTokens",
          "type": "uint256"
        }
      ],
      "name": "seize",
      "outputs": [
        {
          "internalType": "uint256",
          "name": "",
          "type": "uint256"
        }
      ],
      "stateMutability": "nonpayable",
      "type": "function"
    },
    {
      "inputs": [],
      "name": "supplyRatePerBlock",
      "outputs": [
        {
          "internalType": "uint256",
          "name": "",
          "type": "uint256"
        }
      ],
      "stateMutability": "view",
      "type": "function"
    },
    {
      "inputs": [
        {
          "internalType": "contract EIP20NonStandardInterface",
          "name": "token",
          "type": "address"
        }
      ],
      "name": "sweepToken",
      "outputs": [],
      "stateMutability": "nonpayable",
      "type": "function"
    },
    {
      "inputs": [],
      "name": "symbol",
      "outputs": [
        {
          "internalType": "string",
          "name": "",
          "type": "string"
        }
      ],
      "stateMutability": "view",
      "type": "function"
    },
    {
      "inputs": [],
      "name": "totalBorrows",
      "outputs": [
        {
          "internalType": "uint256",
          "name": "",
          "type": "uint256"
        }
      ],
      "stateMutability": "view",
      "type": "function"
    },
    {
      "inputs": [],
      "name": "totalBorrowsCurrent",
      "outputs": [
        {
          "internalType": "uint256",
          "name": "",
          "type": "uint256"
        }
      ],
      "stateMutability": "nonpayable",
      "type": "function"
    },
    {
      "inputs": [],
      "name": "totalReserves",
      "outputs": [
        {
          "internalType": "uint256",
          "name": "",
          "type": "uint256"
        }
      ],
      "stateMutability": "view",
      "type": "function"
    },
    {
      "inputs": [],
      "name": "totalSupply",
      "outputs": [
        {
          "internalType": "uint256",
          "name": "",
          "type": "uint256"
        }
      ],
      "stateMutability": "view",
      "type": "function"
    },
    {
      "inputs": [
        {
          "internalType": "address",
          "name": "dst",
          "type": "address"
        },
        {
          "internalType": "uint256",
          "name": "amount",
          "type": "uint256"
        }
      ],
      "name": "transfer",
      "outputs": [
        {
          "internalType": "bool",
          "name": "",
          "type": "bool"
        }
      ],
      "stateMutability": "nonpayable",
      "type": "function"
    },
    {
      "inputs": [
        {
          "internalType": "address",
          "name": "src",
          "type": "address"
        },
        {
          "internalType": "address",
          "name": "dst",
          "type": "address"
        },
        {
          "internalType": "uint256",
          "name": "amount",
          "type": "uint256"
        }
      ],
      "name": "transferFrom",
      "outputs": [
        {
          "internalType": "bool",
          "name": "",
          "type": "bool"
        }
      ],
      "stateMutability": "nonpayable",
      "type": "function"
    },
    {
      "inputs": [],
      "name": "underlying",
      "outputs": [
        {
          "internalType": "address",
          "name": "",
          "type": "address"
        }
      ],
      "stateMutability": "view",
      "type": "function"
    }
  ],
  "bytecode": {
    "object": "0x6080806040523461001657613832908161001c8239f35b600080fdfe6080604052600436101561001257600080fd5b60003560e01c806306fdde0314610357578063095ea7b3146103525780630e7527021461034d578063173b99041461034857806317bfdfbc1461034357806318160ddd1461033e578063182df0f5146103395780631a31d465146103345780631be195601461032f57806323b872dd1461032a5780632608f818146103255780632678224714610320578063313ce5671461031b5780633af9e669146103165780633b1d21a2146103115780633e9410101461030c5780634576b5db1461030757806347bd3718146103025780635fe3b567146102fd578063601a0bf1146102f85780636752e702146102f357806369ab3250146102ee5780636c540baf146102e95780636f307dc3146102e457806370a08231146102df57806373acee98146102da5780637f1e06be146102d5578063852a12e3146102d05780638f840ddd146102cb57806395d89b41146102c657806395dd9193146102c157806399d8c1b4146102bc578063a0712d68146102b7578063a6afed95146102b2578063a9059cbb146102ad578063aa5af0fd146102a8578063ae9d70b0146102a3578063b2a02ff11461029e578063b71d1a0c14610299578063bd6d894d14610294578063c37f68e21461028f578063c5ebeaec1461028a578063db006a7514610285578063dd62ed3e14610280578063e9c714f21461027b578063f2b3abbd14610276578063f3fdb15a14610271578063f5e3c4621461026c578063f851a44014610267578063f8f9da2814610262578063fca7820b1461025d5763fe9c44ae1461025857600080fd5b611d5f565b611c79565b611c16565b611be9565b611b0f565b611ae6565b611ab6565b61198e565b61192b565b611878565b6116cc565b611668565b61164d565b61159e565b611555565b6114ae565b611490565b611448565b61142d565b61126f565b6111ef565b6111c8565b611120565b611102565b610ea6565b610e25565b610ddd565b610da0565b610d77565b610d59565b610d3d565b610d1b565b610be4565b610bbb565b610b9d565b610b76565b610aa6565b610a8b565b610a21565b610a00565b6109d7565b610989565b61093f565b6107e9565b61075a565b6106d1565b6106b3565b610657565b610639565b6105e4565b610555565b61045c565b600091031261036757565b600080fd5b90600182811c9216801561039c575b602083101461038657565b634e487b7160e01b600052602260045260246000fd5b91607f169161037b565b634e487b7160e01b600052604160045260246000fd5b67ffffffffffffffff81116103d057604052565b6103a6565b6020810190811067ffffffffffffffff8211176103d057604052565b90601f8019910116810190811067ffffffffffffffff8211176103d057604052565b6020808252825181830181905290939260005b82811061044857505060409293506000838284010152601f8019910116010190565b818101860151848201604001528501610426565b346103675760008060031936011261054157604051908060018054906104818261036c565b808652926020926001811690811561051457506001146104bc575b6104b8866104ac818803826103f1565b60405191829182610413565b0390f35b9350600184527fb10e2d527612073b26eecdfd717e6a320cf44b4afac2b0732d9fcbe2b7fa0cf65b838510610501575050505081016020016104ac826104b83861049c565b80548686018401529382019381016104e4565b90508695506104b8969350602092506104ac94915060ff191682840152151560051b82010192933861049c565b80fd5b6001600160a01b0381160361036757565b346103675760403660031901126103675760043561057281610544565b6024359033600052600f602052816105a08260406000209060018060a01b0316600052602052604060002090565b556040519182526001600160a01b03169033907f8c5be1e5ebec7d5bd14f71427d1e84f3dd0314c0f7b2291e5b200ac8c7c3b92590602090a3602060405160018152f35b3461036757602036600319011261036757600160005461060660ff8216611d7b565b60ff1990811660005561061761267c565b506106256004353333612e89565b506000541617600055602060405160008152f35b34610367576000366003190112610367576020600854604051908152f35b3461036757602036600319011261036757602060043561067681610544565b60016106a26000549261068b60ff8516611d7b565b60ff1993841660005561069c61267c565b50612b1f565b916000541617600055604051908152f35b34610367576000366003190112610367576020600d54604051908152f35b346103675760003660031901126103675760206106ec61287d565b604051908152f35b60405190610701826103d5565b565b81601f820112156103675780359067ffffffffffffffff82116103d05760405192610738601f8401601f1916602001856103f1565b8284526020838301011161036757816000926020809301838601378301015290565b346103675760e03660031901126103675760043561077781610544565b6024359061078482610544565b6044359061079182610544565b67ffffffffffffffff608435818111610367576107b2903690600401610703565b9060a435908111610367576107cb903690600401610703565b9160c4359360ff85168503610367576107e79560643592611dcf565b005b346103675760203660031901126103675760043561080681610544565b60035460081c6001600160a01b0316906001600160a01b039061082c3383851614611e3c565b6011549116919061085990610851906001600160a01b03165b6001600160a01b031690565b831415611ea0565b6040516370a0823160e01b8152306004820152602081602481865afa9081156108df576000916108e4575b50823b156103675760405163a9059cbb60e01b81526001600160a01b0390921660048301526024820152906000908290818381604481015b03925af180156108df576108cc57005b806108d96107e7926103bc565b8061035c565b611dc3565b610906915060203d60201161090c575b6108fe81836103f1565b810190611db4565b38610884565b503d6108f4565b60609060031901126103675760043561092b81610544565b9060243561093881610544565b9060443590565b34610367576020610977600161095436610913565b906000949294549461096860ff8716611d7b565b60ff19958616600055336128d4565b15916000541617600055604051908152f35b346103675760403660031901126103675760016004356109a881610544565b610625600054916109bb60ff8416611d7b565b60ff199283166000556109cc61267c565b506024359033612e89565b34610367576000366003190112610367576004546040516001600160a01b039091168152602090f35b3461036757600036600319011261036757602060ff60035416604051908152f35b34610367576020366003190112610367576020670de0b6b3a7640000610a81600435610a4c81610544565b610a546127f7565b9060405191610a62836103d5565b82526001600160a01b03166000908152600e8552604090205490612c33565b5104604051908152f35b346103675760003660031901126103675760206106ec612ac8565b3461036757602036600319011261036757600054610ac660ff8216611d7b565b60ff1916600055610ad561267c565b506009544303610b5d57610aeb6004353361366c565b600c54818101809111610b5857600c8190556040805133815260208101939093528201527fa91e67c5ea634cd43a12c5a482724b03de01e85ca68702a53d0c2f45cb7c1dc59080606081015b0390a1610b4c600160ff196000541617600055565b60405160008152602090f35b61264c565b6040516338acf79960e01b815260006004820152602490fd5b346103675760203660031901126103675760206106ec600435610b9881610544565b611f6b565b34610367576000366003190112610367576020600b54604051908152f35b34610367576000366003190112610367576005546040516001600160a01b039091168152602090f35b3461036757602036600319011261036757600435600054610c0760ff8216611d7b565b60ff1916600055610c1661267c565b50600354610c2f9060081c6001600160a01b0316610845565b3303610d09576009544303610cf75780610c47612ac8565b10610ce557600c5490818111610cd357610c82817f3bad0c59cf2f06e7314077049f48a93578cd16f5ef92329f1dab1420a99c177e93612662565b610c8b81600c55565b600354610ca590839060081c6001600160a01b0316613038565b6003546040805160089290921c6001600160a01b031682526020820193909352918201528060608101610b37565b6040516378d2980560e11b8152600490fd5b604051633345e99960e01b8152600490fd5b604051630dff50cb60e41b8152600490fd5b604051630f7e5e6d60e41b8152600490fd5b34610367576000366003190112610367576020604051666379da05b600008152f35b3461036757600036600319011261036757602060405160008152f35b34610367576000366003190112610367576020600954604051908152f35b34610367576000366003190112610367576011546040516001600160a01b039091168152602090f35b3461036757602036600319011261036757600435610dbd81610544565b60018060a01b0316600052600e6020526020604060002054604051908152f35b3461036757600080600319360112610541578054602091610e0060ff8316611d7b565b60ff199182168155610e1061267c565b506001600b5492825416179055604051908152f35b3461036757602036600319011261036757600435610e4281610544565b610e5a60018060a01b0360035460081c163314612074565b601154610e7190610845906001600160a01b031681565b803b15610367576040516317066a5760e21b81526001600160a01b0383166004820152906000908290818381602481016108bc565b34610367576020366003190112610367576004803590600090815490610ece60ff8316611d7b565b60ff199182168355610ede61267c565b50610efb610eea61287d565b610ef26106f4565b908152856137b7565b600554909190610f13906001600160a01b0316610845565b6040805163eabe7d9160e01b81523084820190815233602082810191909152818401879052929893919291839182908a90829060600103925af19081156108df5786916110e3575b50806110c7575060095443036110b85780610f74612ac8565b106110a957610f8d610f8884600d54612662565b600d55565b336000908152600e60205260409020610fa99084905b54612662565b336000908152600e6020526040902055610fc38133613038565b8551838152309033906000805160206137dd83398151915290602090a3855133815260208101829052604081018490527fe5b754fb1abb7f01b499791d0b820ae3b6af3424ac1c59768edb53f4ec31a92990606090a160055461102e906001600160a01b0316610845565b91823b156110a55786516351dff98960e01b8152309181019182523360208301526040820192909252606081019390935292918491849182908490829060800103925af19182156108df57600192611092575b508254161790555160008152602090f35b806108d961109f926103bc565b38611081565b8580fd5b5084516391240a1b60e01b8152fd5b5084516397b5cfcd60e01b8152fd5b865163480f424760e01b81528084019182529081906020010390fd5b6110fc915060203d60201161090c576108fe81836103f1565b38610f5b565b34610367576000366003190112610367576020600c54604051908152f35b3461036757600080600319360112610541576040519080600254906111448261036c565b808552916020916001918281169081156105145750600114611170576104b8866104ac818803826103f1565b9350600284527f405787fa12a823e0f2b7631cc41b3ba8828b3321ca811111fa75cd3aa3bb5ace5b8385106111b5575050505081016020016104ac826104b83861049c565b8054868601840152938201938101611198565b346103675760203660031901126103675760206106ec6004356111ea81610544565b612b1f565b346103675760c03660031901126103675760043561120c81610544565b6024359061121982610544565b67ffffffffffffffff6064358181116103675761123a903690600401610703565b9060843590811161036757611253903690600401610703565b9060a4359260ff84168403610367576107e794604435916124f3565b346103675760203660031901126103675760043560005461129260ff8216611d7b565b60ff19166000556112a161267c565b506005546112b7906001600160a01b0316610845565b60408051634ef4c3e160e01b815230600482015233602482015260448101849052909291602090829060649082906000905af19081156108df5760009161140e575b50806113f5575060095443036113e4577f4c209b5fc8ad50758f13e2e1088ba56a560dff690a1c6fef26394f4c03821c4f61135161134a61133861287d565b936113416106f4565b9485523361366c565b92836137b7565b8092611362610f8883600d5461266f565b336000908152600e6020526040902061137e9083905b5461266f565b336000908152600e602052604090205584513381526020810191909152604081019190915280606081010390a18151908152339030906000805160206137dd83398151915290602090a36113da600160ff196000541617600055565b5160008152602090f35b81516338d8859760e01b8152600490fd5b82516349abd4fd60e01b81526004810191909152602490fd5b611427915060203d60201161090c576108fe81836103f1565b386112f9565b346103675760003660031901126103675760206106ec61267c565b3461036757604036600319011261036757602060043561146781610544565b60016109776000549261147c60ff8516611d7b565b60ff199384166000556024359033806128d4565b34610367576000366003190112610367576020600a54604051908152f35b34610367576000366003190112610367576006546001600160a01b031660206114d5612ac8565b600b54600c54600854604051635c0b440b60e11b815260048101949094526024840192909252604483015260648201529182908180608481015b03915afa80156108df576104b891600091611536575b506040519081529081906020820190565b61154f915060203d60201161090c576108fe81836103f1565b38611525565b3461036757600161158b61156836610913565b906000939293549361157c60ff8616611d7b565b60ff1994851660005533612c5f565b6000541617600055602060405160008152f35b34610367576020366003190112610367576004356115bb81610544565b6003546001600160a01b039060081c8116330361163b57600480548383166001600160a01b031982161790915560408051929091166001600160a01b03908116835290921660208201527fca4f2f25d0898edd99413412fb94012f9e54ec8142f9b093e7720646a95b16a991819081015b0390a160405160008152602090f35b604051635cb56c2b60e01b8152600490fd5b346103675760003660031901126103675760206106ec6127f7565b3461036757602036600319011261036757608060043561168781610544565b6001600160a01b0381166000908152600e6020526040902054906116aa90612b1f565b6116b261287d565b906040519260008452602084015260408301526060820152f35b34610367576020366003190112610367576004356000546116ef60ff8216611d7b565b60ff19166000556116fe61267c565b50600554611714906001600160a01b0316610845565b6040805163368f515360e21b815230600482015233602482015260448101849052909291602090829060649082906000905af19081156108df57600091611859575b50806118405750600954430361182f578061176f612ac8565b1061181e57806117a87f13ed6866d4e1ee6da46f845c46d7e54120883d75c5ea9a2dacc1c4ca8984ab80926117a333612b1f565b61266f565b906118096117b882600b5461266f565b336000908152601060205260409020848155600a54600190910155600b8190556117e28333613038565b85513381526020810193909352604083019390935260608201929092529081906080820190565b0390a16113da600160ff196000541617600055565b81516348c2588160e01b8152600490fd5b8151630e8d8c6160e21b8152600490fd5b825163918db40f60e01b81526004810191909152602490fd5b611872915060203d60201161090c576108fe81836103f1565b38611756565b34610367576020366003190112610367576004803560009081549061189f60ff8316611d7b565b60ff1991821683556118af61267c565b5080159081159182611923575b6118c59061310d565b6118cd61287d565b916118d66106f4565b92835215611912576118ec816118fb9293612c33565b670de0b6b3a764000090510490565b935b600554610f13906001600160a01b0316610845565b5061191c906137ac565b82936118fd565b5060016118bc565b3461036757604036600319011261036757602061198560043561194d81610544565b6024359061195a82610544565b60018060a01b0316600052600f835260406000209060018060a01b0316600052602052604060002090565b54604051908152f35b34610367576000366003190112610367576004546001600160a01b031680338114801590611aae575b611a9c576003547fca4f2f25d0898edd99413412fb94012f9e54ec8142f9b093e7720646a95b16a9927ff9ffabca9c8276e99321725bcb43fb076a6c66a54b7f21c4e8146d8519b417dc91611a4390611a1b9060081c6001600160a01b0316610845565b60038054610100600160a81b03191660089490941b610100600160a81b031693909317909255565b600480546001600160a01b0319169055600354604080516001600160a01b03938416815260089290921c9092166020820152a1600454604080516001600160a01b0393841681529290911660208301528190810161162c565b604051631ba24f2960e21b8152600490fd5b5033156119b7565b346103675760203660031901126103675760206106ec600435611ad881610544565b611ae061267c565b50612b61565b34610367576000366003190112610367576006546040516001600160a01b039091168152602090f35b3461036757606036600319011261036757600435611b2c81610544565b604435611b3881610544565b600054611b4760ff8216611d7b565b60ff1916600055611b5661267c565b5060405163a6afed9560e01b81529160208360048160006001600160a01b0387165af19283156108df57600093611bc8575b5082611baf57611b9d92506024359033613283565b610b4c600160ff196000541617600055565b604051633eea49b760e11b815260048101849052602490fd5b611be291935060203d60201161090c576108fe81836103f1565b9138611b88565b346103675760003660031901126103675760035460405160089190911c6001600160a01b03168152602090f35b346103675760003660031901126103675760065461150f906020906001600160a01b0316611c42612ac8565b600b54600c546040516315f2405360e01b815260048101939093526024830191909152604482015292839190829081906064820190565b3461036757602036600319011261036757600435600054611c9c60ff8216611d7b565b60ff1916600055611cab61267c565b50600354611cc49060081c6001600160a01b0316610845565b3303611d4d576009544303611d3b57670de0b6b3a76400008111611d29577faaa68312e2ea9d50e16af5068410ab56e1a1fd06037b1a35664812c30f82146090600854611d1082600855565b6040805191825260208201929092529081908101610b37565b60405163717220f360e11b8152600490fd5b604051637dfca6b760e11b8152600490fd5b604051631205b57b60e11b8152600490fd5b3461036757600036600319011261036757602060405160018152f35b15611d8257565b60405162461bcd60e51b815260206004820152600a6024820152691c994b595b9d195c995960b21b6044820152606490fd5b90816020910312610367575190565b6040513d6000823e3d90fd5b93611de19360049793602097936124f3565b601180546001600160a01b0319166001600160a01b039290921691821790556040516318160ddd60e01b815292839182905afa80156108df57611e215750565b611e399060203d60201161090c576108fe81836103f1565b50565b15611e4357565b60405162461bcd60e51b815260206004820152602f60248201527f4345726332303a3a7377656570546f6b656e3a206f6e6c792061646d696e206360448201526e616e20737765657020746f6b656e7360881b6064820152608490fd5b15611ea757565b60405162461bcd60e51b815260206004820152603260248201527f4345726332303a3a7377656570546f6b656e3a2063616e206e6f74207377656560448201527138103ab73232b9363cb4b733903a37b5b2b760711b6064820152608490fd5b90816020910312610367575180151581036103675790565b15611f2657565b60405162461bcd60e51b815260206004820152601c60248201527f6d61726b6572206d6574686f642072657475726e65642066616c7365000000006044820152606490fd5b600354611f839060081c6001600160a01b0316610845565b3303612062576005546001600160a01b0316604051623f1ee960e11b815291906020836004816001600160a01b0386165afa9283156108df577f7ac369dbd14fa5ea3f473ed67cc9d598964a77501540ba6751eb0b3decf5870d93611ff091600091612033575b50611f1f565b600580546001600160a01b0319166001600160a01b0384161790555b604080516001600160a01b039283168152929091166020830152819081015b0390a1600090565b612055915060203d60201161205b575b61204d81836103f1565b810190611f07565b38611fea565b503d612043565b60405163d219dc1f60e01b8152600490fd5b1561207b57565b60405162461bcd60e51b815260206004820152602d60248201527f6f6e6c79207468652061646d696e206d6179207365742074686520636f6d702d60448201526c6c696b652064656c656761746560981b6064820152608490fd5b156120dd57565b60405162461bcd60e51b815260206004820152602360248201527f6d61726b6574206d6179206f6e6c7920626520696e697469616c697a6564206f6044820152626e636560e81b6064820152608490fd5b1561213557565b60405162461bcd60e51b815260206004820152603060248201527f696e697469616c2065786368616e67652072617465206d75737420626520677260448201526f32b0ba32b9103a3430b7103d32b9379760811b6064820152608490fd5b1561219a57565b60405162461bcd60e51b815260206004820152601a60248201527f73657474696e6720636f6d7074726f6c6c6572206661696c65640000000000006044820152606490fd5b156121e657565b60405162461bcd60e51b815260206004820152602260248201527f73657474696e6720696e7465726573742072617465206d6f64656c206661696c604482015261195960f21b6064820152608490fd5b90601f8211612243575050565b60019160009060016000527fb10e2d527612073b26eecdfd717e6a320cf44b4afac2b0732d9fcbe2b7fa0cf6906020601f850160051c830194106122a2575b601f0160051c01915b8281106122985750505050565b818155830161228b565b9092508290612282565b601f81116122b8575050565b60009060026000527f405787fa12a823e0f2b7631cc41b3ba8828b3321ca811111fa75cd3aa3bb5ace906020601f850160051c83019410612314575b601f0160051c01915b82811061230957505050565b8181556001016122fd565b90925082906122f4565b90815167ffffffffffffffff81116103d05760019061234681612341845461036c565b612236565b602080601f83116001146123895750819061237a93949560009261237e575b50508160011b916000199060031b1c19161790565b9055565b015190503880612365565b90601f198316956123bc60016000527fb10e2d527612073b26eecdfd717e6a320cf44b4afac2b0732d9fcbe2b7fa0cf690565b926000905b8882106123f757505083859697106123de575b505050811b019055565b015160001960f88460031b161c191690553880806123d4565b8087859682949686015181550195019301906123c1565b90815167ffffffffffffffff81116103d0576124348161242f60025461036c565b6122ac565b602080601f831160011461246b57508190612466939460009261237e5750508160011b916000199060031b1c19161790565b600255565b90601f1983169461249e60026000527f405787fa12a823e0f2b7631cc41b3ba8828b3321ca811111fa75cd3aa3bb5ace90565b926000905b8782106124db5750508360019596106124c2575b505050811b01600255565b015160001960f88460031b161c191690553880806124b7565b806001859682949686015181550195019301906124a3565b60035490959492939060081c6001600160a01b031633036125af5761257961257361257e9361255461254e6125939a6125416125839a60095415806125a5575b61253c906120d6565b600755565b610b98600754151561212e565b15612193565b61255d43600955565b61256e670de0b6b3a7640000600a55565b612b61565b156121df565b61231e565b61240e565b60ff1660ff196003541617600355565b610701600160ff196000541617600055565b50600a5415612533565b60405162461bcd60e51b8152602060048201526024808201527f6f6e6c792061646d696e206d617920696e697469616c697a6520746865206d616044820152631c9ad95d60e21b6064820152608490fd5b1561260757565b60405162461bcd60e51b815260206004820152601c60248201527f626f72726f772072617465206973206162737572646c792068696768000000006044820152606490fd5b634e487b7160e01b600052601160045260246000fd5b91908203918211610b5857565b91908201809211610b5857565b6009544381146127f15761268e612ac8565b600b5490600c5492600a54926126ae61084560065460018060a01b031690565b6040516315f2405360e01b81526004810185905260248101839052604481018790529590602090879060649082905afa9586156108df57612788866117a36118ec612776996127826127597f4dec04e750ca11537cabcd8a9eab06494de08da3735bc8871cd41250e190bc049d61202b9b6127a9996000926127cc575b506127489061274265048c27395000841115612600565b43612662565b906127516106f4565b908152612c33565b976117a36118ec61276d6118ec8d8d612c33565b9e8f9c8d61266f565b9b6008546127516106f4565b96612c33565b9161279243600955565b61279b83600a55565b6127a484600b55565b600c55565b604051948594859094939260609260808301968352602083015260408201520152565b6127489192506127ea9060203d60201161090c576108fe81836103f1565b919061272b565b50600090565b6000549061280760ff8316611d7b565b60ff1991821660005561281861267c565b50600161282361287d565b926000541617600055565b90666379da05b6000091828102928184041490151715610b5857565b81810292918115918404141715610b5857565b8115612867570490565b634e487b7160e01b600052601260045260246000fd5b600d548061288c575060075490565b612894612ac8565b90600b548201809211610b5857600c549182810392818411610b5857670de0b6b3a76400008085029485041491141715610b58576128d19161285d565b90565b9091926128eb61084560055460018060a01b031690565b6040516317b9b84b60e31b81523060048201526001600160a01b038581166024830152861660448201526064810183905290602090829060849082906000905af19081156108df57600091612aa9575b5080612a8f57506001600160a01b038481169484821694919291858714612a7d576000805160206137dd83398151915294612a0d9481168703612a54576000195b6129868582612662565b936129f36129aa87610fa38760018060a01b0316600052600e602052604060002090565b916129cb886113788360018060a01b0316600052600e602052604060002090565b6001600160a01b038781166000908152600e6020526040808220969096559216825292902090565b5519612a15575b5050604051918252509081906020820190565b0390a3600090565b612a34612a4b9260018060a01b0316600052600f602052604060002090565b9060018060a01b0316600052602052604060002090565b553880806129fa565b6001600160a01b0382166000908152600f60205260409020612a77908290612a34565b5461297c565b604051638cd22d1960e01b8152600490fd5b60405163089d427760e11b81526004810191909152602490fd5b612ac2915060203d60201161090c576108fe81836103f1565b3861293b565b6011546040516370a0823160e01b815230600482015290602090829060249082906001600160a01b03165afa9081156108df57600091612b06575090565b6128d1915060203d60201161090c576108fe81836103f1565b6001600160a01b031660009081526010602052604090208054908115612b5a576001612b516128d193600a549061284a565b9101549061285d565b5050600090565b600354612b799060081c6001600160a01b0316610845565b3303612c21576009544303612c0f576006546001600160a01b03166040516310c8fc9560e11b815291906020836004816001600160a01b0386165afa9283156108df577fedffc32e068c7c95dfd4bdfd5c4d939a084d6b11c4199eac8436ed234d72f92693612bef916000916120335750611f1f565b600680546001600160a01b0319166001600160a01b03841617905561200c565b604051630be2a5cb60e11b8152600490fd5b60405163407fded560e01b8152600490fd5b90612c4d916000604051612c46816103d5565b525161284a565b60405190612c5a826103d5565b815290565b9280602084612c7861084560055460018060a01b031690565b6040805163d02f735160e01b81523060048201526001600160a01b03998a166024820152878a166044820152929098166064830152608482019390935291829060a49082906000905af19081156108df57600091612e6a575b5080612e5157506001600160a01b03838116929081169190838314612e40579383612e0f612e3b94612d7b967fa91e67c5ea634cd43a12c5a482724b03de01e85ca68702a53d0c2f45cb7c1dc59995612d8299666379da05b60000612d346106f4565b52670de0b6b3a7640000612d478361282e565b0496612dca612dae612d598a86612662565b94612d716118ec8c612d6961287d565b6127516106f4565b9d8e600c5461266f565b9e8f600c55565b612d91610f888c600d54612662565b6001600160a01b0384166000908152600e60205260409020610fa3565b6001600160a01b039092166000908152600e6020526040902090565b55612dee612dae836113788460018060a01b0316600052600e602052604060002090565b558651806000805160206137dd833981519152958693829190602083019252565b0390a383519283523092602090a351308152602081019290925260408201929092529081906060820190565b0390a1565b8551633a94626760e11b8152600490fd5b84516363e00e3360e11b81526004810191909152602490fd5b612e83915060203d60201161090c576108fe81836103f1565b38612cd1565b600554909190612ea1906001600160a01b0316610845565b604051631200453160e11b81523060048201526001600160a01b038481166024830152831660448201526064810185905290602090829060849082906000905af19081156108df57600091613019575b5080612fff57506009544303612fed577f1a2a22cb034d26d1854bdc6666a5b91fe25efbbb5dcad3b0355478d6f5c362a191612f2c82612b1f565b936000198103612fde5750612fd8612f4f612f48865b8461366c565b8096612662565b612f5b86600b54612662565b9080612f798660018060a01b03166000526010602052604060002090565b55600a546001600160a01b038616600090815260106020526040902060010155612fa282600b55565b866040519586958691959493909260809360a084019760018060a01b038092168552166020840152604083015260608201520152565b0390a190565b612f4f612f48612fd892612f42565b60405163c9021e2f60e01b8152600490fd5b604051638c81362d60e01b81526004810191909152602490fd5b613032915060203d60201161090c576108fe81836103f1565b38612ef1565b919060018060a01b036011541690813b156103675760405163a9059cbb60e01b81526001600160a01b0394909416600485015260248401526000929083908290604490829084905af180156108df576130fe575b503d80156130f35760201461309f575080fd5b90602081803e515b156130ae57565b60405162461bcd60e51b815260206004820152601960248201527f544f4b454e5f5452414e534645525f4f55545f4641494c4544000000000000006044820152606490fd5b5090506000196130a7565b613107906103bc565b3861308c565b1561311457565b60405162461bcd60e51b815260206004820152603460248201527f6f6e65206f662072656465656d546f6b656e73496e206f722072656465656d416044820152736d6f756e74496e206d757374206265207a65726f60601b6064820152608490fd5b9190826040910312610367576020825192015190565b1561319357565b60405162461bcd60e51b815260206004820152603360248201527f4c49515549444154455f434f4d5054524f4c4c45525f43414c43554c4154455f604482015272105353d5539517d4d152569157d19052531151606a1b6064820152608490fd5b156131fb57565b60405162461bcd60e51b815260206004820152601860248201527f4c49515549444154455f5345495a455f544f4f5f4d55434800000000000000006044820152606490fd5b1561324757565b60405162461bcd60e51b81526020600482015260146024820152731d1bdad95b881cd95a5e9d5c994819985a5b195960621b6044820152606490fd5b600554929391929091906001600160a01b03166001600160a01b031660408051632fe3f38f60e11b8152306004808301919091526001600160a01b039485166024830181905286861660448401528786166064840152608483018990529097909460209283818060a4810103816000809a5af19081156108df578691613603575b50806135e7575060095443036135d7578351636c540baf60e01b815283818b818a5afa9081156108df5786916135ba575b5043036135aa578087169088161461359a57801561358a57600019811461357a57613361908787612e89565b600554909390613379906001600160a01b0316610845565b835163c488847b60e01b815230818b019081526001600160a01b03881660208201526040810187905290999185918b91908290819060600103915afa9889156108df578290839a613548575b506133d0901561318c565b83516370a0823160e01b81526001600160a01b03891682820190815284908290819060200103818a5afa9081156108df57613416918b91859161352b575b5010156131f4565b30860361348857505050918591612e3b936134547f298637f684da70674f26509b10f07ec2fbc77a335ab1e7d6215a4b2484d8bb5298888830612c5f565b516001600160a01b0395861681529585166020870152604086015290921660608401526080830191909152819060a0820190565b835163b2a02ff160e01b81526001600160a01b0380891692820192835289166020830152604082018a905298929592949293919086908a908190606001038184885af180156108df577f298637f684da70674f26509b10f07ec2fbc77a335ab1e7d6215a4b2484d8bb5299612e3b97613509939261350e575b505015613240565b613454565b6135249250803d1061090c576108fe81836103f1565b3880613501565b6135429150863d881161090c576108fe81836103f1565b3861340e565b6133d09a5061356d9150853d8711613573575b61356581836103f1565b810190613176565b996133c5565b503d61355b565b8251635982c5bb60e11b81528890fd5b825163d29da7ef60e01b81528890fd5b8251631bd1a62160e21b81528890fd5b8351631046f38d60e31b81528990fd5b6135d19150843d861161090c576108fe81836103f1565b38613335565b83516380965b1b60e01b81528990fd5b8451630a14d17960e11b8152808b019182529081906020010390fd5b61361a9150843d861161090c576108fe81836103f1565b38613304565b1561362757565b60405162461bcd60e51b815260206004820152601860248201527f544f4b454e5f5452414e534645525f494e5f4641494c454400000000000000006044820152606490fd5b6011546040516370a0823160e01b80825230600483015260209491936001600160a01b03909316929091908585602481875afa9485156108df5760009561378d575b50833b15610367576040516323b872dd60e01b81526001600160a01b03919091166004820152306024820152604481019190915260008160648183875af180156108df5761377a575b503d84811561376c575060201461370d57600080fd5b8390816000803e61371f600051613620565b60405190815230600482015291829060249082905afa9081156108df576128d19360009261374f575b5050612662565b6137659250803d1061090c576108fe81836103f1565b3880613748565b91905061371f600019613620565b806108d9613787926103bc565b386136f7565b6137a5919550863d881161090c576108fe81836103f1565b93386136ae565b511561286757600090565b670de0b6b3a764000090818102918183041490151715610b58576128d191519061285d56feddf252ad1be2c89b69c2b068fc378daa952ba7f163c4a11628f55a4df523b3efa2646970667358221220dff8e61e52e2e0d61f38a7bc29766dd1ccc308fcb11c7759f537068b008e216664736f6c63430008170033",
    "linkReferences": {}
  },
  "methodIdentifiers": {
    "NO_ERROR()": "69ab3250",
    "_acceptAdmin()": "e9c714f2",
    "_addReserves(uint256)": "3e941010",
    "_delegateCompLikeTo(address)": "7f1e06be",
    "_reduceReserves(uint256)": "601a0bf1",
    "_setComptroller(address)": "4576b5db",
    "_setInterestRateModel(address)": "f2b3abbd",
    "_setPendingAdmin(address)": "b71d1a0c",
    "_setReserveFactor(uint256)": "fca7820b",
    "accrualBlockNumber()": "6c540baf",
    "accrueInterest()": "a6afed95",
    "admin()": "f851a440",
    "allowance(address,address)": "dd62ed3e",
    "approve(address,uint256)": "095ea7b3",
    "balanceOf(address)": "70a08231",
    "balanceOfUnderlying(address)": "3af9e669",
    "borrow(uint256)": "c5ebeaec",
    "borrowBalanceCurrent(address)": "17bfdfbc",
    "borrowBalanceStored(address)": "95dd9193",
    "borrowIndex()": "aa5af0fd",
    "borrowRatePerBlock()": "f8f9da28",
    "comptroller()": "5fe3b567",
    "decimals()": "313ce567",
    "exchangeRateCurrent()": "bd6d894d",
    "exchangeRateStored()": "182df0f5",
    "getAccountSnapshot(address)": "c37f68e2",
    "getCash()": "3b1d21a2",
    "initialize(address,address,address,uint256,string,string,uint8)": "1a31d465",
    "initialize(address,address,uint256,string,string,uint8)": "99d8c1b4",
    "interestRateModel()": "f3fdb15a",
    "isCToken()": "fe9c44ae",
    "liquidateBorrow(address,uint256,address)": "f5e3c462",
    "mint(uint256)": "a0712d68",
    "name()": "06fdde03",
    "pendingAdmin()": "26782247",
    "protocolSeizeShareMantissa()": "6752e702",
    "redeem(uint256)": "db006a75",
    "redeemUnderlying(uint256)": "852a12e3",
    "repayBorrow(uint256)": "0e752702",
    "repayBorrowBehalf(address,uint256)": "2608f818",
    "reserveFactorMantissa()": "173b9904",
    "seize(address,address,uint256)": "b2a02ff1",
    "supplyRatePerBlock()": "ae9d70b0",
    "sweepToken(address)": "1be19560",
    "symbol()": "95d89b41",
    "totalBorrows()": "47bd3718",
    "totalBorrowsCurrent()": "73acee98",
    "totalReserves()": "8f840ddd",
    "totalSupply()": "18160ddd",
    "transfer(address,uint256)": "a9059cbb",
    "transferFrom(address,address,uint256)": "23b872dd",
    "underlying()": "6f307dc3"
  },
  "id": 0
}