{"abi":[{"type":"function","name":"NO_ERROR","inputs":[],"outputs":[{"name":"","type":"uint256","internalType":"uint256"}],"stateMutability":"view"},{"type":"function","name":"_acceptAdmin","inputs":[],"outputs":[{"name":"","type":"uint256","internalType":"uint256"}],"stateMutability":"nonpayable"},{"type":"function","name":"_addReserves","inputs":[{"name":"addAmount","type":"uint256","internalType":"uint256"}],"outputs":[{"name":"","type":"uint256","internalType":"uint256"}],"stateMutability":"nonpayable"},{"type":"function","name":"_delegateCompLikeTo","inputs":[{"name":"compLikeDelegatee","type":"address","internalType":"address"}],"outputs":[],"stateMutability":"nonpayable"},{"type":"function","name":"_reduceReserves","inputs":[{"name":"reduceAmount","type":"uint256","internalType":"uint256"}],"outputs":[{"name":"","type":"uint256","internalType":"uint256"}],"stateMutability":"nonpayable"},{"type":"function","name":"_setComptroller","inputs":[{"name":"newComptroller","type":"address","internalType":"contract ComptrollerInterface"}],"outputs":[{"name":"","type":"uint256","internalType":"uint256"}],"stateMutability":"nonpayable"},{"type":"function","name":"_setInterestRateModel","inputs":[{"name":"newInterestRateModel","type":"address","internalType":"contract InterestRateModel"}],"outputs":[{"name":"","type":"uint256","internalType":"uint256"}],"stateMutability":"nonpayable"},{"type":"function","name":"_setPendingAdmin","inputs":[{"name":"newPendingAdmin","type":"address","internalType":"address payable"}],"outputs":[{"name":"","type":"uint256","internalType":"uint256"}],"stateMutability":"nonpayable"},{"type":"function","name":"_setReserveFactor","inputs":[{"name":"newReserveFactorMantissa","type":"uint256","internalType":"uint256"}],"outputs":[{"name":"","type":"uint256","internalType":"uint256"}],"stateMutability":"nonpayable"},{"type":"function","name":"accrualBlockNumber","inputs":[],"outputs":[{"name":"","type":"uint256","internalType":"uint256"}],"stateMutability":"view"},{"type":"function","name":"accrueInterest","inputs":[],"outputs":[{"name":"","type":"uint256","internalType":"uint256"}],"stateMutability":"nonpayable"},{"type":"function","name":"admin","inputs":[],"outputs":[{"name":"","type":"address","internalType":"address payable"}],"stateMutability":"view"},{"type":"function","name":"allowance","inputs":[{"name":"owner","type":"address","internalType":"address"},{"name":"spender","type":"address","internalType":"address"}],"outputs":[{"name":"","type":"uint256","internalType":"uint256"}],"stateMutability":"view"},{"type":"function","name":"approve","inputs":[{"name":"spender","type":"address","internalType":"address"},{"name":"amount","type":"uint256","internalType":"uint256"}],"outputs":[{"name":"","type":"bool","internalType":"bool"}],"stateMutability":"nonpayable"},{"type":"function","name":"balanceOf","inputs":[{"name":"owner","type":"address","internalType":"address"}],"outputs":[{"name":"","type":"uint256","internalType":"uint256"}],"stateMutability":"view"},{"type":"function","name":"balanceOfUnderlying","inputs":[{"name":"owner","type":"address","internalType":"address"}],"outputs":[{"name":"","type":"uint256","internalType":"uint256"}],"stateMutability":"nonpayable"},{"type":"function","name":"borrow","inputs":[{"name":"borrowAmount","type":"uint256","internalType":"uint256"}],"outputs":[{"name":"","type":"uint256","internalType":"uint256"}],"stateMutability":"nonpayable"},{"type":"function","name":"borrowBalanceCurrent","inputs":[{"name":"account","type":"address","internalType":"address"}],"outputs":[{"name":"","type":"uint256","internalType":"uint256"}],"stateMutability":"nonpayable"},{"type":"function","name":"borrowBalanceStored","inputs":[{"name":"account","type":"address","internalType":"address"}],"outputs":[{"name":"","type":"uint256","internalType":"uint256"}],"stateMutability":"view"},{"type":"function","name":"borrowIndex","inputs":[],"outputs":[{"name":"","type":"uint256","internalType":"uint256"}],"stateMutability":"view"},{"type":"function","name":"borrowRatePerBlock","inputs":[],"outputs":[{"name":"","type":"uint256","internalType":"uint256"}],"stateMutability":"view"},{"type":"function","name":"comptroller","inputs":[],"outputs":[{"name":"","type":"address","internalType":"contract ComptrollerInterface"}],"stateMutability":"view"},{"type":"function","name":"decimals","inputs":[],"outputs":[{"name":"","type":"uint8","internalType":"uint8"}],"stateMutability":"view"},{"type":"function","name":"exchangeRateCurrent","inputs":[],"outputs":[{"name":"","type":"uint256","internalType":"uint256"}],"stateMutability":"nonpayable"},{"type":"function","name":"exchangeRateStored","inputs":[],"outputs":[{"name":"","type":"uint256","internalType":"uint256"}],"stateMutability":"view"},{"type":"function","name":"getAccountSnapshot","inputs":[{"name":"account","type":"address","internalType":"address"}],"outputs":[{"name":"","type":"uint256","internalType":"uint256"},{"name":"","type":"uint256","internalType":"uint256"},{"name":"","type":"uint256","internalType":"uint256"},{"name":"","type":"uint256","internalType":"uint256"}],"stateMutability":"view"},{"type":"function","name":"getCash","inputs":[],"outputs":[{"name":"","type":"uint256","internalType":"uint256"}],"stateMutability":"view"},{"type":"function","name":"initialize","inputs":[{"name":"underlying_","type":"address","internalType":"address"},{"name":"comptroller_","type":"address","internalType":"contract ComptrollerInterface"},{"name":"interestRateModel_","type":"address","internalType":"contract InterestRateModel"},{"name":"initialExchangeRateMantissa_","type":"uint256","internalType":"uint256"},{"name":"name_","type":"string","internalType":"string"},{"name":"symbol_","type":"string","internalType":"string"},{"name":"decimals_","type":"uint8","internalType":"uint8"}],"outputs":[],"stateMutability":"nonpayable"},{"type":"function","name":"initialize","inputs":[{"name":"comptroller_","type":"address","internalType":"contract ComptrollerInterface"},{"name":"interestRateModel_","type":"address","internalType":"contract InterestRateModel"},{"name":"initialExchangeRateMantissa_","type":"uint256","internalType":"uint256"},{"name":"name_","type":"string","internalType":"string"},{"name":"symbol_","type":"string","internalType":"string"},{"name":"decimals_","type":"uint8","internalType":"uint8"}],"outputs":[],"stateMutability":"nonpayable"},{"type":"function","name":"interestRateModel","inputs":[],"outputs":[{"name":"","type":"address","internalType":"contract InterestRateModel"}],"stateMutability":"view"},{"type":"function","name":"isCToken","inputs":[],"outputs":[{"name":"","type":"bool","internalType":"bool"}],"stateMutability":"view"},{"type":"function","name":"liquidateBorrow","inputs":[{"name":"borrower","type":"address","internalType":"address"},{"name":"repayAmount","type":"uint256","internalType":"uint256"},{"name":"cTokenCollateral","type":"address","internalType":"contract CTokenInterface"}],"outputs":[{"name":"","type":"uint256","internalType":"uint256"}],"stateMutability":"nonpayable"},{"type":"function","name":"mint","inputs":[{"name":"mintAmount","type":"uint256","internalType":"uint256"}],"outputs":[{"name":"","type":"uint256","internalType":"uint256"}],"stateMutability":"nonpayable"},{"type":"function","name":"name","inputs":[],"outputs":[{"name":"","type":"string","internalType":"string"}],"stateMutability":"view"},{"type":"function","name":"pendingAdmin","inputs":[],"outputs":[{"name":"","type":"address","internalType":"address payable"}],"stateMutability":"view"},{"type":"function","name":"protocolSeizeShareMantissa","inputs":[],"outputs":[{"name":"","type":"uint256","internalType":"uint256"}],"stateMutability":"view"},{"type":"function","name":"redeem","inputs":[{"name":"redeemTokens","type":"uint256","internalType":"uint256"}],"outputs":[{"name":"","type":"uint256","internalType":"uint256"}],"stateMutability":"nonpayable"},{"type":"function","name":"redeemUnderlying","inputs":[{"name":"redeemAmount","type":"uint256","internalType":"uint256"}],"outputs":[{"name":"","type":"uint256","internalType":"uint256"}],"stateMutability":"nonpayable"},{"type":"function","name":"repayBorrow","inputs":[{"name":"repayAmount","type":"uint256","internalType":"uint256"}],"outputs":[{"name":"","type":"uint256","internalType":"uint256"}],"stateMutability":"nonpayable"},{"type":"function","name":"repayBorrowBehalf","inputs":[{"name":"borrower","type":"address","internalType":"address"},{"name":"repayAmount","type":"uint256","internalType":"uint256"}],"outputs":[{"name":"","type":"uint256","internalType":"uint256"}],"stateMutability":"nonpayable"},{"type":"function","name":"reserveFactorMantissa","inputs":[],"outputs":[{"name":"","type":"uint256","internalType":"uint256"}],"stateMutability":"view"},{"type":"function","name":"seize","inputs":[{"name":"liquidator","type":"address","internalType":"address"},{"name":"borrower","type":"address","internalType":"address"},{"name":"seizeTokens","type":"uint256","internalType":"uint256"}],"outputs":[{"name":"","type":"uint256","internalType":"uint256"}],"stateMutability":"nonpayable"},{"type":"function","name":"supplyRatePerBlock","inputs":[],"outputs":[{"name":"","type":"uint256","internalType":"uint256"}],"stateMutability":"view"},{"type":"function","name":"sweepToken","inputs":[{"name":"token","type":"address","internalType":"contract EIP20NonStandardInterface"}],"outputs":[],"stateMutability":"nonpayable"},{"type":"function","name":"symbol","inputs":[],"outputs":[{"name":"","type":"string","internalType":"string"}],"stateMutability":"view"},{"type":"function","name":"totalBorrows","inputs":[],"outputs":[{"name":"","type":"uint256","internalType":"uint256"}],"stateMutability":"view"},{"type":"function","name":"totalBorrowsCurrent","inputs":[],"outputs":[{"name":"","type":"uint256","internalType":"uint256"}],"stateMutability":"nonpayable"},{"type":"function","name":"totalReserves","inputs":[],"outputs":[{"name":"","type":"uint256","internalType":"uint256"}],"stateMutability":"view"},{"type":"function","name":"totalSupply","inputs":[],"outputs":[{"name":"","type":"uint256","internalType":"uint256"}],"stateMutability":"view"},{"type":"function","name":"transfer","inputs":[{"name":"dst","type":"address","internalType":"address"},{"name":"amount","type":"uint256","internalType":"uint256"}],"outputs":[{"name":"","type":"bool","internalType":"bool"}],"stateMutability":"nonpayable"},{"type":"function","name":"transferFrom","inputs":[{"name":"src","type":"address","internalType":"address"},{"name":"dst","type":"address","internalType":"address"},{"name":"amount","type":"uint256","internalType":"uint256"}],"outputs":[{"name":"","type":"bool","internalType":"bool"}],"stateMutability":"nonpayable"},{"type":"function","name":"underlying","inputs":[],"outputs":[{"name":"","type":"address","internalType":"address"}],"stateMutability":"view"},{"type":"event","name":"AccrueInterest","inputs":[{"name":"cashPrior","type":"uint256","indexed":false,"internalType":"uint256"},{"name":"interestAccumulated","type":"uint256","indexed":false,"internalType":"uint256"},{"name":"borrowIndex","type":"uint256","indexed":false,"internalType":"uint256"},{"name":"totalBorrows","type":"uint256","indexed":false,"internalType":"uint256"}],"anonymous":false},{"type":"event","name":"Approval","inputs":[{"name":"owner","type":"address","indexed":true,"internalType":"address"},{"name":"spender","type":"address","indexed":true,"internalType":"address"},{"name":"amount","type":"uint256","indexed":false,"internalType":"uint256"}],"anonymous":false},{"type":"event","name":"Borrow","inputs":[{"name":"borrower","type":"address","indexed":false,"internalType":"address"},{"name":"borrowAmount","type":"uint256","indexed":false,"internalType":"uint256"},{"name":"accountBorrows","type":"uint256","indexed":false,"internalType":"uint256"},{"name":"totalBorrows","type":"uint256","indexed":false,"internalType":"uint256"}],"anonymous":false},{"type":"event","name":"LiquidateBorrow","inputs":[{"name":"liquidator","type":"address","indexed":false,"internalType":"address"},{"name":"borrower","type":"address","indexed":false,"internalType":"address"},{"name":"repayAmount","type":"uint256","indexed":false,"internalType":"uint256"},{"name":"cTokenCollateral","type":"address","indexed":false,"internalType":"address"},{"name":"seizeTokens","type":"uint256","indexed":false,"internalType":"uint256"}],"anonymous":false},{"type":"event","name":"Mint","inputs":[{"name":"minter","type":"address","indexed":false,"internalType":"address"},{"name":"mintAmount","type":"uint256","indexed":false,"internalType":"uint256"},{"name":"mintTokens","type":"uint256","indexed":false,"internalType":"uint256"}],"anonymous":false},{"type":"event","name":"NewAdmin","inputs":[{"name":"oldAdmin","type":"address","indexed":false,"internalType":"address"},{"name":"newAdmin","type":"address","indexed":false,"internalType":"address"}],"anonymous":false},{"type":"event","name":"NewComptroller","inputs":[{"name":"oldComptroller","type":"address","indexed":false,"internalType":"contract ComptrollerInterface"},{"name":"newComptroller","type":"address","indexed":false,"internalType":"contract ComptrollerInterface"}],"anonymous":false},{"type":"event","name":"NewMarketInterestRateModel","inputs":[{"name":"oldInterestRateModel","type":"address","indexed":false,"internalType":"contract InterestRateModel"},{"name":"newInterestRateModel","type":"address","indexed":false,"internalType":"contract InterestRateModel"}],"anonymous":false},{"type":"event","name":"NewPendingAdmin","inputs":[{"name":"oldPendingAdmin","type":"address","indexed":false,"internalType":"address"},{"name":"newPendingAdmin","type":"address","indexed":false,"internalType":"address"}],"anonymous":false},{"type":"event","name":"NewReserveFactor","inputs":[{"name":"oldReserveFactorMantissa","type":"uint256","indexed":false,"internalType":"uint256"},{"name":"newReserveFactorMantissa","type":"uint256","indexed":false,"internalType":"uint256"}],"anonymous":false},{"type":"event","name":"Redeem","inputs":[{"name":"redeemer","type":"address","indexed":false,"internalType":"address"},{"name":"redeemAmount","type":"uint256","indexed":false,"internalType":"uint256"},{"name":"redeemTokens","type":"uint256","indexed":false,"internalType":"uint256"}],"anonymous":false},{"type":"event","name":"RepayBorrow","inputs":[{"name":"payer","type":"address","indexed":false,"internalType":"address"},{"name":"borrower","type":"address","indexed":false,"internalType":"address"},{"name":"repayAmount","type":"uint256","indexed":false,"internalType":"uint256"},{"name":"accountBorrows","type":"uint256","indexed":false,"internalType":"uint256"},{"name":"totalBorrows","type":"uint256","indexed":false,"internalType":"uint256"}],"anonymous":false},{"type":"event","name":"ReservesAdded","inputs":[{"name":"benefactor","type":"address","indexed":false,"internalType":"address"},{"name":"addAmount","type":"uint256","indexed":false,"internalType":"uint256"},{"name":"newTotalReserves","type":"uint256","indexed":false,"internalType":"uint256"}],"anonymous":false},{"type":"event","name":"ReservesReduced","inputs":[{"name":"admin","type":"address","indexed":false,"internalType":"address"},{"name":"reduceAmount","type":"uint256","indexed":false,"internalType":"uint256"},{"name":"newTotalReserves","type":"uint256","indexed":false,"internalType":"uint256"}],"anonymous":false},{"type":"event","name":"Transfer","inputs":[{"name":"from","type":"address","indexed":true,"internalType":"address"},{"name":"to","type":"address","indexed":true,"internalType":"address"},{"name":"amount","type":"uint256","indexed":false,"internalType":"uint256"}],"anonymous":false},{"type":"error","name":"AcceptAdminPendingAdminCheck","inputs":[]},{"type":"error","name":"AddReservesFactorFreshCheck","inputs":[{"name":"actualAddAmount","type":"uint256","internalType":"uint256"}]},{"type":"error","name":"BorrowCashNotAvailable","inputs":[]},{"type":"error","name":"BorrowComptrollerRejection","inputs":[{"name":"errorCode","type":"uint256","internalType":"uint256"}]},{"type":"error","name":"BorrowFreshnessCheck","inputs":[]},{"type":"error","name":"LiquidateAccrueBorrowInterestFailed","inputs":[{"name":"errorCode","type":"uint256","internalType":"uint256"}]},{"type":"error","name":"LiquidateAccrueCollateralInterestFailed","inputs":[{"name":"errorCode","type":"uint256","internalType":"uint256"}]},{"type":"error","name":"LiquidateCloseAmountIsUintMax","inputs":[]},{"type":"error","name":"LiquidateCloseAmountIsZero","inputs":[]},{"type":"error","name":"LiquidateCollateralFreshnessCheck","inputs":[]},{"type":"error","name":"LiquidateComptrollerRejection","inputs":[{"name":"errorCode","type":"uint256","internalType":"uint256"}]},{"type":"error","name":"LiquidateFreshnessCheck","inputs":[]},{"type":"error","name":"LiquidateLiquidatorIsBorrower","inputs":[]},{"type":"error","name":"LiquidateRepayBorrowFreshFailed","inputs":[{"name":"errorCode","type":"uint256","internalType":"uint256"}]},{"type":"error","name":"LiquidateSeizeComptrollerRejection","inputs":[{"name":"errorCode","type":"uint256","internalType":"uint256"}]},{"type":"error","name":"LiquidateSeizeLiquidatorIsBorrower","inputs":[]},{"type":"error","name":"MintComptrollerRejection","inputs":[{"name":"errorCode","type":"uint256","internalType":"uint256"}]},{"type":"error","name":"MintFreshnessCheck","inputs":[]},{"type":"error","name":"RedeemComptrollerRejection","inputs":[{"name":"errorCode","type":"uint256","internalType":"uint256"}]},{"type":"error","name":"RedeemFreshnessCheck","inputs":[]},{"type":"error","name":"RedeemTransferOutNotPossible","inputs":[]},{"type":"error","name":"ReduceReservesAdminCheck","inputs":[]},{"type":"error","name":"ReduceReservesCashNotAvailable","inputs":[]},{"type":"error","name":"ReduceReservesCashValidation","inputs":[]},{"type":"error","name":"ReduceReservesFreshCheck","inputs":[]},{"type":"error","name":"RepayBorrowComptrollerRejection","inputs":[{"name":"errorCode","type":"uint256","internalType":"uint256"}]},{"type":"error","name":"RepayBorrowFreshnessCheck","inputs":[]},{"type":"error","name":"SetComptrollerOwnerCheck","inputs":[]},{"type":"error","name":"SetInterestRateModelFreshCheck","inputs":[]},{"type":"error","name":"SetInterestRateModelOwnerCheck","inputs":[]},{"type":"error","name":"SetPendingAdminOwnerCheck","inputs":[]},{"type":"error","name":"SetReserveFactorAdminCheck","inputs":[]},{"type":"error","name":"SetReserveFactorBoundsCheck","inputs":[]},{"type":"error","name":"SetReserveFactorFreshCheck","inputs":[]},{"type":"error","name":"TransferComptrollerRejection","inputs":[{"name":"errorCode","type":"uint256","internalType":"uint256"}]},{"type":"error","name":"TransferNotAllowed","inputs":[]},{"type":"error","name":"TransferNotEnough","inputs":[]},{"type":"error","name":"TransferTooMuch","inputs":[]}],"bytecode":{"object":"0x608080604052346100165761381d908161001c8239f35b600080fdfe6080604052600436101561001257600080fd5b60003560e01c806306fdde0314610357578063095ea7b3146103525780630e7527021461034d578063173b99041461034857806317bfdfbc1461034357806318160ddd1461033e578063182df0f5146103395780631a31d465146103345780631be195601461032f57806323b872dd1461032a5780632608f818146103255780632678224714610320578063313ce5671461031b5780633af9e669146103165780633b1d21a2146103115780633e9410101461030c5780634576b5db1461030757806347bd3718146103025780635fe3b567146102fd578063601a0bf1146102f85780636752e702146102f357806369ab3250146102ee5780636c540baf146102e95780636f307dc3146102e457806370a08231146102df57806373acee98146102da5780637f1e06be146102d5578063852a12e3146102d05780638f840ddd146102cb57806395d89b41146102c657806395dd9193146102c157806399d8c1b4146102bc578063a0712d68146102b7578063a6afed95146102b2578063a9059cbb146102ad578063aa5af0fd146102a8578063ae9d70b0146102a3578063b2a02ff11461029e578063b71d1a0c14610299578063bd6d894d14610294578063c37f68e21461028f578063c5ebeaec1461028a578063db006a7514610285578063dd62ed3e14610280578063e9c714f21461027b578063f2b3abbd14610276578063f3fdb15a14610271578063f5e3c4621461026c578063f851a44014610267578063f8f9da2814610262578063fca7820b1461025d5763fe9c44ae1461025857600080fd5b611d50565b611c6a565b611c07565b611bda565b611b01565b611ad8565b611aa8565b611980565b61191d565b61186a565b6116bf565b61165b565b611640565b611591565b611548565b6114a2565b611484565b61143c565b611421565b611264565b6111e4565b6111bd565b611114565b6110f6565b610e9b565b610e1a565b610dd2565b610d95565b610d6c565b610d4e565b610d32565b610d10565b610bd9565b610bb0565b610b92565b610b6b565b610a9b565b610a80565b610a16565b6109f5565b6109cc565b61097e565b610934565b6107df565b610750565b6106c7565b6106a9565b61064d565b61062f565b6105da565b61054b565b61045c565b600091031261036757565b600080fd5b90600182811c9216801561039c575b602083101461038657565b634e487b7160e01b600052602260045260246000fd5b91607f169161037b565b634e487b7160e01b600052604160045260246000fd5b67ffffffffffffffff81116103d057604052565b6103a6565b6020810190811067ffffffffffffffff8211176103d057604052565b90601f8019910116810190811067ffffffffffffffff8211176103d057604052565b6020808252825181830181905290939260005b82811061044857505060409293506000838284010152601f8019910116010190565b818101860151848201604001528501610426565b346103675760008060031936011261053757604051816001908154916104818361036c565b91828552602093828116908160001461051557506001146104bd575b6104b9856104ad818903826103f1565b60405191829182610413565b0390f35b9294508083527fb10e2d527612073b26eecdfd717e6a320cf44b4afac2b0732d9fcbe2b7fa0cf65b82841061050257505050816104b9936104ad92820101933861049d565b80548585018701529285019281016104e5565b60ff191686860152505050151560051b82010191506104ad816104b93861049d565b80fd5b6001600160a01b0381160361036757565b34610367576040366003190112610367576004356105688161053a565b6024359033600052600f602052816105968260406000209060018060a01b0316600052602052604060002090565b556040519182526001600160a01b03169033907f8c5be1e5ebec7d5bd14f71427d1e84f3dd0314c0f7b2291e5b200ac8c7c3b92590602090a3602060405160018152f35b346103675760203660031901126103675760016000546105fc60ff8216612447565b60ff1990811660005561060d612864565b5061061b6004353333612cb0565b506000541617600055602060405160008152f35b34610367576000366003190112610367576020600854604051908152f35b3461036757602036600319011261036757602060043561066c8161053a565b60016106986000549261068160ff8516612447565b60ff19938416600055610692612864565b5061274b565b916000541617600055604051908152f35b34610367576000366003190112610367576020600d54604051908152f35b346103675760003660031901126103675760206106e26127c4565b604051908152f35b604051906106f7826103d5565b565b81601f820112156103675780359067ffffffffffffffff82116103d0576040519261072e601f8401601f1916602001856103f1565b8284526020838301011161036757816000926020809301838601378301015290565b346103675760e03660031901126103675760043561076d8161053a565b6024359061077a8261053a565b604435906107878261053a565b67ffffffffffffffff608435818111610367576107a89036906004016106f9565b9060a435908111610367576107c19036906004016106f9565b9160c4359360ff85168503610367576107dd9560643592611d87565b005b34610367576020366003190112610367576004356107fc8161053a565b60035460081c6001600160a01b0316906001600160a01b03906108223383851614611df3565b6011549116919061084f90610847906001600160a01b03165b6001600160a01b031690565b831415611e57565b6040516370a0823160e01b8152306004820152602081602481865afa9081156108d5576000916108da575b50823b156103675760405163a9059cbb60e01b81526001600160a01b0390921660048301526024820152906000908290818381604481015b03925af180156108d5576108c257005b806108cf6107dd926103bc565b8061035c565b611d7b565b6108fb915060203d8111610901575b6108f381836103f1565b810190611d6c565b3861087a565b503d6108e9565b6060906003190112610367576004356109208161053a565b9060243561092d8161053a565b9060443590565b3461036757602061096c600161094936610908565b906000949294549461095d60ff8716612447565b60ff19958616600055336124b0565b15916000541617600055604051908152f35b3461036757604036600319011261036757600160043561099d8161053a565b61061b600054916109b060ff8416612447565b60ff199283166000556109c1612864565b506024359033612cb0565b34610367576000366003190112610367576004546040516001600160a01b039091168152602090f35b3461036757600036600319011261036757602060ff60035416604051908152f35b34610367576020366003190112610367576020670de0b6b3a7640000610a76600435610a418161053a565b610a4961278d565b9060405191610a57836103d5565b82526001600160a01b03166000908152600e855260409020549061376b565b5104604051908152f35b346103675760003660031901126103675760206106e26126a3565b3461036757602036600319011261036757600054610abb60ff8216612447565b60ff1916600055610aca612864565b506009544303610b5257610ae060043533612a32565b600c54818101809111610b4d57600c8190556040805133815260208101939093528201527fa91e67c5ea634cd43a12c5a482724b03de01e85ca68702a53d0c2f45cb7c1dc59080606081015b0390a1610b41600160ff196000541617600055565b60405160008152602090f35b612480565b6040516338acf79960e01b815260006004820152602490fd5b346103675760203660031901126103675760206106e2600435610b8d8161053a565b613595565b34610367576000366003190112610367576020600b54604051908152f35b34610367576000366003190112610367576005546040516001600160a01b039091168152602090f35b3461036757602036600319011261036757600435600054610bfc60ff8216612447565b60ff1916600055610c0b612864565b50600354610c249060081c6001600160a01b031661083b565b3303610cfe576009544303610cec5780610c3c6126a3565b10610cda57600c5490818111610cc857610c77817f3bad0c59cf2f06e7314077049f48a93578cd16f5ef92329f1dab1420a99c177e93612496565b610c8081600c55565b600354610c9a90839060081c6001600160a01b0316612bdb565b6003546040805160089290921c6001600160a01b031682526020820193909352918201528060608101610b2c565b6040516378d2980560e11b8152600490fd5b604051633345e99960e01b8152600490fd5b604051630dff50cb60e41b8152600490fd5b604051630f7e5e6d60e41b8152600490fd5b34610367576000366003190112610367576020604051666379da05b600008152f35b3461036757600036600319011261036757602060405160008152f35b34610367576000366003190112610367576020600954604051908152f35b34610367576000366003190112610367576011546040516001600160a01b039091168152602090f35b3461036757602036600319011261036757600435610db28161053a565b60018060a01b0316600052600e6020526020604060002054604051908152f35b3461036757600080600319360112610537578054602091610df560ff8316612447565b60ff199182168155610e05612864565b506001600b5492825416179055604051908152f35b3461036757602036600319011261036757600435610e378161053a565b610e4f60018060a01b0360035460081c163314611ebe565b601154610e669061083b906001600160a01b031681565b803b15610367576040516317066a5760e21b81526001600160a01b0383166004820152906000908290818381602481016108b2565b34610367576020366003190112610367576004803590600090815490610ec360ff8316612447565b60ff199182168355610ed3612864565b50610ef0610edf6127c4565b610ee76106ea565b908152856137a2565b600554909190610f08906001600160a01b031661083b565b6040805163eabe7d9160e01b81523084820190815233602082810191909152818401879052929893919291839182908a90829060600103925af19081156108d55786916110d8575b50806110bc575060095443036110ad5780610f696126a3565b1061109e57610f82610f7d84600d54612496565b600d55565b336000908152600e60205260409020610f9e9084905b54612496565b336000908152600e6020526040902055610fb88133612bdb565b8551838152309033906000805160206137c883398151915290602090a3855133815260208101829052604081018490527fe5b754fb1abb7f01b499791d0b820ae3b6af3424ac1c59768edb53f4ec31a92990606090a1600554611023906001600160a01b031661083b565b91823b1561109a5786516351dff98960e01b8152309181019182523360208301526040820192909252606081019390935292918491849182908490829060800103925af19182156108d557600192611087575b508254161790555160008152602090f35b806108cf611094926103bc565b38611076565b8580fd5b5084516391240a1b60e01b8152fd5b5084516397b5cfcd60e01b8152fd5b865163480f424760e01b81528084019182529081906020010390fd5b6110f0915060203d8111610901576108f381836103f1565b38610f50565b34610367576000366003190112610367576020600c54604051908152f35b346103675760008060031936011261053757604051816002546111368161036c565b9081845260209260019182811690816000146105155750600114611164576104b9856104ad818903826103f1565b929450600283527f405787fa12a823e0f2b7631cc41b3ba8828b3321ca811111fa75cd3aa3bb5ace5b8284106111aa57505050816104b9936104ad92820101933861049d565b805485850187015292850192810161118d565b346103675760203660031901126103675760206106e26004356111df8161053a565b61274b565b346103675760c0366003190112610367576004356112018161053a565b6024359061120e8261053a565b67ffffffffffffffff6064358181116103675761122f9036906004016106f9565b90608435908111610367576112489036906004016106f9565b9060a4359260ff84168403610367576107dd946044359161233a565b346103675760203660031901126103675760043560005461128760ff8216612447565b60ff1916600055611296612864565b506005546112ac906001600160a01b031661083b565b60408051634ef4c3e160e01b815230600482015233602482015260448101849052909291602090829060649082906000905af19081156108d557600091611403575b50806113ea575060095443036113d9577f4c209b5fc8ad50758f13e2e1088ba56a560dff690a1c6fef26394f4c03821c4f61134661133f61132d6127c4565b936113366106ea565b94855233612a32565b92836137a2565b8092611357610f7d83600d546124a3565b336000908152600e602052604090206113739083905b546124a3565b336000908152600e602052604090205584513381526020810191909152604081019190915280606081010390a18151908152339030906000805160206137c883398151915290602090a36113cf600160ff196000541617600055565b5160008152602090f35b81516338d8859760e01b8152600490fd5b82516349abd4fd60e01b81526004810191909152602490fd5b61141b915060203d8111610901576108f381836103f1565b386112ee565b346103675760003660031901126103675760206106e2612864565b3461036757604036600319011261036757602060043561145b8161053a565b600161096c6000549261147060ff8516612447565b60ff199384166000556024359033806124b0565b34610367576000366003190112610367576020600a54604051908152f35b34610367576000366003190112610367576006546001600160a01b031660206114c96126a3565b600b54600c54600854604051635c0b440b60e11b815260048101949094526024840192909252604483015260648201529182908180608481015b03915afa80156108d5576104b99160009161152a575b506040519081529081906020820190565b611542915060203d8111610901576108f381836103f1565b38611519565b3461036757600161157e61155b36610908565b906000939293549361156f60ff8616612447565b60ff199485166000553361330d565b6000541617600055602060405160008152f35b34610367576020366003190112610367576004356115ae8161053a565b6003546001600160a01b039060081c8116330361162e57600480548383166001600160a01b031982161790915560408051929091166001600160a01b03908116835290921660208201527fca4f2f25d0898edd99413412fb94012f9e54ec8142f9b093e7720646a95b16a991819081015b0390a160405160008152602090f35b604051635cb56c2b60e01b8152600490fd5b346103675760003660031901126103675760206106e261278d565b3461036757602036600319011261036757608060043561167a8161053a565b6001600160a01b0381166000908152600e60205260409020549061169d9061274b565b6116a56127c4565b906040519260008452602084015260408301526060820152f35b34610367576020366003190112610367576004356000546116e260ff8216612447565b60ff19166000556116f1612864565b50600554611707906001600160a01b031661083b565b6040805163368f515360e21b815230600482015233602482015260448101849052909291602090829060649082906000905af19081156108d55760009161184c575b50806118335750600954430361182257806117626126a3565b10611811578061179b7f13ed6866d4e1ee6da46f845c46d7e54120883d75c5ea9a2dacc1c4ca8984ab80926117963361274b565b6124a3565b906117fc6117ab82600b546124a3565b336000908152601060205260409020848155600a54600190910155600b8190556117d58333612bdb565b85513381526020810193909352604083019390935260608201929092529081906080820190565b0390a16113cf600160ff196000541617600055565b81516348c2588160e01b8152600490fd5b8151630e8d8c6160e21b8152600490fd5b825163918db40f60e01b81526004810191909152602490fd5b611864915060203d8111610901576108f381836103f1565b38611749565b34610367576020366003190112610367576004803560009081549061189160ff8316612447565b60ff1991821683556118a1612864565b5080159081159182611915575b6118b790612b72565b6118bf6127c4565b916118c86106ea565b92835215611904576118de816118ed929361376b565b670de0b6b3a764000090510490565b935b600554610f08906001600160a01b031661083b565b5061190e90613797565b82936118ef565b5060016118ae565b3461036757604036600319011261036757602061197760043561193f8161053a565b6024359061194c8261053a565b60018060a01b0316600052600f835260406000209060018060a01b0316600052602052604060002090565b54604051908152f35b34610367576000366003190112610367576004546001600160a01b031680338114801590611aa0575b611a8e576003547fca4f2f25d0898edd99413412fb94012f9e54ec8142f9b093e7720646a95b16a9927ff9ffabca9c8276e99321725bcb43fb076a6c66a54b7f21c4e8146d8519b417dc91611a3590611a0d9060081c6001600160a01b031661083b565b60038054610100600160a81b03191660089490941b610100600160a81b031693909317909255565b600480546001600160a01b0319169055600354604080516001600160a01b03938416815260089290921c9092166020820152a1600454604080516001600160a01b0393841681529290911660208301528190810161161f565b604051631ba24f2960e21b8152600490fd5b5033156119a9565b346103675760203660031901126103675760206106e2600435611aca8161053a565b611ad2612864565b50613699565b34610367576000366003190112610367576006546040516001600160a01b039091168152602090f35b3461036757606036600319011261036757600435611b1e8161053a565b604435611b2a8161053a565b600054611b3960ff8216612447565b60ff1916600055611b48612864565b5060405163a6afed9560e01b81529160208360048160006001600160a01b0387165af19283156108d557600093611bba575b5082611ba157611b8f92506024359033612f6b565b610b41600160ff196000541617600055565b604051633eea49b760e11b815260048101849052602490fd5b611bd391935060203d8111610901576108f381836103f1565b9138611b7a565b346103675760003660031901126103675760035460405160089190911c6001600160a01b03168152602090f35b3461036757600036600319011261036757600654611503906020906001600160a01b0316611c336126a3565b600b54600c546040516315f2405360e01b815260048101939093526024830191909152604482015292839190829081906064820190565b3461036757602036600319011261036757600435600054611c8d60ff8216612447565b60ff1916600055611c9c612864565b50600354611cb59060081c6001600160a01b031661083b565b3303611d3e576009544303611d2c57670de0b6b3a76400008111611d1a577faaa68312e2ea9d50e16af5068410ab56e1a1fd06037b1a35664812c30f82146090600854611d0182600855565b6040805191825260208201929092529081908101610b2c565b60405163717220f360e11b8152600490fd5b604051637dfca6b760e11b8152600490fd5b604051631205b57b60e11b8152600490fd5b3461036757600036600319011261036757602060405160018152f35b90816020910312610367575190565b6040513d6000823e3d90fd5b93611d9993600497936020979361233a565b601180546001600160a01b0319166001600160a01b039290921691821790556040516318160ddd60e01b815292839182905afa80156108d557611dd95750565b611df09060203d8111610901576108f381836103f1565b50565b15611dfa57565b60405162461bcd60e51b815260206004820152602f60248201527f4345726332303a3a7377656570546f6b656e3a206f6e6c792061646d696e206360448201526e616e20737765657020746f6b656e7360881b6064820152608490fd5b15611e5e57565b60405162461bcd60e51b815260206004820152603260248201527f4345726332303a3a7377656570546f6b656e3a2063616e206e6f74207377656560448201527138103ab73232b9363cb4b733903a37b5b2b760711b6064820152608490fd5b15611ec557565b60405162461bcd60e51b815260206004820152602d60248201527f6f6e6c79207468652061646d696e206d6179207365742074686520636f6d702d60448201526c6c696b652064656c656761746560981b6064820152608490fd5b15611f2757565b60405162461bcd60e51b815260206004820152602360248201527f6d61726b6574206d6179206f6e6c7920626520696e697469616c697a6564206f6044820152626e636560e81b6064820152608490fd5b15611f7f57565b60405162461bcd60e51b815260206004820152603060248201527f696e697469616c2065786368616e67652072617465206d75737420626520677260448201526f32b0ba32b9103a3430b7103d32b9379760811b6064820152608490fd5b15611fe457565b60405162461bcd60e51b815260206004820152601a60248201527f73657474696e6720636f6d7074726f6c6c6572206661696c65640000000000006044820152606490fd5b1561203057565b60405162461bcd60e51b815260206004820152602260248201527f73657474696e6720696e7465726573742072617465206d6f64656c206661696c604482015261195960f21b6064820152608490fd5b90601f821161208d575050565b6001916000908382527fb10e2d527612073b26eecdfd717e6a320cf44b4afac2b0732d9fcbe2b7fa0cf6906020601f850160051c830194106120ea575b601f0160051c01915b8281106120e05750505050565b81815583016120d3565b90925082906120ca565b601f8111612100575050565b600090600282527f405787fa12a823e0f2b7631cc41b3ba8828b3321ca811111fa75cd3aa3bb5ace906020601f850160051c8301941061215b575b601f0160051c01915b82811061215057505050565b818155600101612144565b909250829061213b565b90815167ffffffffffffffff81116103d05760019061218d81612188845461036c565b612080565b602080601f83116001146121d0575081906121c19394956000926121c5575b50508160011b916000199060031b1c19161790565b9055565b0151905038806121ac565b90601f1983169561220360016000527fb10e2d527612073b26eecdfd717e6a320cf44b4afac2b0732d9fcbe2b7fa0cf690565b926000905b88821061223e5750508385969710612225575b505050811b019055565b015160001960f88460031b161c1916905538808061221b565b808785968294968601518155019501930190612208565b90815167ffffffffffffffff81116103d05761227b8161227660025461036c565b6120f4565b602080601f83116001146122b2575081906122ad93946000926121c55750508160011b916000199060031b1c19161790565b600255565b90601f198316946122e560026000527f405787fa12a823e0f2b7631cc41b3ba8828b3321ca811111fa75cd3aa3bb5ace90565b926000905b878210612322575050836001959610612309575b505050811b01600255565b015160001960f88460031b161c191690553880806122fe565b806001859682949686015181550195019301906122ea565b60035490959492939060081c6001600160a01b031633036123f6576123c06123ba6123c59361239b6123956123da9a6123886123ca9a60095415806123ec575b61238390611f20565b600755565b610b8d6007541515611f78565b15611fdd565b6123a443600955565b6123b5670de0b6b3a7640000600a55565b613699565b15612029565b612165565b612255565b60ff1660ff196003541617600355565b6106f7600160ff196000541617600055565b50600a541561237a565b60405162461bcd60e51b8152602060048201526024808201527f6f6e6c792061646d696e206d617920696e697469616c697a6520746865206d616044820152631c9ad95d60e21b6064820152608490fd5b1561244e57565b60405162461bcd60e51b815260206004820152600a6024820152691c994b595b9d195c995960b21b6044820152606490fd5b634e487b7160e01b600052601160045260246000fd5b91908203918211610b4d57565b91908201809211610b4d57565b9091926124c761083b60055460018060a01b031690565b6040516317b9b84b60e31b81523060048201526001600160a01b038581166024830152861660448201526064810183905290602090829060849082906000905af19081156108d557600091612685575b508061266b57506001600160a01b038481169484821694919291858714612659576000805160206137c8833981519152946125e99481168703612630576000195b6125628582612496565b936125cf61258687610f988760018060a01b0316600052600e602052604060002090565b916125a78861136d8360018060a01b0316600052600e602052604060002090565b6001600160a01b038781166000908152600e6020526040808220969096559216825292902090565b55196125f1575b5050604051918252509081906020820190565b0390a3600090565b6126106126279260018060a01b0316600052600f602052604060002090565b9060018060a01b0316600052602052604060002090565b553880806125d6565b6001600160a01b0382166000908152600f60205260409020612653908290612610565b54612558565b604051638cd22d1960e01b8152600490fd5b60405163089d427760e11b81526004810191909152602490fd5b61269d915060203d8111610901576108f381836103f1565b38612517565b6011546040516370a0823160e01b815230600482015290602090829060249082906001600160a01b03165afa9081156108d5576000916126e1575090565b6126f9915060203d8111610901576108f381836103f1565b90565b90666379da05b6000091828102928184041490151715610b4d57565b81810292918115918404141715610b4d57565b8115612735570490565b634e487b7160e01b600052601260045260246000fd5b6001600160a01b03166000908152601060205260409020805490811561278657600161277d6126f993600a5490612718565b9101549061272b565b5050600090565b6000549061279d60ff8316612447565b60ff199182166000556127ae612864565b5060016127b96127c4565b926000541617600055565b600d54806127d3575060075490565b6127db6126a3565b90600b548201809211610b4d57600c549182810392818411610b4d57670de0b6b3a76400008085029485041491141715610b4d576126f99161272b565b1561281f57565b60405162461bcd60e51b815260206004820152601c60248201527f626f72726f772072617465206973206162737572646c792068696768000000006044820152606490fd5b6009544381146129e0576128766126a3565b600b5490600c5492600a549261289661083b60065460018060a01b031690565b6040516315f2405360e01b81526004810185905260248101839052604481018790529590602090879060649082905afa9586156108d557612970866117966118de61295e9961296a6129417f4dec04e750ca11537cabcd8a9eab06494de08da3735bc8871cd41250e190bc049d6129b49b612991996000926129bc575b506129309061292a65048c27395000841115612818565b43612496565b906129396106ea565b90815261376b565b976117966118de6129556118de8d8d61376b565b9e8f9c8d6124a3565b9b6008546129396106ea565b9661376b565b9161297a43600955565b61298383600a55565b61298c84600b55565b600c55565b604051948594859094939260609260808301968352602083015260408201520152565b0390a1600090565b6129309192506129d99060203d8111610901576108f381836103f1565b9190612913565b50600090565b156129ed57565b60405162461bcd60e51b815260206004820152601860248201527f544f4b454e5f5452414e534645525f494e5f4641494c454400000000000000006044820152606490fd5b6011546040516370a0823160e01b80825230600483015260209491936001600160a01b03909316929091908585602481875afa9485156108d557600095612b53575b50833b15610367576040516323b872dd60e01b81526001600160a01b03919091166004820152306024820152604481019190915260008160648183875af180156108d557612b40575b503d848115612b325750602014612ad357600080fd5b8390816000803e612ae56000516129e6565b60405190815230600482015291829060249082905afa9081156108d5576126f993600092612b15575b5050612496565b612b2b9250803d10610901576108f381836103f1565b3880612b0e565b919050612ae56000196129e6565b806108cf612b4d926103bc565b38612abd565b612b6b919550863d8811610901576108f381836103f1565b9338612a74565b15612b7957565b60405162461bcd60e51b815260206004820152603460248201527f6f6e65206f662072656465656d546f6b656e73496e206f722072656465656d416044820152736d6f756e74496e206d757374206265207a65726f60601b6064820152608490fd5b919060018060a01b036011541690813b156103675760405163a9059cbb60e01b81526001600160a01b0394909416600485015260248401526000929083908290604490829084905af180156108d557612ca1575b503d8015612c9657602014612c42575080fd5b90602081803e515b15612c5157565b60405162461bcd60e51b815260206004820152601960248201527f544f4b454e5f5452414e534645525f4f55545f4641494c4544000000000000006044820152606490fd5b509050600019612c4a565b612caa906103bc565b38612c2f565b600554909190612cc8906001600160a01b031661083b565b604051631200453160e11b81523060048201526001600160a01b038481166024830152831660448201526064810185905290602090829060849082906000905af19081156108d557600091612e40575b5080612e2657506009544303612e14577f1a2a22cb034d26d1854bdc6666a5b91fe25efbbb5dcad3b0355478d6f5c362a191612d538261274b565b936000198103612e055750612dff612d76612d6f865b84612a32565b8096612496565b612d8286600b54612496565b9080612da08660018060a01b03166000526010602052604060002090565b55600a546001600160a01b038616600090815260106020526040902060010155612dc982600b55565b866040519586958691959493909260809360a084019760018060a01b038092168552166020840152604083015260608201520152565b0390a190565b612d76612d6f612dff92612d69565b60405163c9021e2f60e01b8152600490fd5b604051638c81362d60e01b81526004810191909152602490fd5b612e58915060203d8111610901576108f381836103f1565b38612d18565b9190826040910312610367576020825192015190565b15612e7b57565b60405162461bcd60e51b815260206004820152603360248201527f4c49515549444154455f434f4d5054524f4c4c45525f43414c43554c4154455f604482015272105353d5539517d4d152569157d19052531151606a1b6064820152608490fd5b15612ee357565b60405162461bcd60e51b815260206004820152601860248201527f4c49515549444154455f5345495a455f544f4f5f4d55434800000000000000006044820152606490fd5b15612f2f57565b60405162461bcd60e51b81526020600482015260146024820152731d1bdad95b881cd95a5e9d5c994819985a5b195960621b6044820152606490fd5b600554929391929091906001600160a01b03166001600160a01b031660408051632fe3f38f60e11b8152306004808301919091526001600160a01b039485166024830181905286861660448401528786166064840152608483018990529097909460209283818060a4810103816000809a5af19081156108d55786916132f0575b50806132d4575060095443036132c4578351636c540baf60e01b815283818b818a5afa9081156108d55786916132a7575b504303613297578087169088161461328757801561327757600019811461326757613049908787612cb0565b600554909390613061906001600160a01b031661083b565b835163c488847b60e01b815230818b019081526001600160a01b03881660208201526040810187905290999185918b91908290819060600103915afa9889156108d5578290839a613235575b506130b89015612e74565b83516370a0823160e01b81526001600160a01b03891682820190815284908290819060200103818a5afa9081156108d5576130fe918b918591613218575b501015612edc565b308603613175575050509185916131709361313c7f298637f684da70674f26509b10f07ec2fbc77a335ab1e7d6215a4b2484d8bb529888883061330d565b516001600160a01b0395861681529585166020870152604086015290921660608401526080830191909152819060a0820190565b0390a1565b835163b2a02ff160e01b81526001600160a01b0380891692820192835289166020830152604082018a905298929592949293919086908a908190606001038184885af180156108d5577f298637f684da70674f26509b10f07ec2fbc77a335ab1e7d6215a4b2484d8bb5299613170976131f693926131fb575b505015612f28565b61313c565b6132119250803d10610901576108f381836103f1565b38806131ee565b61322f9150863d8811610901576108f381836103f1565b386130f6565b6130b89a5061325a9150853d8711613260575b61325281836103f1565b810190612e5e565b996130ad565b503d613248565b8251635982c5bb60e11b81528890fd5b825163d29da7ef60e01b81528890fd5b8251631bd1a62160e21b81528890fd5b8351631046f38d60e31b81528990fd5b6132be9150843d8611610901576108f381836103f1565b3861301d565b83516380965b1b60e01b81528990fd5b8451630a14d17960e11b8152808b019182529081906020010390fd5b6133079150843d8611610901576108f381836103f1565b38612fec565b928060208461332661083b60055460018060a01b031690565b6040805163d02f735160e01b81523060048201526001600160a01b03998a166024820152878a166044820152929098166064830152608482019390935291829060a49082906000905af19081156108d557600091613513575b50806134fa57506001600160a01b038381169290811691908383146134e95793836134bd61317094613429967fa91e67c5ea634cd43a12c5a482724b03de01e85ca68702a53d0c2f45cb7c1dc5999561343099666379da05b600006133e26106ea565b52670de0b6b3a76400006133f5836126fc565b049661347861345c6134078a86612496565b9461341f6118de8c6134176127c4565b6129396106ea565b9d8e600c546124a3565b9e8f600c55565b61343f610f7d8c600d54612496565b6001600160a01b0384166000908152600e60205260409020610f98565b6001600160a01b039092166000908152600e6020526040902090565b5561349c61345c8361136d8460018060a01b0316600052600e602052604060002090565b558651806000805160206137c8833981519152958693829190602083019252565b0390a383519283523092602090a351308152602081019290925260408201929092529081906060820190565b8551633a94626760e11b8152600490fd5b84516363e00e3360e11b81526004810191909152602490fd5b61352b915060203d8111610901576108f381836103f1565b3861337f565b90816020910312610367575180151581036103675790565b1561355057565b60405162461bcd60e51b815260206004820152601c60248201527f6d61726b6572206d6574686f642072657475726e65642066616c7365000000006044820152606490fd5b6003546135ad9060081c6001600160a01b031661083b565b3303613687576005546001600160a01b0316604051623f1ee960e11b815291906020836004816001600160a01b0386165afa9283156108d5577f7ac369dbd14fa5ea3f473ed67cc9d598964a77501540ba6751eb0b3decf5870d9361361a91600091613659575b50613549565b600580546001600160a01b0319166001600160a01b0384161790555b604080516001600160a01b039283168152929091166020830152819081016129b4565b61367a915060203d8111613680575b61367281836103f1565b810190613531565b38613614565b503d613668565b60405163d219dc1f60e01b8152600490fd5b6003546136b19060081c6001600160a01b031661083b565b3303613759576009544303613747576006546001600160a01b03166040516310c8fc9560e11b815291906020836004816001600160a01b0386165afa9283156108d5577fedffc32e068c7c95dfd4bdfd5c4d939a084d6b11c4199eac8436ed234d72f92693613727916000916136595750613549565b600680546001600160a01b0319166001600160a01b038416179055613636565b604051630be2a5cb60e11b8152600490fd5b60405163407fded560e01b8152600490fd5b9061378591600060405161377e816103d5565b5251612718565b60405190613792826103d5565b815290565b511561273557600090565b670de0b6b3a764000090818102918183041490151715610b4d576126f991519061272b56feddf252ad1be2c89b69c2b068fc378daa952ba7f163c4a11628f55a4df523b3efa26469706673582212209183c2f0e6d59fcb5ccd91c65315492c70c5dac7ecaabc7834b175fb6a4564a864736f6c63430008150033","linkReferences":{}},"methodIdentifiers":{"NO_ERROR()":"69ab3250","_acceptAdmin()":"e9c714f2","_addReserves(uint256)":"3e941010","_delegateCompLikeTo(address)":"7f1e06be","_reduceReserves(uint256)":"601a0bf1","_setComptroller(address)":"4576b5db","_setInterestRateModel(address)":"f2b3abbd","_setPendingAdmin(address)":"b71d1a0c","_setReserveFactor(uint256)":"fca7820b","accrualBlockNumber()":"6c540baf","accrueInterest()":"a6afed95","admin()":"f851a440","allowance(address,address)":"dd62ed3e","approve(address,uint256)":"095ea7b3","balanceOf(address)":"70a08231","balanceOfUnderlying(address)":"3af9e669","borrow(uint256)":"c5ebeaec","borrowBalanceCurrent(address)":"17bfdfbc","borrowBalanceStored(address)":"95dd9193","borrowIndex()":"aa5af0fd","borrowRatePerBlock()":"f8f9da28","comptroller()":"5fe3b567","decimals()":"313ce567","exchangeRateCurrent()":"bd6d894d","exchangeRateStored()":"182df0f5","getAccountSnapshot(address)":"c37f68e2","getCash()":"3b1d21a2","initialize(address,address,address,uint256,string,string,uint8)":"1a31d465","initialize(address,address,uint256,string,string,uint8)":"99d8c1b4","interestRateModel()":"f3fdb15a","isCToken()":"fe9c44ae","liquidateBorrow(address,uint256,address)":"f5e3c462","mint(uint256)":"a0712d68","name()":"06fdde03","pendingAdmin()":"26782247","protocolSeizeShareMantissa()":"6752e702","redeem(uint256)":"db006a75","redeemUnderlying(uint256)":"852a12e3","repayBorrow(uint256)":"0e752702","repayBorrowBehalf(address,uint256)":"2608f818","reserveFactorMantissa()":"173b9904","seize(address,address,uint256)":"b2a02ff1","supplyRatePerBlock()":"ae9d70b0","sweepToken(address)":"1be19560","symbol()":"95d89b41","totalBorrows()":"47bd3718","totalBorrowsCurrent()":"73acee98","totalReserves()":"8f840ddd","totalSupply()":"18160ddd","transfer(address,uint256)":"a9059cbb","transferFrom(address,address,uint256)":"23b872dd","underlying()":"6f307dc3"},"id":0}