{
  "abi": [
    {
      "inputs": [],
      "stateMutability": "nonpayable",
      "type": "constructor"
    },
    {
      "inputs": [],
      "name": "AcceptAdminPendingAdminCheck",
      "type": "error"
    },
    {
      "inputs": [
        {
          "internalType": "uint256",
          "name": "actualAddAmount",
          "type": "uint256"
        }
      ],
      "name": "AddReservesFactorFreshCheck",
      "type": "error"
    },
    {
      "inputs": [],
      "name": "BorrowCashNotAvailable",
      "type": "error"
    },
    {
      "inputs": [
        {
          "internalType": "uint256",
          "name": "errorCode",
          "type": "uint256"
        }
      ],
      "name": "BorrowComptrollerRejection",
      "type": "error"
    },
    {
      "inputs": [],
      "name": "BorrowFreshnessCheck",
      "type": "error"
    },
    {
      "inputs": [
        {
          "internalType": "uint256",
          "name": "errorCode",
          "type": "uint256"
        }
      ],
      "name": "LiquidateAccrueBorrowInterestFailed",
      "type": "error"
    },
    {
      "inputs": [
        {
          "internalType": "uint256",
          "name": "errorCode",
          "type": "uint256"
        }
      ],
      "name": "LiquidateAccrueCollateralInterestFailed",
      "type": "error"
    },
    {
      "inputs": [],
      "name": "LiquidateCloseAmountIsUintMax",
      "type": "error"
    },
    {
      "inputs": [],
      "name": "LiquidateCloseAmountIsZero",
      "type": "error"
    },
    {
      "inputs": [],
      "name": "LiquidateCollateralFreshnessCheck",
      "type": "error"
    },
    {
      "inputs": [
        {
          "internalType": "uint256",
          "name": "errorCode",
          "type": "uint256"
        }
      ],
      "name": "LiquidateComptrollerRejection",
      "type": "error"
    },
    {
      "inputs": [],
      "name": "LiquidateFreshnessCheck",
      "type": "error"
    },
    {
      "inputs": [],
      "name": "LiquidateLiquidatorIsBorrower",
      "type": "error"
    },
    {
      "inputs": [
        {
          "internalType": "uint256",
          "name": "errorCode",
          "type": "uint256"
        }
      ],
      "name": "LiquidateRepayBorrowFreshFailed",
      "type": "error"
    },
    {
      "inputs": [
        {
          "internalType": "uint256",
          "name": "errorCode",
          "type": "uint256"
        }
      ],
      "name": "LiquidateSeizeComptrollerRejection",
      "type": "error"
    },
    {
      "inputs": [],
      "name": "LiquidateSeizeLiquidatorIsBorrower",
      "type": "error"
    },
    {
      "inputs": [
        {
          "internalType": "uint256",
          "name": "errorCode",
          "type": "uint256"
        }
      ],
      "name": "MintComptrollerRejection",
      "type": "error"
    },
    {
      "inputs": [],
      "name": "MintFreshnessCheck",
      "type": "error"
    },
    {
      "inputs": [
        {
          "internalType": "uint256",
          "name": "errorCode",
          "type": "uint256"
        }
      ],
      "name": "RedeemComptrollerRejection",
      "type": "error"
    },
    {
      "inputs": [],
      "name": "RedeemFreshnessCheck",
      "type": "error"
    },
    {
      "inputs": [],
      "name": "RedeemTransferOutNotPossible",
      "type": "error"
    },
    {
      "inputs": [],
      "name": "ReduceReservesAdminCheck",
      "type": "error"
    },
    {
      "inputs": [],
      "name": "ReduceReservesCashNotAvailable",
      "type": "error"
    },
    {
      "inputs": [],
      "name": "ReduceReservesCashValidation",
      "type": "error"
    },
    {
      "inputs": [],
      "name": "ReduceReservesFreshCheck",
      "type": "error"
    },
    {
      "inputs": [
        {
          "internalType": "uint256",
          "name": "errorCode",
          "type": "uint256"
        }
      ],
      "name": "RepayBorrowComptrollerRejection",
      "type": "error"
    },
    {
      "inputs": [],
      "name": "RepayBorrowFreshnessCheck",
      "type": "error"
    },
    {
      "inputs": [],
      "name": "SetComptrollerOwnerCheck",
      "type": "error"
    },
    {
      "inputs": [],
      "name": "SetInterestRateModelFreshCheck",
      "type": "error"
    },
    {
      "inputs": [],
      "name": "SetInterestRateModelOwnerCheck",
      "type": "error"
    },
    {
      "inputs": [],
      "name": "SetPendingAdminOwnerCheck",
      "type": "error"
    },
    {
      "inputs": [],
      "name": "SetReserveFactorAdminCheck",
      "type": "error"
    },
    {
      "inputs": [],
      "name": "SetReserveFactorBoundsCheck",
      "type": "error"
    },
    {
      "inputs": [],
      "name": "SetReserveFactorFreshCheck",
      "type": "error"
    },
    {
      "inputs": [
        {
          "internalType": "uint256",
          "name": "errorCode",
          "type": "uint256"
        }
      ],
      "name": "TransferComptrollerRejection",
      "type": "error"
    },
    {
      "inputs": [],
      "name": "TransferNotAllowed",
      "type": "error"
    },
    {
      "inputs": [],
      "name": "TransferNotEnough",
      "type": "error"
    },
    {
      "inputs": [],
      "name": "TransferTooMuch",
      "type": "error"
    },
    {
      "anonymous": false,
      "inputs": [
        {
          "indexed": false,
          "internalType": "uint256",
          "name": "cashPrior",
          "type": "uint256"
        },
        {
          "indexed": false,
          "internalType": "uint256",
          "name": "interestAccumulated",
          "type": "uint256"
        },
        {
          "indexed": false,
          "internalType": "uint256",
          "name": "borrowIndex",
          "type": "uint256"
        },
        {
          "indexed": false,
          "internalType": "uint256",
          "name": "totalBorrows",
          "type": "uint256"
        }
      ],
      "name": "AccrueInterest",
      "type": "event"
    },
    {
      "anonymous": false,
      "inputs": [
        {
          "indexed": true,
          "internalType": "address",
          "name": "owner",
          "type": "address"
        },
        {
          "indexed": true,
          "internalType": "address",
          "name": "spender",
          "type": "address"
        },
        {
          "indexed": false,
          "internalType": "uint256",
          "name": "amount",
          "type": "uint256"
        }
      ],
      "name": "Approval",
      "type": "event"
    },
    {
      "anonymous": false,
      "inputs": [
        {
          "indexed": false,
          "internalType": "address",
          "name": "borrower",
          "type": "address"
        },
        {
          "indexed": false,
          "internalType": "uint256",
          "name": "borrowAmount",
          "type": "uint256"
        },
        {
          "indexed": false,
          "internalType": "uint256",
          "name": "accountBorrows",
          "type": "uint256"
        },
        {
          "indexed": false,
          "internalType": "uint256",
          "name": "totalBorrows",
          "type": "uint256"
        }
      ],
      "name": "Borrow",
      "type": "event"
    },
    {
      "anonymous": false,
      "inputs": [
        {
          "indexed": false,
          "internalType": "address",
          "name": "liquidator",
          "type": "address"
        },
        {
          "indexed": false,
          "internalType": "address",
          "name": "borrower",
          "type": "address"
        },
        {
          "indexed": false,
          "internalType": "uint256",
          "name": "repayAmount",
          "type": "uint256"
        },
        {
          "indexed": false,
          "internalType": "address",
          "name": "cTokenCollateral",
          "type": "address"
        },
        {
          "indexed": false,
          "internalType": "uint256",
          "name": "seizeTokens",
          "type": "uint256"
        }
      ],
      "name": "LiquidateBorrow",
      "type": "event"
    },
    {
      "anonymous": false,
      "inputs": [
        {
          "indexed": false,
          "internalType": "address",
          "name": "minter",
          "type": "address"
        },
        {
          "indexed": false,
          "internalType": "uint256",
          "name": "mintAmount",
          "type": "uint256"
        },
        {
          "indexed": false,
          "internalType": "uint256",
          "name": "mintTokens",
          "type": "uint256"
        }
      ],
      "name": "Mint",
      "type": "event"
    },
    {
      "anonymous": false,
      "inputs": [
        {
          "indexed": false,
          "internalType": "address",
          "name": "oldAdmin",
          "type": "address"
        },
        {
          "indexed": false,
          "internalType": "address",
          "name": "newAdmin",
          "type": "address"
        }
      ],
      "name": "NewAdmin",
      "type": "event"
    },
    {
      "anonymous": false,
      "inputs": [
        {
          "indexed": false,
          "internalType": "contract ComptrollerInterface",
          "name": "oldComptroller",
          "type": "address"
        },
        {
          "indexed": false,
          "internalType": "contract ComptrollerInterface",
          "name": "newComptroller",
          "type": "address"
        }
      ],
      "name": "NewComptroller",
      "type": "event"
    },
    {
      "anonymous": false,
      "inputs": [
        {
          "indexed": false,
          "internalType": "contract InterestRateModel",
          "name": "oldInterestRateModel",
          "type": "address"
        },
        {
          "indexed": false,
          "internalType": "contract InterestRateModel",
          "name": "newInterestRateModel",
          "type": "address"
        }
      ],
      "name": "NewMarketInterestRateModel",
      "type": "event"
    },
    {
      "anonymous": false,
      "inputs": [
        {
          "indexed": false,
          "internalType": "address",
          "name": "oldPendingAdmin",
          "type": "address"
        },
        {
          "indexed": false,
          "internalType": "address",
          "name": "newPendingAdmin",
          "type": "address"
        }
      ],
      "name": "NewPendingAdmin",
      "type": "event"
    },
    {
      "anonymous": false,
      "inputs": [
        {
          "indexed": false,
          "internalType": "uint256",
          "name": "oldReserveFactorMantissa",
          "type": "uint256"
        },
        {
          "indexed": false,
          "internalType": "uint256",
          "name": "newReserveFactorMantissa",
          "type": "uint256"
        }
      ],
      "name": "NewReserveFactor",
      "type": "event"
    },
    {
      "anonymous": false,
      "inputs": [
        {
          "indexed": false,
          "internalType": "address",
          "name": "redeemer",
          "type": "address"
        },
        {
          "indexed": false,
          "internalType": "uint256",
          "name": "redeemAmount",
          "type": "uint256"
        },
        {
          "indexed": false,
          "internalType": "uint256",
          "name": "redeemTokens",
          "type": "uint256"
        }
      ],
      "name": "Redeem",
      "type": "event"
    },
    {
      "anonymous": false,
      "inputs": [
        {
          "indexed": false,
          "internalType": "address",
          "name": "payer",
          "type": "address"
        },
        {
          "indexed": false,
          "internalType": "address",
          "name": "borrower",
          "type": "address"
        },
        {
          "indexed": false,
          "internalType": "uint256",
          "name": "repayAmount",
          "type": "uint256"
        },
        {
          "indexed": false,
          "internalType": "uint256",
          "name": "accountBorrows",
          "type": "uint256"
        },
        {
          "indexed": false,
          "internalType": "uint256",
          "name": "totalBorrows",
          "type": "uint256"
        }
      ],
      "name": "RepayBorrow",
      "type": "event"
    },
    {
      "anonymous": false,
      "inputs": [
        {
          "indexed": false,
          "internalType": "address",
          "name": "benefactor",
          "type": "address"
        },
        {
          "indexed": false,
          "internalType": "uint256",
          "name": "addAmount",
          "type": "uint256"
        },
        {
          "indexed": false,
          "internalType": "uint256",
          "name": "newTotalReserves",
          "type": "uint256"
        }
      ],
      "name": "ReservesAdded",
      "type": "event"
    },
    {
      "anonymous": false,
      "inputs": [
        {
          "indexed": false,
          "internalType": "address",
          "name": "admin",
          "type": "address"
        },
        {
          "indexed": false,
          "internalType": "uint256",
          "name": "reduceAmount",
          "type": "uint256"
        },
        {
          "indexed": false,
          "internalType": "uint256",
          "name": "newTotalReserves",
          "type": "uint256"
        }
      ],
      "name": "ReservesReduced",
      "type": "event"
    },
    {
      "anonymous": false,
      "inputs": [
        {
          "indexed": true,
          "internalType": "address",
          "name": "from",
          "type": "address"
        },
        {
          "indexed": true,
          "internalType": "address",
          "name": "to",
          "type": "address"
        },
        {
          "indexed": false,
          "internalType": "uint256",
          "name": "amount",
          "type": "uint256"
        }
      ],
      "name": "Transfer",
      "type": "event"
    },
    {
      "inputs": [],
      "name": "NO_ERROR",
      "outputs": [
        {
          "internalType": "uint256",
          "name": "",
          "type": "uint256"
        }
      ],
      "stateMutability": "view",
      "type": "function"
    },
    {
      "inputs": [],
      "name": "_acceptAdmin",
      "outputs": [
        {
          "internalType": "uint256",
          "name": "",
          "type": "uint256"
        }
      ],
      "stateMutability": "nonpayable",
      "type": "function"
    },
    {
      "inputs": [
        {
          "internalType": "uint256",
          "name": "addAmount",
          "type": "uint256"
        }
      ],
      "name": "_addReserves",
      "outputs": [
        {
          "internalType": "uint256",
          "name": "",
          "type": "uint256"
        }
      ],
      "stateMutability": "nonpayable",
      "type": "function"
    },
    {
      "inputs": [
        {
          "internalType": "bytes",
          "name": "data",
          "type": "bytes"
        }
      ],
      "name": "_becomeImplementation",
      "outputs": [],
      "stateMutability": "nonpayable",
      "type": "function"
    },
    {
      "inputs": [
        {
          "internalType": "address",
          "name": "compLikeDelegatee",
          "type": "address"
        }
      ],
      "name": "_delegateCompLikeTo",
      "outputs": [],
      "stateMutability": "nonpayable",
      "type": "function"
    },
    {
      "inputs": [
        {
          "internalType": "uint256",
          "name": "reduceAmount",
          "type": "uint256"
        }
      ],
      "name": "_reduceReserves",
      "outputs": [
        {
          "internalType": "uint256",
          "name": "",
          "type": "uint256"
        }
      ],
      "stateMutability": "nonpayable",
      "type": "function"
    },
    {
      "inputs": [],
      "name": "_resignImplementation",
      "outputs": [],
      "stateMutability": "nonpayable",
      "type": "function"
    },
    {
      "inputs": [
        {
          "internalType": "contract ComptrollerInterface",
          "name": "newComptroller",
          "type": "address"
        }
      ],
      "name": "_setComptroller",
      "outputs": [
        {
          "internalType": "uint256",
          "name": "",
          "type": "uint256"
        }
      ],
      "stateMutability": "nonpayable",
      "type": "function"
    },
    {
      "inputs": [
        {
          "internalType": "contract InterestRateModel",
          "name": "newInterestRateModel",
          "type": "address"
        }
      ],
      "name": "_setInterestRateModel",
      "outputs": [
        {
          "internalType": "uint256",
          "name": "",
          "type": "uint256"
        }
      ],
      "stateMutability": "nonpayable",
      "type": "function"
    },
    {
      "inputs": [
        {
          "internalType": "address payable",
          "name": "newPendingAdmin",
          "type": "address"
        }
      ],
      "name": "_setPendingAdmin",
      "outputs": [
        {
          "internalType": "uint256",
          "name": "",
          "type": "uint256"
        }
      ],
      "stateMutability": "nonpayable",
      "type": "function"
    },
    {
      "inputs": [
        {
          "internalType": "uint256",
          "name": "newReserveFactorMantissa",
          "type": "uint256"
        }
      ],
      "name": "_setReserveFactor",
      "outputs": [
        {
          "internalType": "uint256",
          "name": "",
          "type": "uint256"
        }
      ],
      "stateMutability": "nonpayable",
      "type": "function"
    },
    {
      "inputs": [],
      "name": "accrualBlockNumber",
      "outputs": [
        {
          "internalType": "uint256",
          "name": "",
          "type": "uint256"
        }
      ],
      "stateMutability": "view",
      "type": "function"
    },
    {
      "inputs": [],
      "name": "accrueInterest",
      "outputs": [
        {
          "internalType": "uint256",
          "name": "",
          "type": "uint256"
        }
      ],
      "stateMutability": "nonpayable",
      "type": "function"
    },
    {
      "inputs": [],
      "name": "admin",
      "outputs": [
        {
          "internalType": "address payable",
          "name": "",
          "type": "address"
        }
      ],
      "stateMutability": "view",
      "type": "function"
    },
    {
      "inputs": [
        {
          "internalType": "address",
          "name": "owner",
          "type": "address"
        },
        {
          "internalType": "address",
          "name": "spender",
          "type": "address"
        }
      ],
      "name": "allowance",
      "outputs": [
        {
          "internalType": "uint256",
          "name": "",
          "type": "uint256"
        }
      ],
      "stateMutability": "view",
      "type": "function"
    },
    {
      "inputs": [
        {
          "internalType": "address",
          "name": "spender",
          "type": "address"
        },
        {
          "internalType": "uint256",
          "name": "amount",
          "type": "uint256"
        }
      ],
      "name": "approve",
      "outputs": [
        {
          "internalType": "bool",
          "name": "",
          "type": "bool"
        }
      ],
      "stateMutability": "nonpayable",
      "type": "function"
    },
    {
      "inputs": [
        {
          "internalType": "address",
          "name": "owner",
          "type": "address"
        }
      ],
      "name": "balanceOf",
      "outputs": [
        {
          "internalType": "uint256",
          "name": "",
          "type": "uint256"
        }
      ],
      "stateMutability": "view",
      "type": "function"
    },
    {
      "inputs": [
        {
          "internalType": "address",
          "name": "owner",
          "type": "address"
        }
      ],
      "name": "balanceOfUnderlying",
      "outputs": [
        {
          "internalType": "uint256",
          "name": "",
          "type": "uint256"
        }
      ],
      "stateMutability": "nonpayable",
      "type": "function"
    },
    {
      "inputs": [
        {
          "internalType": "uint256",
          "name": "borrowAmount",
          "type": "uint256"
        }
      ],
      "name": "borrow",
      "outputs": [
        {
          "internalType": "uint256",
          "name": "",
          "type": "uint256"
        }
      ],
      "stateMutability": "nonpayable",
      "type": "function"
    },
    {
      "inputs": [
        {
          "internalType": "address",
          "name": "account",
          "type": "address"
        }
      ],
      "name": "borrowBalanceCurrent",
      "outputs": [
        {
          "internalType": "uint256",
          "name": "",
          "type": "uint256"
        }
      ],
      "stateMutability": "nonpayable",
      "type": "function"
    },
    {
      "inputs": [
        {
          "internalType": "address",
          "name": "account",
          "type": "address"
        }
      ],
      "name": "borrowBalanceStored",
      "outputs": [
        {
          "internalType": "uint256",
          "name": "",
          "type": "uint256"
        }
      ],
      "stateMutability": "view",
      "type": "function"
    },
    {
      "inputs": [],
      "name": "borrowIndex",
      "outputs": [
        {
          "internalType": "uint256",
          "name": "",
          "type": "uint256"
        }
      ],
      "stateMutability": "view",
      "type": "function"
    },
    {
      "inputs": [],
      "name": "borrowRatePerBlock",
      "outputs": [
        {
          "internalType": "uint256",
          "name": "",
          "type": "uint256"
        }
      ],
      "stateMutability": "view",
      "type": "function"
    },
    {
      "inputs": [],
      "name": "comptroller",
      "outputs": [
        {
          "internalType": "contract ComptrollerInterface",
          "name": "",
          "type": "address"
        }
      ],
      "stateMutability": "view",
      "type": "function"
    },
    {
      "inputs": [],
      "name": "decimals",
      "outputs": [
        {
          "internalType": "uint8",
          "name": "",
          "type": "uint8"
        }
      ],
      "stateMutability": "view",
      "type": "function"
    },
    {
      "inputs": [],
      "name": "exchangeRateCurrent",
      "outputs": [
        {
          "internalType": "uint256",
          "name": "",
          "type": "uint256"
        }
      ],
      "stateMutability": "nonpayable",
      "type": "function"
    },
    {
      "inputs": [],
      "name": "exchangeRateStored",
      "outputs": [
        {
          "internalType": "uint256",
          "name": "",
          "type": "uint256"
        }
      ],
      "stateMutability": "view",
      "type": "function"
    },
    {
      "inputs": [
        {
          "internalType": "address",
          "name": "account",
          "type": "address"
        }
      ],
      "name": "getAccountSnapshot",
      "outputs": [
        {
          "internalType": "uint256",
          "name": "",
          "type": "uint256"
        },
        {
          "internalType": "uint256",
          "name": "",
          "type": "uint256"
        },
        {
          "internalType": "uint256",
          "name": "",
          "type": "uint256"
        },
        {
          "internalType": "uint256",
          "name": "",
          "type": "uint256"
        }
      ],
      "stateMutability": "view",
      "type": "function"
    },
    {
      "inputs": [],
      "name": "getCash",
      "outputs": [
        {
          "internalType": "uint256",
          "name": "",
          "type": "uint256"
        }
      ],
      "stateMutability": "view",
      "type": "function"
    },
    {
      "inputs": [],
      "name": "implementation",
      "outputs": [
        {
          "internalType": "address",
          "name": "",
          "type": "address"
        }
      ],
      "stateMutability": "view",
      "type": "function"
    },
    {
      "inputs": [
        {
          "internalType": "address",
          "name": "underlying_",
          "type": "address"
        },
        {
          "internalType": "contract ComptrollerInterface",
          "name": "comptroller_",
          "type": "address"
        },
        {
          "internalType": "contract InterestRateModel",
          "name": "interestRateModel_",
          "type": "address"
        },
        {
          "internalType": "uint256",
          "name": "initialExchangeRateMantissa_",
          "type": "uint256"
        },
        {
          "internalType": "string",
          "name": "name_",
          "type": "string"
        },
        {
          "internalType": "string",
          "name": "symbol_",
          "type": "string"
        },
        {
          "internalType": "uint8",
          "name": "decimals_",
          "type": "uint8"
        }
      ],
      "name": "initialize",
      "outputs": [],
      "stateMutability": "nonpayable",
      "type": "function"
    },
    {
      "inputs": [
        {
          "internalType": "contract ComptrollerInterface",
          "name": "comptroller_",
          "type": "address"
        },
        {
          "internalType": "contract InterestRateModel",
          "name": "interestRateModel_",
          "type": "address"
        },
        {
          "internalType": "uint256",
          "name": "initialExchangeRateMantissa_",
          "type": "uint256"
        },
        {
          "internalType": "string",
          "name": "name_",
          "type": "string"
        },
        {
          "internalType": "string",
          "name": "symbol_",
          "type": "string"
        },
        {
          "internalType": "uint8",
          "name": "decimals_",
          "type": "uint8"
        }
      ],
      "name": "initialize",
      "outputs": [],
      "stateMutability": "nonpayable",
      "type": "function"
    },
    {
      "inputs": [],
      "name": "interestRateModel",
      "outputs": [
        {
          "internalType": "contract InterestRateModel",
          "name": "",
          "type": "address"
        }
      ],
      "stateMutability": "view",
      "type": "function"
    },
    {
      "inputs": [],
      "name": "isCToken",
      "outputs": [
        {
          "internalType": "bool",
          "name": "",
          "type": "bool"
        }
      ],
      "stateMutability": "view",
      "type": "function"
    },
    {
      "inputs": [
        {
          "internalType": "address",
          "name": "borrower",
          "type": "address"
        },
        {
          "internalType": "uint256",
          "name": "repayAmount",
          "type": "uint256"
        },
        {
          "internalType": "contract CTokenInterface",
          "name": "cTokenCollateral",
          "type": "address"
        }
      ],
      "name": "liquidateBorrow",
      "outputs": [
        {
          "internalType": "uint256",
          "name": "",
          "type": "uint256"
        }
      ],
      "stateMutability": "nonpayable",
      "type": "function"
    },
    {
      "inputs": [
        {
          "internalType": "uint256",
          "name": "mintAmount",
          "type": "uint256"
        }
      ],
      "name": "mint",
      "outputs": [
        {
          "internalType": "uint256",
          "name": "",
          "type": "uint256"
        }
      ],
      "stateMutability": "nonpayable",
      "type": "function"
    },
    {
      "inputs": [],
      "name": "name",
      "outputs": [
        {
          "internalType": "string",
          "name": "",
          "type": "string"
        }
      ],
      "stateMutability": "view",
      "type": "function"
    },
    {
      "inputs": [],
      "name": "pendingAdmin",
      "outputs": [
        {
          "internalType": "address payable",
          "name": "",
          "type": "address"
        }
      ],
      "stateMutability": "view",
      "type": "function"
    },
    {
      "inputs": [],
      "name": "protocolSeizeShareMantissa",
      "outputs": [
        {
          "internalType": "uint256",
          "name": "",
          "type": "uint256"
        }
      ],
      "stateMutability": "view",
      "type": "function"
    },
    {
      "inputs": [
        {
          "internalType": "uint256",
          "name": "redeemTokens",
          "type": "uint256"
        }
      ],
      "name": "redeem",
      "outputs": [
        {
          "internalType": "uint256",
          "name": "",
          "type": "uint256"
        }
      ],
      "stateMutability": "nonpayable",
      "type": "function"
    },
    {
      "inputs": [
        {
          "internalType": "uint256",
          "name": "redeemAmount",
          "type": "uint256"
        }
      ],
      "name": "redeemUnderlying",
      "outputs": [
        {
          "internalType": "uint256",
          "name": "",
          "type": "uint256"
        }
      ],
      "stateMutability": "nonpayable",
      "type": "function"
    },
    {
      "inputs": [
        {
          "internalType": "uint256",
          "name": "repayAmount",
          "type": "uint256"
        }
      ],
      "name": "repayBorrow",
      "outputs": [
        {
          "internalType": "uint256",
          "name": "",
          "type": "uint256"
        }
      ],
      "stateMutability": "nonpayable",
      "type": "function"
    },
    {
      "inputs": [
        {
          "internalType": "address",
          "name": "borrower",
          "type": "address"
        },
        {
          "internalType": "uint256",
          "name": "repayAmount",
          "type": "uint256"
        }
      ],
      "name": "repayBorrowBehalf",
      "outputs": [
        {
          "internalType": "uint256",
          "name": "",
          "type": "uint256"
        }
      ],
      "stateMutability": "nonpayable",
      "type": "function"
    },
    {
      "inputs": [],
      "name": "reserveFactorMantissa",
      "outputs": [
        {
          "internalType": "uint256",
          "name": "",
          "type": "uint256"
        }
      ],
      "stateMutability": "view",
      "type": "function"
    },
    {
      "inputs": [
        {
          "internalType": "address",
          "name": "liquidator",
          "type": "address"
        },
        {
          "internalType": "address",
          "name": "borrower",
          "type": "address"
        },
        {
          "internalType": "uint256",
          "name": "seizeTokens",
          "type": "uint256"
        }
      ],
      "name": "seize",
      "outputs": [
        {
          "internalType": "uint256",
          "name": "",
          "type": "uint256"
        }
      ],
      "stateMutability": "nonpayable",
      "type": "function"
    },
    {
      "inputs": [],
      "name": "supplyRatePerBlock",
      "outputs": [
        {
          "internalType": "uint256",
          "name": "",
          "type": "uint256"
        }
      ],
      "stateMutability": "view",
      "type": "function"
    },
    {
      "inputs": [
        {
          "internalType": "contract EIP20NonStandardInterface",
          "name": "token",
          "type": "address"
        }
      ],
      "name": "sweepToken",
      "outputs": [],
      "stateMutability": "nonpayable",
      "type": "function"
    },
    {
      "inputs": [],
      "name": "symbol",
      "outputs": [
        {
          "internalType": "string",
          "name": "",
          "type": "string"
        }
      ],
      "stateMutability": "view",
      "type": "function"
    },
    {
      "inputs": [],
      "name": "totalBorrows",
      "outputs": [
        {
          "internalType": "uint256",
          "name": "",
          "type": "uint256"
        }
      ],
      "stateMutability": "view",
      "type": "function"
    },
    {
      "inputs": [],
      "name": "totalBorrowsCurrent",
      "outputs": [
        {
          "internalType": "uint256",
          "name": "",
          "type": "uint256"
        }
      ],
      "stateMutability": "nonpayable",
      "type": "function"
    },
    {
      "inputs": [],
      "name": "totalReserves",
      "outputs": [
        {
          "internalType": "uint256",
          "name": "",
          "type": "uint256"
        }
      ],
      "stateMutability": "view",
      "type": "function"
    },
    {
      "inputs": [],
      "name": "totalSupply",
      "outputs": [
        {
          "internalType": "uint256",
          "name": "",
          "type": "uint256"
        }
      ],
      "stateMutability": "view",
      "type": "function"
    },
    {
      "inputs": [
        {
          "internalType": "address",
          "name": "dst",
          "type": "address"
        },
        {
          "internalType": "uint256",
          "name": "amount",
          "type": "uint256"
        }
      ],
      "name": "transfer",
      "outputs": [
        {
          "internalType": "bool",
          "name": "",
          "type": "bool"
        }
      ],
      "stateMutability": "nonpayable",
      "type": "function"
    },
    {
      "inputs": [
        {
          "internalType": "address",
          "name": "src",
          "type": "address"
        },
        {
          "internalType": "address",
          "name": "dst",
          "type": "address"
        },
        {
          "internalType": "uint256",
          "name": "amount",
          "type": "uint256"
        }
      ],
      "name": "transferFrom",
      "outputs": [
        {
          "internalType": "bool",
          "name": "",
          "type": "bool"
        }
      ],
      "stateMutability": "nonpayable",
      "type": "function"
    },
    {
      "inputs": [],
      "name": "underlying",
      "outputs": [
        {
          "internalType": "address",
          "name": "",
          "type": "address"
        }
      ],
      "stateMutability": "view",
      "type": "function"
    }
  ],
  "bytecode": {
    "object": "0x60808060405234610016576139ce908161001c8239f35b600080fdfe6080604052600436101561001257600080fd5b60003560e01c806306fdde0314610387578063095ea7b3146103825780630e7527021461037d578063153ab50514610378578063173b99041461037357806317bfdfbc1461036e57806318160ddd14610369578063182df0f5146103645780631a31d4651461035f5780631be195601461035a57806323b872dd146103555780632608f81814610350578063267822471461034b578063313ce567146103465780633af9e669146103415780633b1d21a21461033c5780633e941010146103375780634576b5db1461033257806347bd37181461032d57806356e67728146103285780635c60da1b146103235780635fe3b5671461031e578063601a0bf1146103195780636752e7021461031457806369ab32501461030f5780636c540baf1461030a5780636f307dc31461030557806370a082311461030057806373acee98146102fb5780637f1e06be146102f6578063852a12e3146102f15780638f840ddd146102ec57806395d89b41146102e757806395dd9193146102e257806399d8c1b4146102dd578063a0712d68146102d8578063a6afed95146102d3578063a9059cbb146102ce578063aa5af0fd146102c9578063ae9d70b0146102c4578063b2a02ff1146102bf578063b71d1a0c146102ba578063bd6d894d146102b5578063c37f68e2146102b0578063c5ebeaec146102ab578063db006a75146102a6578063dd62ed3e146102a1578063e9c714f21461029c578063f2b3abbd14610297578063f3fdb15a14610292578063f5e3c4621461028d578063f851a44014610288578063f8f9da2814610283578063fca7820b1461027e5763fe9c44ae1461027957600080fd5b611efe565b611e18565b611db5565b611d88565b611cae565b611c85565b611c55565b611b2d565b611aca565b611a17565b61186b565b611807565b6117ec565b61173d565b6116f4565b61164d565b61162f565b6115e7565b6115cc565b61140e565b61138e565b611367565b6112bf565b6112a1565b611045565b610fc4565b610f7c565b610f3f565b610f16565b610ef8565b610edc565b610eba565b610d83565b610d5a565b610d31565b610c7c565b610c5e565b610c37565b610b67565b610b4c565b610ae2565b610ac1565b610a98565b610a4a565b610a00565b6108aa565b61081b565b610784565b610766565b61070a565b6106ec565b610669565b610614565b610585565b61048c565b600091031261039757565b600080fd5b90600182811c921680156103cc575b60208310146103b657565b634e487b7160e01b600052602260045260246000fd5b91607f16916103ab565b634e487b7160e01b600052604160045260246000fd5b67ffffffffffffffff811161040057604052565b6103d6565b6020810190811067ffffffffffffffff82111761040057604052565b90601f8019910116810190811067ffffffffffffffff82111761040057604052565b6020808252825181830181905290939260005b82811061047857505060409293506000838284010152601f8019910116010190565b818101860151848201604001528501610456565b346103975760008060031936011261057157604051908060018054906104b18261039c565b808652926020926001811690811561054457506001146104ec575b6104e8866104dc81880382610421565b60405191829182610443565b0390f35b9350600184527fb10e2d527612073b26eecdfd717e6a320cf44b4afac2b0732d9fcbe2b7fa0cf65b838510610531575050505081016020016104dc826104e8386104cc565b8054868601840152938201938101610514565b90508695506104e8969350602092506104dc94915060ff191682840152151560051b8201019293386104cc565b80fd5b6001600160a01b0381160361039757565b34610397576040366003190112610397576004356105a281610574565b6024359033600052600f602052816105d08260406000209060018060a01b0316600052602052604060002090565b556040519182526001600160a01b03169033907f8c5be1e5ebec7d5bd14f71427d1e84f3dd0314c0f7b2291e5b200ac8c7c3b92590602090a3602060405160018152f35b3461039757602036600319011261039757600160005461063660ff8216611f1a565b60ff1990811660005561064761281b565b506106556004353333613025565b506000541617600055602060405160008152f35b346103975760003660031901126103975760035460081c6001600160a01b0316330361069157005b60405162461bcd60e51b815260206004820152602d60248201527f6f6e6c79207468652061646d696e206d61792063616c6c205f72657369676e4960448201526c36b83632b6b2b73a30ba34b7b760991b6064820152608490fd5b34610397576000366003190112610397576020600854604051908152f35b3461039757602036600319011261039757602060043561072981610574565b60016107556000549261073e60ff8516611f1a565b60ff1993841660005561074f61281b565b50612cbb565b916000541617600055604051908152f35b34610397576000366003190112610397576020600d54604051908152f35b3461039757600036600319011261039757602061079f612a1c565b604051908152f35b604051906107b482610405565b565b92919267ffffffffffffffff821161040057604051916107e0601f8201601f191660200184610421565b829481845281830111610397578281602093846000960137010152565b9080601f8301121561039757816020610818933591016107b6565b90565b346103975760e03660031901126103975760043561083881610574565b6024359061084582610574565b6044359061085282610574565b67ffffffffffffffff608435818111610397576108739036906004016107fd565b9060a4359081116103975761088c9036906004016107fd565b9160c4359360ff85168503610397576108a89560643592611f6e565b005b34610397576020366003190112610397576004356108c781610574565b60035460081c6001600160a01b0316906001600160a01b03906108ed3383851614611fdb565b6011549116919061091a90610912906001600160a01b03165b6001600160a01b031690565b83141561203f565b6040516370a0823160e01b8152306004820152602081602481865afa9081156109a0576000916109a5575b50823b156103975760405163a9059cbb60e01b81526001600160a01b0390921660048301526024820152906000908290818381604481015b03925af180156109a05761098d57005b8061099a6108a8926103ec565b8061038c565b611f62565b6109c7915060203d6020116109cd575b6109bf8183610421565b810190611f53565b38610945565b503d6109b5565b6060906003190112610397576004356109ec81610574565b906024356109f981610574565b9060443590565b34610397576020610a386001610a15366109d4565b9060009492945494610a2960ff8716611f1a565b60ff1995861660005533612a70565b15916000541617600055604051908152f35b34610397576040366003190112610397576001600435610a6981610574565b61065560005491610a7c60ff8416611f1a565b60ff19928316600055610a8d61281b565b506024359033613025565b34610397576000366003190112610397576004546040516001600160a01b039091168152602090f35b3461039757600036600319011261039757602060ff60035416604051908152f35b34610397576020366003190112610397576020670de0b6b3a7640000610b42600435610b0d81610574565b610b15612996565b9060405191610b2383610405565b82526001600160a01b03166000908152600e8552604090205490612dcf565b5104604051908152f35b3461039757600036600319011261039757602061079f612c64565b3461039757602036600319011261039757600054610b8760ff8216611f1a565b60ff1916600055610b9661281b565b506009544303610c1e57610bac60043533613808565b600c54818101809111610c1957600c8190556040805133815260208101939093528201527fa91e67c5ea634cd43a12c5a482724b03de01e85ca68702a53d0c2f45cb7c1dc59080606081015b0390a1610c0d600160ff196000541617600055565b60405160008152602090f35b6127eb565b6040516338acf79960e01b815260006004820152602490fd5b3461039757602036600319011261039757602061079f600435610c5981610574565b61210a565b34610397576000366003190112610397576020600b54604051908152f35b346103975760203660031901126103975760043567ffffffffffffffff8111610397573660238201121561039757610cbe9036906024816004013591016107b6565b5060035460081c6001600160a01b03163303610cd657005b60405162461bcd60e51b815260206004820152602d60248201527f6f6e6c79207468652061646d696e206d61792063616c6c205f6265636f6d654960448201526c36b83632b6b2b73a30ba34b7b760991b6064820152608490fd5b34610397576000366003190112610397576012546040516001600160a01b039091168152602090f35b34610397576000366003190112610397576005546040516001600160a01b039091168152602090f35b3461039757602036600319011261039757600435600054610da660ff8216611f1a565b60ff1916600055610db561281b565b50600354610dce9060081c6001600160a01b0316610906565b3303610ea8576009544303610e965780610de6612c64565b10610e8457600c5490818111610e7257610e21817f3bad0c59cf2f06e7314077049f48a93578cd16f5ef92329f1dab1420a99c177e93612801565b610e2a81600c55565b600354610e4490839060081c6001600160a01b03166131d4565b6003546040805160089290921c6001600160a01b031682526020820193909352918201528060608101610bf8565b6040516378d2980560e11b8152600490fd5b604051633345e99960e01b8152600490fd5b604051630dff50cb60e41b8152600490fd5b604051630f7e5e6d60e41b8152600490fd5b34610397576000366003190112610397576020604051666379da05b600008152f35b3461039757600036600319011261039757602060405160008152f35b34610397576000366003190112610397576020600954604051908152f35b34610397576000366003190112610397576011546040516001600160a01b039091168152602090f35b3461039757602036600319011261039757600435610f5c81610574565b60018060a01b0316600052600e6020526020604060002054604051908152f35b3461039757600080600319360112610571578054602091610f9f60ff8316611f1a565b60ff199182168155610faf61281b565b506001600b5492825416179055604051908152f35b3461039757602036600319011261039757600435610fe181610574565b610ff960018060a01b0360035460081c163314612213565b60115461101090610906906001600160a01b031681565b803b15610397576040516317066a5760e21b81526001600160a01b03831660048201529060009082908183816024810161097d565b3461039757602036600319011261039757600480359060009081549061106d60ff8316611f1a565b60ff19918216835561107d61281b565b5061109a611089612a1c565b6110916107a7565b90815285613953565b6005549091906110b2906001600160a01b0316610906565b6040805163eabe7d9160e01b81523084820190815233602082810191909152818401879052929893919291839182908a90829060600103925af19081156109a0578691611282575b5080611266575060095443036112575780611113612c64565b106112485761112c61112784600d54612801565b600d55565b336000908152600e602052604090206111489084905b54612801565b336000908152600e602052604090205561116281336131d4565b85518381523090339060008051602061397983398151915290602090a3855133815260208101829052604081018490527fe5b754fb1abb7f01b499791d0b820ae3b6af3424ac1c59768edb53f4ec31a92990606090a16005546111cd906001600160a01b0316610906565b91823b156112445786516351dff98960e01b8152309181019182523360208301526040820192909252606081019390935292918491849182908490829060800103925af19182156109a057600192611231575b508254161790555160008152602090f35b8061099a61123e926103ec565b38611220565b8580fd5b5084516391240a1b60e01b8152fd5b5084516397b5cfcd60e01b8152fd5b865163480f424760e01b81528084019182529081906020010390fd5b61129b915060203d6020116109cd576109bf8183610421565b386110fa565b34610397576000366003190112610397576020600c54604051908152f35b3461039757600080600319360112610571576040519080600254906112e38261039c565b80855291602091600191828116908115610544575060011461130f576104e8866104dc81880382610421565b9350600284527f405787fa12a823e0f2b7631cc41b3ba8828b3321ca811111fa75cd3aa3bb5ace5b838510611354575050505081016020016104dc826104e8386104cc565b8054868601840152938201938101611337565b3461039757602036600319011261039757602061079f60043561138981610574565b612cbb565b346103975760c0366003190112610397576004356113ab81610574565b602435906113b882610574565b67ffffffffffffffff606435818111610397576113d99036906004016107fd565b90608435908111610397576113f29036906004016107fd565b9060a4359260ff84168403610397576108a89460443591612692565b346103975760203660031901126103975760043560005461143160ff8216611f1a565b60ff191660005561144061281b565b50600554611456906001600160a01b0316610906565b60408051634ef4c3e160e01b815230600482015233602482015260448101849052909291602090829060649082906000905af19081156109a0576000916115ad575b508061159457506009544303611583577f4c209b5fc8ad50758f13e2e1088ba56a560dff690a1c6fef26394f4c03821c4f6114f06114e96114d7612a1c565b936114e06107a7565b94855233613808565b9283613953565b809261150161112783600d5461280e565b336000908152600e6020526040902061151d9083905b5461280e565b336000908152600e602052604090205584513381526020810191909152604081019190915280606081010390a181519081523390309060008051602061397983398151915290602090a3611579600160ff196000541617600055565b5160008152602090f35b81516338d8859760e01b8152600490fd5b82516349abd4fd60e01b81526004810191909152602490fd5b6115c6915060203d6020116109cd576109bf8183610421565b38611498565b3461039757600036600319011261039757602061079f61281b565b3461039757604036600319011261039757602060043561160681610574565b6001610a386000549261161b60ff8516611f1a565b60ff19938416600055602435903380612a70565b34610397576000366003190112610397576020600a54604051908152f35b34610397576000366003190112610397576006546001600160a01b03166020611674612c64565b600b54600c54600854604051635c0b440b60e11b815260048101949094526024840192909252604483015260648201529182908180608481015b03915afa80156109a0576104e8916000916116d5575b506040519081529081906020820190565b6116ee915060203d6020116109cd576109bf8183610421565b386116c4565b3461039757600161172a611707366109d4565b906000939293549361171b60ff8616611f1a565b60ff1994851660005533612dfb565b6000541617600055602060405160008152f35b346103975760203660031901126103975760043561175a81610574565b6003546001600160a01b039060081c811633036117da57600480548383166001600160a01b031982161790915560408051929091166001600160a01b03908116835290921660208201527fca4f2f25d0898edd99413412fb94012f9e54ec8142f9b093e7720646a95b16a991819081015b0390a160405160008152602090f35b604051635cb56c2b60e01b8152600490fd5b3461039757600036600319011261039757602061079f612996565b3461039757602036600319011261039757608060043561182681610574565b6001600160a01b0381166000908152600e60205260409020549061184990612cbb565b611851612a1c565b906040519260008452602084015260408301526060820152f35b346103975760203660031901126103975760043560005461188e60ff8216611f1a565b60ff191660005561189d61281b565b506005546118b3906001600160a01b0316610906565b6040805163368f515360e21b815230600482015233602482015260448101849052909291602090829060649082906000905af19081156109a0576000916119f8575b50806119df575060095443036119ce578061190e612c64565b106119bd57806119477f13ed6866d4e1ee6da46f845c46d7e54120883d75c5ea9a2dacc1c4ca8984ab809261194233612cbb565b61280e565b906119a861195782600b5461280e565b336000908152601060205260409020848155600a54600190910155600b81905561198183336131d4565b85513381526020810193909352604083019390935260608201929092529081906080820190565b0390a1611579600160ff196000541617600055565b81516348c2588160e01b8152600490fd5b8151630e8d8c6160e21b8152600490fd5b825163918db40f60e01b81526004810191909152602490fd5b611a11915060203d6020116109cd576109bf8183610421565b386118f5565b346103975760203660031901126103975760048035600090815490611a3e60ff8316611f1a565b60ff199182168355611a4e61281b565b5080159081159182611ac2575b611a64906132a9565b611a6c612a1c565b91611a756107a7565b92835215611ab157611a8b81611a9a9293612dcf565b670de0b6b3a764000090510490565b935b6005546110b2906001600160a01b0316610906565b50611abb90613948565b8293611a9c565b506001611a5b565b34610397576040366003190112610397576020611b24600435611aec81610574565b60243590611af982610574565b60018060a01b0316600052600f835260406000209060018060a01b0316600052602052604060002090565b54604051908152f35b34610397576000366003190112610397576004546001600160a01b031680338114801590611c4d575b611c3b576003547fca4f2f25d0898edd99413412fb94012f9e54ec8142f9b093e7720646a95b16a9927ff9ffabca9c8276e99321725bcb43fb076a6c66a54b7f21c4e8146d8519b417dc91611be290611bba9060081c6001600160a01b0316610906565b60038054610100600160a81b03191660089490941b610100600160a81b031693909317909255565b600480546001600160a01b0319169055600354604080516001600160a01b03938416815260089290921c9092166020820152a1600454604080516001600160a01b039384168152929091166020830152819081016117cb565b604051631ba24f2960e21b8152600490fd5b503315611b56565b3461039757602036600319011261039757602061079f600435611c7781610574565b611c7f61281b565b50612cfd565b34610397576000366003190112610397576006546040516001600160a01b039091168152602090f35b3461039757606036600319011261039757600435611ccb81610574565b604435611cd781610574565b600054611ce660ff8216611f1a565b60ff1916600055611cf561281b565b5060405163a6afed9560e01b81529160208360048160006001600160a01b0387165af19283156109a057600093611d67575b5082611d4e57611d3c9250602435903361341f565b610c0d600160ff196000541617600055565b604051633eea49b760e11b815260048101849052602490fd5b611d8191935060203d6020116109cd576109bf8183610421565b9138611d27565b346103975760003660031901126103975760035460405160089190911c6001600160a01b03168152602090f35b34610397576000366003190112610397576006546116ae906020906001600160a01b0316611de1612c64565b600b54600c546040516315f2405360e01b815260048101939093526024830191909152604482015292839190829081906064820190565b3461039757602036600319011261039757600435600054611e3b60ff8216611f1a565b60ff1916600055611e4a61281b565b50600354611e639060081c6001600160a01b0316610906565b3303611eec576009544303611eda57670de0b6b3a76400008111611ec8577faaa68312e2ea9d50e16af5068410ab56e1a1fd06037b1a35664812c30f82146090600854611eaf82600855565b6040805191825260208201929092529081908101610bf8565b60405163717220f360e11b8152600490fd5b604051637dfca6b760e11b8152600490fd5b604051631205b57b60e11b8152600490fd5b3461039757600036600319011261039757602060405160018152f35b15611f2157565b60405162461bcd60e51b815260206004820152600a6024820152691c994b595b9d195c995960b21b6044820152606490fd5b90816020910312610397575190565b6040513d6000823e3d90fd5b93611f80936004979360209793612692565b601180546001600160a01b0319166001600160a01b039290921691821790556040516318160ddd60e01b815292839182905afa80156109a057611fc05750565b611fd89060203d6020116109cd576109bf8183610421565b50565b15611fe257565b60405162461bcd60e51b815260206004820152602f60248201527f4345726332303a3a7377656570546f6b656e3a206f6e6c792061646d696e206360448201526e616e20737765657020746f6b656e7360881b6064820152608490fd5b1561204657565b60405162461bcd60e51b815260206004820152603260248201527f4345726332303a3a7377656570546f6b656e3a2063616e206e6f74207377656560448201527138103ab73232b9363cb4b733903a37b5b2b760711b6064820152608490fd5b90816020910312610397575180151581036103975790565b156120c557565b60405162461bcd60e51b815260206004820152601c60248201527f6d61726b6572206d6574686f642072657475726e65642066616c7365000000006044820152606490fd5b6003546121229060081c6001600160a01b0316610906565b3303612201576005546001600160a01b0316604051623f1ee960e11b815291906020836004816001600160a01b0386165afa9283156109a0577f7ac369dbd14fa5ea3f473ed67cc9d598964a77501540ba6751eb0b3decf5870d9361218f916000916121d2575b506120be565b600580546001600160a01b0319166001600160a01b0384161790555b604080516001600160a01b039283168152929091166020830152819081015b0390a1600090565b6121f4915060203d6020116121fa575b6121ec8183610421565b8101906120a6565b38612189565b503d6121e2565b60405163d219dc1f60e01b8152600490fd5b1561221a57565b60405162461bcd60e51b815260206004820152602d60248201527f6f6e6c79207468652061646d696e206d6179207365742074686520636f6d702d60448201526c6c696b652064656c656761746560981b6064820152608490fd5b1561227c57565b60405162461bcd60e51b815260206004820152602360248201527f6d61726b6574206d6179206f6e6c7920626520696e697469616c697a6564206f6044820152626e636560e81b6064820152608490fd5b156122d457565b60405162461bcd60e51b815260206004820152603060248201527f696e697469616c2065786368616e67652072617465206d75737420626520677260448201526f32b0ba32b9103a3430b7103d32b9379760811b6064820152608490fd5b1561233957565b60405162461bcd60e51b815260206004820152601a60248201527f73657474696e6720636f6d7074726f6c6c6572206661696c65640000000000006044820152606490fd5b1561238557565b60405162461bcd60e51b815260206004820152602260248201527f73657474696e6720696e7465726573742072617465206d6f64656c206661696c604482015261195960f21b6064820152608490fd5b90601f82116123e2575050565b60019160009060016000527fb10e2d527612073b26eecdfd717e6a320cf44b4afac2b0732d9fcbe2b7fa0cf6906020601f850160051c83019410612441575b601f0160051c01915b8281106124375750505050565b818155830161242a565b9092508290612421565b601f8111612457575050565b60009060026000527f405787fa12a823e0f2b7631cc41b3ba8828b3321ca811111fa75cd3aa3bb5ace906020601f850160051c830194106124b3575b601f0160051c01915b8281106124a857505050565b81815560010161249c565b9092508290612493565b90815167ffffffffffffffff8111610400576001906124e5816124e0845461039c565b6123d5565b602080601f83116001146125285750819061251993949560009261251d575b50508160011b916000199060031b1c19161790565b9055565b015190503880612504565b90601f1983169561255b60016000527fb10e2d527612073b26eecdfd717e6a320cf44b4afac2b0732d9fcbe2b7fa0cf690565b926000905b888210612596575050838596971061257d575b505050811b019055565b015160001960f88460031b161c19169055388080612573565b808785968294968601518155019501930190612560565b90815167ffffffffffffffff8111610400576125d3816125ce60025461039c565b61244b565b602080601f831160011461260a57508190612605939460009261251d5750508160011b916000199060031b1c19161790565b600255565b90601f1983169461263d60026000527f405787fa12a823e0f2b7631cc41b3ba8828b3321ca811111fa75cd3aa3bb5ace90565b926000905b87821061267a575050836001959610612661575b505050811b01600255565b015160001960f88460031b161c19169055388080612656565b80600185968294968601518155019501930190612642565b60035490959492939060081c6001600160a01b0316330361274e5761271861271261271d936126f36126ed6127329a6126e06127229a6009541580612744575b6126db90612275565b600755565b610c5960075415156122cd565b15612332565b6126fc43600955565b61270d670de0b6b3a7640000600a55565b612cfd565b1561237e565b6124bd565b6125ad565b60ff1660ff196003541617600355565b6107b4600160ff196000541617600055565b50600a54156126d2565b60405162461bcd60e51b8152602060048201526024808201527f6f6e6c792061646d696e206d617920696e697469616c697a6520746865206d616044820152631c9ad95d60e21b6064820152608490fd5b156127a657565b60405162461bcd60e51b815260206004820152601c60248201527f626f72726f772072617465206973206162737572646c792068696768000000006044820152606490fd5b634e487b7160e01b600052601160045260246000fd5b91908203918211610c1957565b91908201809211610c1957565b6009544381146129905761282d612c64565b600b5490600c5492600a549261284d61090660065460018060a01b031690565b6040516315f2405360e01b81526004810185905260248101839052604481018790529590602090879060649082905afa9586156109a05761292786611942611a8b612915996129216128f87f4dec04e750ca11537cabcd8a9eab06494de08da3735bc8871cd41250e190bc049d6121ca9b6129489960009261296b575b506128e7906128e165048c2739500084111561279f565b43612801565b906128f06107a7565b908152612dcf565b97611942611a8b61290c611a8b8d8d612dcf565b9e8f9c8d61280e565b9b6008546128f06107a7565b96612dcf565b9161293143600955565b61293a83600a55565b61294384600b55565b600c55565b604051948594859094939260609260808301968352602083015260408201520152565b6128e79192506129899060203d6020116109cd576109bf8183610421565b91906128ca565b50600090565b600054906129a660ff8316611f1a565b60ff199182166000556129b761281b565b5060016129c2612a1c565b926000541617600055565b90666379da05b6000091828102928184041490151715610c1957565b81810292918115918404141715610c1957565b8115612a06570490565b634e487b7160e01b600052601260045260246000fd5b600d5480612a2b575060075490565b612a33612c64565b90600b548201809211610c1957600c549182810392818411610c1957670de0b6b3a76400008085029485041491141715610c1957610818916129fc565b909192612a8761090660055460018060a01b031690565b6040516317b9b84b60e31b81523060048201526001600160a01b038581166024830152861660448201526064810183905290602090829060849082906000905af19081156109a057600091612c45575b5080612c2b57506001600160a01b038481169484821694919291858714612c195760008051602061397983398151915294612ba99481168703612bf0576000195b612b228582612801565b93612b8f612b46876111428760018060a01b0316600052600e602052604060002090565b91612b67886115178360018060a01b0316600052600e602052604060002090565b6001600160a01b038781166000908152600e6020526040808220969096559216825292902090565b5519612bb1575b5050604051918252509081906020820190565b0390a3600090565b612bd0612be79260018060a01b0316600052600f602052604060002090565b9060018060a01b0316600052602052604060002090565b55388080612b96565b6001600160a01b0382166000908152600f60205260409020612c13908290612bd0565b54612b18565b604051638cd22d1960e01b8152600490fd5b60405163089d427760e11b81526004810191909152602490fd5b612c5e915060203d6020116109cd576109bf8183610421565b38612ad7565b6011546040516370a0823160e01b815230600482015290602090829060249082906001600160a01b03165afa9081156109a057600091612ca2575090565b610818915060203d6020116109cd576109bf8183610421565b6001600160a01b031660009081526010602052604090208054908115612cf6576001612ced61081893600a54906129e9565b910154906129fc565b5050600090565b600354612d159060081c6001600160a01b0316610906565b3303612dbd576009544303612dab576006546001600160a01b03166040516310c8fc9560e11b815291906020836004816001600160a01b0386165afa9283156109a0577fedffc32e068c7c95dfd4bdfd5c4d939a084d6b11c4199eac8436ed234d72f92693612d8b916000916121d257506120be565b600680546001600160a01b0319166001600160a01b0384161790556121ab565b604051630be2a5cb60e11b8152600490fd5b60405163407fded560e01b8152600490fd5b90612de9916000604051612de281610405565b52516129e9565b60405190612df682610405565b815290565b9280602084612e1461090660055460018060a01b031690565b6040805163d02f735160e01b81523060048201526001600160a01b03998a166024820152878a166044820152929098166064830152608482019390935291829060a49082906000905af19081156109a057600091613006575b5080612fed57506001600160a01b03838116929081169190838314612fdc579383612fab612fd794612f17967fa91e67c5ea634cd43a12c5a482724b03de01e85ca68702a53d0c2f45cb7c1dc59995612f1e99666379da05b60000612ed06107a7565b52670de0b6b3a7640000612ee3836129cd565b0496612f66612f4a612ef58a86612801565b94612f0d611a8b8c612f05612a1c565b6128f06107a7565b9d8e600c5461280e565b9e8f600c55565b612f2d6111278c600d54612801565b6001600160a01b0384166000908152600e60205260409020611142565b6001600160a01b039092166000908152600e6020526040902090565b55612f8a612f4a836115178460018060a01b0316600052600e602052604060002090565b55865180600080516020613979833981519152958693829190602083019252565b0390a383519283523092602090a351308152602081019290925260408201929092529081906060820190565b0390a1565b8551633a94626760e11b8152600490fd5b84516363e00e3360e11b81526004810191909152602490fd5b61301f915060203d6020116109cd576109bf8183610421565b38612e6d565b60055490919061303d906001600160a01b0316610906565b604051631200453160e11b81523060048201526001600160a01b038481166024830152831660448201526064810185905290602090829060849082906000905af19081156109a0576000916131b5575b508061319b57506009544303613189577f1a2a22cb034d26d1854bdc6666a5b91fe25efbbb5dcad3b0355478d6f5c362a1916130c882612cbb565b93600019810361317a57506131746130eb6130e4865b84613808565b8096612801565b6130f786600b54612801565b90806131158660018060a01b03166000526010602052604060002090565b55600a546001600160a01b03861660009081526010602052604090206001015561313e82600b55565b866040519586958691959493909260809360a084019760018060a01b038092168552166020840152604083015260608201520152565b0390a190565b6130eb6130e4613174926130de565b60405163c9021e2f60e01b8152600490fd5b604051638c81362d60e01b81526004810191909152602490fd5b6131ce915060203d6020116109cd576109bf8183610421565b3861308d565b919060018060a01b036011541690813b156103975760405163a9059cbb60e01b81526001600160a01b0394909416600485015260248401526000929083908290604490829084905af180156109a05761329a575b503d801561328f5760201461323b575080fd5b90602081803e515b1561324a57565b60405162461bcd60e51b815260206004820152601960248201527f544f4b454e5f5452414e534645525f4f55545f4641494c4544000000000000006044820152606490fd5b509050600019613243565b6132a3906103ec565b38613228565b156132b057565b60405162461bcd60e51b815260206004820152603460248201527f6f6e65206f662072656465656d546f6b656e73496e206f722072656465656d416044820152736d6f756e74496e206d757374206265207a65726f60601b6064820152608490fd5b9190826040910312610397576020825192015190565b1561332f57565b60405162461bcd60e51b815260206004820152603360248201527f4c49515549444154455f434f4d5054524f4c4c45525f43414c43554c4154455f604482015272105353d5539517d4d152569157d19052531151606a1b6064820152608490fd5b1561339757565b60405162461bcd60e51b815260206004820152601860248201527f4c49515549444154455f5345495a455f544f4f5f4d55434800000000000000006044820152606490fd5b156133e357565b60405162461bcd60e51b81526020600482015260146024820152731d1bdad95b881cd95a5e9d5c994819985a5b195960621b6044820152606490fd5b600554929391929091906001600160a01b03166001600160a01b031660408051632fe3f38f60e11b8152306004808301919091526001600160a01b039485166024830181905286861660448401528786166064840152608483018990529097909460209283818060a4810103816000809a5af19081156109a057869161379f575b508061378357506009544303613773578351636c540baf60e01b815283818b818a5afa9081156109a0578691613756575b5043036137465780871690881614613736578015613726576000198114613716576134fd908787613025565b600554909390613515906001600160a01b0316610906565b835163c488847b60e01b815230818b019081526001600160a01b03881660208201526040810187905290999185918b91908290819060600103915afa9889156109a0578290839a6136e4575b5061356c9015613328565b83516370a0823160e01b81526001600160a01b03891682820190815284908290819060200103818a5afa9081156109a0576135b2918b9185916136c7575b501015613390565b30860361362457505050918591612fd7936135f07f298637f684da70674f26509b10f07ec2fbc77a335ab1e7d6215a4b2484d8bb5298888830612dfb565b516001600160a01b0395861681529585166020870152604086015290921660608401526080830191909152819060a0820190565b835163b2a02ff160e01b81526001600160a01b0380891692820192835289166020830152604082018a905298929592949293919086908a908190606001038184885af180156109a0577f298637f684da70674f26509b10f07ec2fbc77a335ab1e7d6215a4b2484d8bb5299612fd7976136a593926136aa575b5050156133dc565b6135f0565b6136c09250803d106109cd576109bf8183610421565b388061369d565b6136de9150863d88116109cd576109bf8183610421565b386135aa565b61356c9a506137099150853d871161370f575b6137018183610421565b810190613312565b99613561565b503d6136f7565b8251635982c5bb60e11b81528890fd5b825163d29da7ef60e01b81528890fd5b8251631bd1a62160e21b81528890fd5b8351631046f38d60e31b81528990fd5b61376d9150843d86116109cd576109bf8183610421565b386134d1565b83516380965b1b60e01b81528990fd5b8451630a14d17960e11b8152808b019182529081906020010390fd5b6137b69150843d86116109cd576109bf8183610421565b386134a0565b156137c357565b60405162461bcd60e51b815260206004820152601860248201527f544f4b454e5f5452414e534645525f494e5f4641494c454400000000000000006044820152606490fd5b6011546040516370a0823160e01b80825230600483015260209491936001600160a01b03909316929091908585602481875afa9485156109a057600095613929575b50833b15610397576040516323b872dd60e01b81526001600160a01b03919091166004820152306024820152604481019190915260008160648183875af180156109a057613916575b503d84811561390857506020146138a957600080fd5b8390816000803e6138bb6000516137bc565b60405190815230600482015291829060249082905afa9081156109a057610818936000926138eb575b5050612801565b6139019250803d106109cd576109bf8183610421565b38806138e4565b9190506138bb6000196137bc565b8061099a613923926103ec565b38613893565b613941919550863d88116109cd576109bf8183610421565b933861384a565b5115612a0657600090565b670de0b6b3a764000090818102918183041490151715610c19576108189151906129fc56feddf252ad1be2c89b69c2b068fc378daa952ba7f163c4a11628f55a4df523b3efa2646970667358221220e422e3d2cd769d52c6c3a395bdbe424bab1b88273f8518f47f58150e48be363064736f6c63430008170033",
    "linkReferences": {}
  },
  "methodIdentifiers": {
    "NO_ERROR()": "69ab3250",
    "_acceptAdmin()": "e9c714f2",
    "_addReserves(uint256)": "3e941010",
    "_becomeImplementation(bytes)": "56e67728",
    "_delegateCompLikeTo(address)": "7f1e06be",
    "_reduceReserves(uint256)": "601a0bf1",
    "_resignImplementation()": "153ab505",
    "_setComptroller(address)": "4576b5db",
    "_setInterestRateModel(address)": "f2b3abbd",
    "_setPendingAdmin(address)": "b71d1a0c",
    "_setReserveFactor(uint256)": "fca7820b",
    "accrualBlockNumber()": "6c540baf",
    "accrueInterest()": "a6afed95",
    "admin()": "f851a440",
    "allowance(address,address)": "dd62ed3e",
    "approve(address,uint256)": "095ea7b3",
    "balanceOf(address)": "70a08231",
    "balanceOfUnderlying(address)": "3af9e669",
    "borrow(uint256)": "c5ebeaec",
    "borrowBalanceCurrent(address)": "17bfdfbc",
    "borrowBalanceStored(address)": "95dd9193",
    "borrowIndex()": "aa5af0fd",
    "borrowRatePerBlock()": "f8f9da28",
    "comptroller()": "5fe3b567",
    "decimals()": "313ce567",
    "exchangeRateCurrent()": "bd6d894d",
    "exchangeRateStored()": "182df0f5",
    "getAccountSnapshot(address)": "c37f68e2",
    "getCash()": "3b1d21a2",
    "implementation()": "5c60da1b",
    "initialize(address,address,address,uint256,string,string,uint8)": "1a31d465",
    "initialize(address,address,uint256,string,string,uint8)": "99d8c1b4",
    "interestRateModel()": "f3fdb15a",
    "isCToken()": "fe9c44ae",
    "liquidateBorrow(address,uint256,address)": "f5e3c462",
    "mint(uint256)": "a0712d68",
    "name()": "06fdde03",
    "pendingAdmin()": "26782247",
    "protocolSeizeShareMantissa()": "6752e702",
    "redeem(uint256)": "db006a75",
    "redeemUnderlying(uint256)": "852a12e3",
    "repayBorrow(uint256)": "0e752702",
    "repayBorrowBehalf(address,uint256)": "2608f818",
    "reserveFactorMantissa()": "173b9904",
    "seize(address,address,uint256)": "b2a02ff1",
    "supplyRatePerBlock()": "ae9d70b0",
    "sweepToken(address)": "1be19560",
    "symbol()": "95d89b41",
    "totalBorrows()": "47bd3718",
    "totalBorrowsCurrent()": "73acee98",
    "totalReserves()": "8f840ddd",
    "totalSupply()": "18160ddd",
    "transfer(address,uint256)": "a9059cbb",
    "transferFrom(address,address,uint256)": "23b872dd",
    "underlying()": "6f307dc3"
  },
  "id": 1
}