{
  "abi": [
    {
      "anonymous": false,
      "inputs": [
        {
          "indexed": false,
          "internalType": "address",
          "name": "asset",
          "type": "address"
        },
        {
          "indexed": false,
          "internalType": "uint256",
          "name": "previousPriceMantissa",
          "type": "uint256"
        },
        {
          "indexed": false,
          "internalType": "uint256",
          "name": "requestedPriceMantissa",
          "type": "uint256"
        },
        {
          "indexed": false,
          "internalType": "uint256",
          "name": "newPriceMantissa",
          "type": "uint256"
        }
      ],
      "name": "PricePosted",
      "type": "event"
    },
    {
      "inputs": [
        {
          "internalType": "address",
          "name": "asset",
          "type": "address"
        }
      ],
      "name": "assetPrices",
      "outputs": [
        {
          "internalType": "uint256",
          "name": "",
          "type": "uint256"
        }
      ],
      "stateMutability": "view",
      "type": "function"
    },
    {
      "inputs": [
        {
          "internalType": "contract CToken",
          "name": "cToken",
          "type": "address"
        }
      ],
      "name": "getUnderlyingPrice",
      "outputs": [
        {
          "internalType": "uint256",
          "name": "",
          "type": "uint256"
        }
      ],
      "stateMutability": "view",
      "type": "function"
    },
    {
      "inputs": [],
      "name": "isPriceOracle",
      "outputs": [
        {
          "internalType": "bool",
          "name": "",
          "type": "bool"
        }
      ],
      "stateMutability": "view",
      "type": "function"
    },
    {
      "inputs": [
        {
          "internalType": "address",
          "name": "asset",
          "type": "address"
        },
        {
          "internalType": "uint256",
          "name": "price",
          "type": "uint256"
        }
      ],
      "name": "setDirectPrice",
      "outputs": [],
      "stateMutability": "nonpayable",
      "type": "function"
    },
    {
      "inputs": [
        {
          "internalType": "contract CToken",
          "name": "cToken",
          "type": "address"
        },
        {
          "internalType": "uint256",
          "name": "underlyingPriceMantissa",
          "type": "uint256"
        }
      ],
      "name": "setUnderlyingPrice",
      "outputs": [],
      "stateMutability": "nonpayable",
      "type": "function"
    }
  ],
  "bytecode": {
    "object": "0x608080604052346100165761047a908161001c8239f35b600080fdfe60806040818152600436101561001457600080fd5b600091823560e01c90816309a8acb01461016557508063127ffda0146100dc5780635e9a523c146100b557806366331bba1461009a5763fc57d4df1461005957600080fd5b346100965760203660031901126100965760209181906001600160a01b036100876100826101de565b610254565b16815280845220549051908152f35b5080fd5b50346100965781600319360112610096576020905160018152f35b50346100965760203660031901126100965760209181906001600160a01b036100876101de565b50346100965780600319360112610096576100f56101de565b9061010260243592610254565b6001600160a01b031680845260208481528285205483518381529182015260408101849052606081018490527fdd71a1d19fcba687442a1d5c58578f1e409af71a79d10fd95a4d66efd8fa9ae79080608081015b0390a183528260205282205580f35b919050346101da57806003193601126101da576101806101de565b6001600160a01b0316808452602084815282852054828552908401526024356040840181905260608401819052927fdd71a1d19fcba687442a1d5c58578f1e409af71a79d10fd95a4d66efd8fa9ae7908060808101610156565b8280fd5b600435906001600160a01b03821682036101f457565b600080fd5b90601f8019910116810190811067ffffffffffffffff82111761021b57604052565b634e487b7160e01b600052604160045260246000fd5b60005b8381106102445750506000910152565b8181015183820152602001610234565b604080516395d89b4160e01b815290916001600160a01b03916000918316908281600481855afa90811561043a5783916103ac575b50845185810181811067ffffffffffffffff8211176103985786526004815260209182820190630c68aa8960e31b825287516102e18582816102d48183019687815193849201610231565b81010380845201826101f9565b519020916102ff84895180936102d483830196879251928391610231565b5190200361032457505050505073eeeeeeeeeeeeeeeeeeeeeeeeeeeeeeeeeeeeeeee90565b80600492865193848092636f307dc360e01b82525afa94851561038f57508294610350575b5050505090565b908092939450813d8311610388575b61036981836101f9565b8101031261009657519182168203610385575038808080610349565b80fd5b503d61035f565b513d84823e3d90fd5b634e487b7160e01b85526041600452602485fd5b90503d8084833e6103bd81836101f9565b81019060208183031261043657805167ffffffffffffffff91828211610432570182601f8201121561042e57805191821161039857865192610409601f8401601f1916602001856101f9565b8284526020838301011161042e57906104289160208085019101610231565b38610289565b8480fd5b8580fd5b8380fd5b85513d85823e3d90fdfea26469706673582212206aa85cf7ba638f99cac7edfb850e79a0448373ca10340e6df477b9a194c15edf64736f6c63430008170033",
    "linkReferences": {}
  },
  "methodIdentifiers": {
    "assetPrices(address)": "5e9a523c",
    "getUnderlyingPrice(address)": "fc57d4df",
    "isPriceOracle()": "66331bba",
    "setDirectPrice(address,uint256)": "09a8acb0",
    "setUnderlyingPrice(address,uint256)": "127ffda0"
  },
  "id": 15
}