{"abi":[{"type":"function","name":"underlying","inputs":[],"outputs":[{"name":"","type":"address","internalType":"address"}],"stateMutability":"view"}],"bytecode":{"object":"0x6080604052348015600f57600080fd5b5060918061001e6000396000f3fe6080604052348015600f57600080fd5b506004361060285760003560e01c80636f307dc314602d575b600080fd5b600054603f906001600160a01b031681565b6040516001600160a01b03909116815260200160405180910390f3fea2646970667358221220a4a1106d464fde01d73035d70109f3a075f4a1fb9b94acd5001d728642986e8264736f6c63430008150033","linkReferences":{}},"methodIdentifiers":{"underlying()":"6f307dc3"},"id":1}