{"abi":[{"type":"constructor","inputs":[],"stateMutability":"nonpayable"},{"type":"function","name":"_become","inputs":[{"name":"unitroller","type":"address","internalType":"contract Unitroller"}],"outputs":[],"stateMutability":"nonpayable"},{"type":"function","name":"_borrowGuardianPaused","inputs":[],"outputs":[{"name":"","type":"bool","internalType":"bool"}],"stateMutability":"view"},{"type":"function","name":"_grantComp","inputs":[{"name":"recipient","type":"address","internalType":"address"},{"name":"amount","type":"uint256","internalType":"uint256"}],"outputs":[],"stateMutability":"nonpayable"},{"type":"function","name":"_mintGuardianPaused","inputs":[],"outputs":[{"name":"","type":"bool","internalType":"bool"}],"stateMutability":"view"},{"type":"function","name":"_setBorrowCapGuardian","inputs":[{"name":"newBorrowCapGuardian","type":"address","internalType":"address"}],"outputs":[],"stateMutability":"nonpayable"},{"type":"function","name":"_setBorrowPaused","inputs":[{"name":"cToken","type":"address","internalType":"contract CToken"},{"name":"state","type":"bool","internalType":"bool"}],"outputs":[{"name":"","type":"bool","internalType":"bool"}],"stateMutability":"nonpayable"},{"type":"function","name":"_setCloseFactor","inputs":[{"name":"newCloseFactorMantissa","type":"uint256","internalType":"uint256"}],"outputs":[{"name":"","type":"uint256","internalType":"uint256"}],"stateMutability":"nonpayable"},{"type":"function","name":"_setCollateralFactor","inputs":[{"name":"cToken","type":"address","internalType":"contract CToken"},{"name":"newCollateralFactorMantissa","type":"uint256","internalType":"uint256"}],"outputs":[{"name":"","type":"uint256","internalType":"uint256"}],"stateMutability":"nonpayable"},{"type":"function","name":"_setCompSpeed","inputs":[{"name":"cToken","type":"address","internalType":"contract CToken"},{"name":"compSpeed","type":"uint256","internalType":"uint256"}],"outputs":[],"stateMutability":"nonpayable"},{"type":"function","name":"_setContributorCompSpeed","inputs":[{"name":"contributor","type":"address","internalType":"address"},{"name":"compSpeed","type":"uint256","internalType":"uint256"}],"outputs":[],"stateMutability":"nonpayable"},{"type":"function","name":"_setLiquidationIncentive","inputs":[{"name":"newLiquidationIncentiveMantissa","type":"uint256","internalType":"uint256"}],"outputs":[{"name":"","type":"uint256","internalType":"uint256"}],"stateMutability":"nonpayable"},{"type":"function","name":"_setMarketBorrowCaps","inputs":[{"name":"cTokens","type":"address[]","internalType":"contract CToken[]"},{"name":"newBorrowCaps","type":"uint256[]","internalType":"uint256[]"}],"outputs":[],"stateMutability":"nonpayable"},{"type":"function","name":"_setMintPaused","inputs":[{"name":"cToken","type":"address","internalType":"contract CToken"},{"name":"state","type":"bool","internalType":"bool"}],"outputs":[{"name":"","type":"bool","internalType":"bool"}],"stateMutability":"nonpayable"},{"type":"function","name":"_setPauseGuardian","inputs":[{"name":"newPauseGuardian","type":"address","internalType":"address"}],"outputs":[{"name":"","type":"uint256","internalType":"uint256"}],"stateMutability":"nonpayable"},{"type":"function","name":"_setPriceOracle","inputs":[{"name":"newOracle","type":"address","internalType":"contract PriceOracle"}],"outputs":[{"name":"","type":"uint256","internalType":"uint256"}],"stateMutability":"nonpayable"},{"type":"function","name":"_setSeizePaused","inputs":[{"name":"state","type":"bool","internalType":"bool"}],"outputs":[{"name":"","type":"bool","internalType":"bool"}],"stateMutability":"nonpayable"},{"type":"function","name":"_setTransferPaused","inputs":[{"name":"state","type":"bool","internalType":"bool"}],"outputs":[{"name":"","type":"bool","internalType":"bool"}],"stateMutability":"nonpayable"},{"type":"function","name":"_supportMarket","inputs":[{"name":"cToken","type":"address","internalType":"contract CToken"}],"outputs":[{"name":"","type":"uint256","internalType":"uint256"}],"stateMutability":"nonpayable"},{"type":"function","name":"accountAssets","inputs":[{"name":"","type":"address","internalType":"address"},{"name":"","type":"uint256","internalType":"uint256"}],"outputs":[{"name":"","type":"address","internalType":"contract CToken"}],"stateMutability":"view"},{"type":"function","name":"admin","inputs":[],"outputs":[{"name":"","type":"address","internalType":"address"}],"stateMutability":"view"},{"type":"function","name":"allMarkets","inputs":[{"name":"","type":"uint256","internalType":"uint256"}],"outputs":[{"name":"","type":"address","internalType":"contract CToken"}],"stateMutability":"view"},{"type":"function","name":"borrowAllowed","inputs":[{"name":"cToken","type":"address","internalType":"address"},{"name":"borrower","type":"address","internalType":"address"},{"name":"borrowAmount","type":"uint256","internalType":"uint256"}],"outputs":[{"name":"","type":"uint256","internalType":"uint256"}],"stateMutability":"nonpayable"},{"type":"function","name":"borrowCapGuardian","inputs":[],"outputs":[{"name":"","type":"address","internalType":"address"}],"stateMutability":"view"},{"type":"function","name":"borrowCaps","inputs":[{"name":"","type":"address","internalType":"address"}],"outputs":[{"name":"","type":"uint256","internalType":"uint256"}],"stateMutability":"view"},{"type":"function","name":"borrowGuardianPaused","inputs":[{"name":"","type":"address","internalType":"address"}],"outputs":[{"name":"","type":"bool","internalType":"bool"}],"stateMutability":"view"},{"type":"function","name":"borrowVerify","inputs":[{"name":"cToken","type":"address","internalType":"address"},{"name":"borrower","type":"address","internalType":"address"},{"name":"borrowAmount","type":"uint256","internalType":"uint256"}],"outputs":[],"stateMutability":"nonpayable"},{"type":"function","name":"checkMembership","inputs":[{"name":"account","type":"address","internalType":"address"},{"name":"cToken","type":"address","internalType":"contract CToken"}],"outputs":[{"name":"","type":"bool","internalType":"bool"}],"stateMutability":"view"},{"type":"function","name":"claimComp","inputs":[{"name":"holder","type":"address","internalType":"address"},{"name":"cTokens","type":"address[]","internalType":"contract CToken[]"}],"outputs":[],"stateMutability":"nonpayable"},{"type":"function","name":"claimComp","inputs":[{"name":"holders","type":"address[]","internalType":"address[]"},{"name":"cTokens","type":"address[]","internalType":"contract CToken[]"},{"name":"borrowers","type":"bool","internalType":"bool"},{"name":"suppliers","type":"bool","internalType":"bool"}],"outputs":[],"stateMutability":"nonpayable"},{"type":"function","name":"claimComp","inputs":[{"name":"holder","type":"address","internalType":"address"}],"outputs":[],"stateMutability":"nonpayable"},{"type":"function","name":"closeFactorMantissa","inputs":[],"outputs":[{"name":"","type":"uint256","internalType":"uint256"}],"stateMutability":"view"},{"type":"function","name":"compAccrued","inputs":[{"name":"","type":"address","internalType":"address"}],"outputs":[{"name":"","type":"uint256","internalType":"uint256"}],"stateMutability":"view"},{"type":"function","name":"compBorrowState","inputs":[{"name":"","type":"address","internalType":"address"}],"outputs":[{"name":"index","type":"uint224","internalType":"uint224"},{"name":"block","type":"uint32","internalType":"uint32"}],"stateMutability":"view"},{"type":"function","name":"compBorrowerIndex","inputs":[{"name":"","type":"address","internalType":"address"},{"name":"","type":"address","internalType":"address"}],"outputs":[{"name":"","type":"uint256","internalType":"uint256"}],"stateMutability":"view"},{"type":"function","name":"compContributorSpeeds","inputs":[{"name":"","type":"address","internalType":"address"}],"outputs":[{"name":"","type":"uint256","internalType":"uint256"}],"stateMutability":"view"},{"type":"function","name":"compInitialIndex","inputs":[],"outputs":[{"name":"","type":"uint224","internalType":"uint224"}],"stateMutability":"view"},{"type":"function","name":"compRate","inputs":[],"outputs":[{"name":"","type":"uint256","internalType":"uint256"}],"stateMutability":"view"},{"type":"function","name":"compSpeeds","inputs":[{"name":"","type":"address","internalType":"address"}],"outputs":[{"name":"","type":"uint256","internalType":"uint256"}],"stateMutability":"view"},{"type":"function","name":"compSupplierIndex","inputs":[{"name":"","type":"address","internalType":"address"},{"name":"","type":"address","internalType":"address"}],"outputs":[{"name":"","type":"uint256","internalType":"uint256"}],"stateMutability":"view"},{"type":"function","name":"compSupplyState","inputs":[{"name":"","type":"address","internalType":"address"}],"outputs":[{"name":"index","type":"uint224","internalType":"uint224"},{"name":"block","type":"uint32","internalType":"uint32"}],"stateMutability":"view"},{"type":"function","name":"comptrollerImplementation","inputs":[],"outputs":[{"name":"","type":"address","internalType":"address"}],"stateMutability":"view"},{"type":"function","name":"enterMarkets","inputs":[{"name":"cTokens","type":"address[]","internalType":"address[]"}],"outputs":[{"name":"","type":"uint256[]","internalType":"uint256[]"}],"stateMutability":"nonpayable"},{"type":"function","name":"exitMarket","inputs":[{"name":"cTokenAddress","type":"address","internalType":"address"}],"outputs":[{"name":"","type":"uint256","internalType":"uint256"}],"stateMutability":"nonpayable"},{"type":"function","name":"getAccountLiquidity","inputs":[{"name":"account","type":"address","internalType":"address"}],"outputs":[{"name":"","type":"uint256","internalType":"uint256"},{"name":"","type":"uint256","internalType":"uint256"},{"name":"","type":"uint256","internalType":"uint256"}],"stateMutability":"view"},{"type":"function","name":"getAllMarkets","inputs":[],"outputs":[{"name":"","type":"address[]","internalType":"contract CToken[]"}],"stateMutability":"view"},{"type":"function","name":"getAssetsIn","inputs":[{"name":"account","type":"address","internalType":"address"}],"outputs":[{"name":"","type":"address[]","internalType":"contract CToken[]"}],"stateMutability":"view"},{"type":"function","name":"getBlockNumber","inputs":[],"outputs":[{"name":"","type":"uint256","internalType":"uint256"}],"stateMutability":"view"},{"type":"function","name":"getCompAddress","inputs":[],"outputs":[{"name":"","type":"address","internalType":"address"}],"stateMutability":"view"},{"type":"function","name":"getHypotheticalAccountLiquidity","inputs":[{"name":"account","type":"address","internalType":"address"},{"name":"cTokenModify","type":"address","internalType":"address"},{"name":"redeemTokens","type":"uint256","internalType":"uint256"},{"name":"borrowAmount","type":"uint256","internalType":"uint256"}],"outputs":[{"name":"","type":"uint256","internalType":"uint256"},{"name":"","type":"uint256","internalType":"uint256"},{"name":"","type":"uint256","internalType":"uint256"}],"stateMutability":"view"},{"type":"function","name":"isComptroller","inputs":[],"outputs":[{"name":"","type":"bool","internalType":"bool"}],"stateMutability":"view"},{"type":"function","name":"lastContributorBlock","inputs":[{"name":"","type":"address","internalType":"address"}],"outputs":[{"name":"","type":"uint256","internalType":"uint256"}],"stateMutability":"view"},{"type":"function","name":"liquidateBorrowAllowed","inputs":[{"name":"cTokenBorrowed","type":"address","internalType":"address"},{"name":"cTokenCollateral","type":"address","internalType":"address"},{"name":"liquidator","type":"address","internalType":"address"},{"name":"borrower","type":"address","internalType":"address"},{"name":"repayAmount","type":"uint256","internalType":"uint256"}],"outputs":[{"name":"","type":"uint256","internalType":"uint256"}],"stateMutability":"nonpayable"},{"type":"function","name":"liquidateBorrowVerify","inputs":[{"name":"cTokenBorrowed","type":"address","internalType":"address"},{"name":"cTokenCollateral","type":"address","internalType":"address"},{"name":"liquidator","type":"address","internalType":"address"},{"name":"borrower","type":"address","internalType":"address"},{"name":"actualRepayAmount","type":"uint256","internalType":"uint256"},{"name":"seizeTokens","type":"uint256","internalType":"uint256"}],"outputs":[],"stateMutability":"nonpayable"},{"type":"function","name":"liquidateCalculateSeizeTokens","inputs":[{"name":"cTokenBorrowed","type":"address","internalType":"address"},{"name":"cTokenCollateral","type":"address","internalType":"address"},{"name":"actualRepayAmount","type":"uint256","internalType":"uint256"}],"outputs":[{"name":"","type":"uint256","internalType":"uint256"},{"name":"","type":"uint256","internalType":"uint256"}],"stateMutability":"view"},{"type":"function","name":"liquidationIncentiveMantissa","inputs":[],"outputs":[{"name":"","type":"uint256","internalType":"uint256"}],"stateMutability":"view"},{"type":"function","name":"markets","inputs":[{"name":"","type":"address","internalType":"address"}],"outputs":[{"name":"isListed","type":"bool","internalType":"bool"},{"name":"collateralFactorMantissa","type":"uint256","internalType":"uint256"},{"name":"isComped","type":"bool","internalType":"bool"}],"stateMutability":"view"},{"type":"function","name":"maxAssets","inputs":[],"outputs":[{"name":"","type":"uint256","internalType":"uint256"}],"stateMutability":"view"},{"type":"function","name":"mintAllowed","inputs":[{"name":"cToken","type":"address","internalType":"address"},{"name":"minter","type":"address","internalType":"address"},{"name":"mintAmount","type":"uint256","internalType":"uint256"}],"outputs":[{"name":"","type":"uint256","internalType":"uint256"}],"stateMutability":"nonpayable"},{"type":"function","name":"mintGuardianPaused","inputs":[{"name":"","type":"address","internalType":"address"}],"outputs":[{"name":"","type":"bool","internalType":"bool"}],"stateMutability":"view"},{"type":"function","name":"mintVerify","inputs":[{"name":"cToken","type":"address","internalType":"address"},{"name":"minter","type":"address","internalType":"address"},{"name":"actualMintAmount","type":"uint256","internalType":"uint256"},{"name":"mintTokens","type":"uint256","internalType":"uint256"}],"outputs":[],"stateMutability":"nonpayable"},{"type":"function","name":"oracle","inputs":[],"outputs":[{"name":"","type":"address","internalType":"contract PriceOracle"}],"stateMutability":"view"},{"type":"function","name":"pauseGuardian","inputs":[],"outputs":[{"name":"","type":"address","internalType":"address"}],"stateMutability":"view"},{"type":"function","name":"pendingAdmin","inputs":[],"outputs":[{"name":"","type":"address","internalType":"address"}],"stateMutability":"view"},{"type":"function","name":"pendingComptrollerImplementation","inputs":[],"outputs":[{"name":"","type":"address","internalType":"address"}],"stateMutability":"view"},{"type":"function","name":"redeemAllowed","inputs":[{"name":"cToken","type":"address","internalType":"address"},{"name":"redeemer","type":"address","internalType":"address"},{"name":"redeemTokens","type":"uint256","internalType":"uint256"}],"outputs":[{"name":"","type":"uint256","internalType":"uint256"}],"stateMutability":"nonpayable"},{"type":"function","name":"redeemVerify","inputs":[{"name":"cToken","type":"address","internalType":"address"},{"name":"redeemer","type":"address","internalType":"address"},{"name":"redeemAmount","type":"uint256","internalType":"uint256"},{"name":"redeemTokens","type":"uint256","internalType":"uint256"}],"outputs":[],"stateMutability":"nonpayable"},{"type":"function","name":"repayBorrowAllowed","inputs":[{"name":"cToken","type":"address","internalType":"address"},{"name":"payer","type":"address","internalType":"address"},{"name":"borrower","type":"address","internalType":"address"},{"name":"repayAmount","type":"uint256","internalType":"uint256"}],"outputs":[{"name":"","type":"uint256","internalType":"uint256"}],"stateMutability":"nonpayable"},{"type":"function","name":"repayBorrowVerify","inputs":[{"name":"cToken","type":"address","internalType":"address"},{"name":"payer","type":"address","internalType":"address"},{"name":"borrower","type":"address","internalType":"address"},{"name":"actualRepayAmount","type":"uint256","internalType":"uint256"},{"name":"borrowerIndex","type":"uint256","internalType":"uint256"}],"outputs":[],"stateMutability":"nonpayable"},{"type":"function","name":"seizeAllowed","inputs":[{"name":"cTokenCollateral","type":"address","internalType":"address"},{"name":"cTokenBorrowed","type":"address","internalType":"address"},{"name":"liquidator","type":"address","internalType":"address"},{"name":"borrower","type":"address","internalType":"address"},{"name":"seizeTokens","type":"uint256","internalType":"uint256"}],"outputs":[{"name":"","type":"uint256","internalType":"uint256"}],"stateMutability":"nonpayable"},{"type":"function","name":"seizeGuardianPaused","inputs":[],"outputs":[{"name":"","type":"bool","internalType":"bool"}],"stateMutability":"view"},{"type":"function","name":"seizeVerify","inputs":[{"name":"cTokenCollateral","type":"address","internalType":"address"},{"name":"cTokenBorrowed","type":"address","internalType":"address"},{"name":"liquidator","type":"address","internalType":"address"},{"name":"borrower","type":"address","internalType":"address"},{"name":"seizeTokens","type":"uint256","internalType":"uint256"}],"outputs":[],"stateMutability":"nonpayable"},{"type":"function","name":"transferAllowed","inputs":[{"name":"cToken","type":"address","internalType":"address"},{"name":"src","type":"address","internalType":"address"},{"name":"dst","type":"address","internalType":"address"},{"name":"transferTokens","type":"uint256","internalType":"uint256"}],"outputs":[{"name":"","type":"uint256","internalType":"uint256"}],"stateMutability":"nonpayable"},{"type":"function","name":"transferGuardianPaused","inputs":[],"outputs":[{"name":"","type":"bool","internalType":"bool"}],"stateMutability":"view"},{"type":"function","name":"transferVerify","inputs":[{"name":"cToken","type":"address","internalType":"address"},{"name":"src","type":"address","internalType":"address"},{"name":"dst","type":"address","internalType":"address"},{"name":"transferTokens","type":"uint256","internalType":"uint256"}],"outputs":[],"stateMutability":"nonpayable"},{"type":"function","name":"updateContributorRewards","inputs":[{"name":"contributor","type":"address","internalType":"address"}],"outputs":[],"stateMutability":"nonpayable"},{"type":"event","name":"ActionPaused","inputs":[{"name":"action","type":"string","indexed":false,"internalType":"string"},{"name":"pauseState","type":"bool","indexed":false,"internalType":"bool"}],"anonymous":false},{"type":"event","name":"ActionPaused","inputs":[{"name":"cToken","type":"address","indexed":false,"internalType":"contract CToken"},{"name":"action","type":"string","indexed":false,"internalType":"string"},{"name":"pauseState","type":"bool","indexed":false,"internalType":"bool"}],"anonymous":false},{"type":"event","name":"CompGranted","inputs":[{"name":"recipient","type":"address","indexed":false,"internalType":"address"},{"name":"amount","type":"uint256","indexed":false,"internalType":"uint256"}],"anonymous":false},{"type":"event","name":"CompSpeedUpdated","inputs":[{"name":"cToken","type":"address","indexed":true,"internalType":"contract CToken"},{"name":"newSpeed","type":"uint256","indexed":false,"internalType":"uint256"}],"anonymous":false},{"type":"event","name":"ContributorCompSpeedUpdated","inputs":[{"name":"contributor","type":"address","indexed":true,"internalType":"address"},{"name":"newSpeed","type":"uint256","indexed":false,"internalType":"uint256"}],"anonymous":false},{"type":"event","name":"DistributedBorrowerComp","inputs":[{"name":"cToken","type":"address","indexed":true,"internalType":"contract CToken"},{"name":"borrower","type":"address","indexed":true,"internalType":"address"},{"name":"compDelta","type":"uint256","indexed":false,"internalType":"uint256"},{"name":"compBorrowIndex","type":"uint256","indexed":false,"internalType":"uint256"}],"anonymous":false},{"type":"event","name":"DistributedSupplierComp","inputs":[{"name":"cToken","type":"address","indexed":true,"internalType":"contract CToken"},{"name":"supplier","type":"address","indexed":true,"internalType":"address"},{"name":"compDelta","type":"uint256","indexed":false,"internalType":"uint256"},{"name":"compSupplyIndex","type":"uint256","indexed":false,"internalType":"uint256"}],"anonymous":false},{"type":"event","name":"Failure","inputs":[{"name":"error","type":"uint256","indexed":false,"internalType":"uint256"},{"name":"info","type":"uint256","indexed":false,"internalType":"uint256"},{"name":"detail","type":"uint256","indexed":false,"internalType":"uint256"}],"anonymous":false},{"type":"event","name":"MarketEntered","inputs":[{"name":"cToken","type":"address","indexed":false,"internalType":"contract CToken"},{"name":"account","type":"address","indexed":false,"internalType":"address"}],"anonymous":false},{"type":"event","name":"MarketExited","inputs":[{"name":"cToken","type":"address","indexed":false,"internalType":"contract CToken"},{"name":"account","type":"address","indexed":false,"internalType":"address"}],"anonymous":false},{"type":"event","name":"MarketListed","inputs":[{"name":"cToken","type":"address","indexed":false,"internalType":"contract CToken"}],"anonymous":false},{"type":"event","name":"NewBorrowCap","inputs":[{"name":"cToken","type":"address","indexed":true,"internalType":"contract CToken"},{"name":"newBorrowCap","type":"uint256","indexed":false,"internalType":"uint256"}],"anonymous":false},{"type":"event","name":"NewBorrowCapGuardian","inputs":[{"name":"oldBorrowCapGuardian","type":"address","indexed":false,"internalType":"address"},{"name":"newBorrowCapGuardian","type":"address","indexed":false,"internalType":"address"}],"anonymous":false},{"type":"event","name":"NewCloseFactor","inputs":[{"name":"oldCloseFactorMantissa","type":"uint256","indexed":false,"internalType":"uint256"},{"name":"newCloseFactorMantissa","type":"uint256","indexed":false,"internalType":"uint256"}],"anonymous":false},{"type":"event","name":"NewCollateralFactor","inputs":[{"name":"cToken","type":"address","indexed":false,"internalType":"contract CToken"},{"name":"oldCollateralFactorMantissa","type":"uint256","indexed":false,"internalType":"uint256"},{"name":"newCollateralFactorMantissa","type":"uint256","indexed":false,"internalType":"uint256"}],"anonymous":false},{"type":"event","name":"NewLiquidationIncentive","inputs":[{"name":"oldLiquidationIncentiveMantissa","type":"uint256","indexed":false,"internalType":"uint256"},{"name":"newLiquidationIncentiveMantissa","type":"uint256","indexed":false,"internalType":"uint256"}],"anonymous":false},{"type":"event","name":"NewPauseGuardian","inputs":[{"name":"oldPauseGuardian","type":"address","indexed":false,"internalType":"address"},{"name":"newPauseGuardian","type":"address","indexed":false,"internalType":"address"}],"anonymous":false},{"type":"event","name":"NewPriceOracle","inputs":[{"name":"oldPriceOracle","type":"address","indexed":false,"internalType":"contract PriceOracle"},{"name":"newPriceOracle","type":"address","indexed":false,"internalType":"contract PriceOracle"}],"anonymous":false}],"bytecode":{"object":"0x6080806040523461002857600080546001600160a01b03191633179055615539908161002e8239f35b600080fdfe608080604052600436101561001357600080fd5b60003560e01c9081627e3dd214611f885750806318c882a514611e835780631c3db2e014611e465780631d504dc614611ccf5780631d7b33d714611c955780631ededc9114611c6a57806321af456914611c4157806324008a6214611c2557806324a3d62214611bfc5780632678224714611bd357806327efe3cb14611acd5780632d70db78146119fc578063317b0b771461194e578063391957d71461186e5780633bcf7ec11461176b5780633c94786f1461174557806341c728b91461173757806342cbb15c1461171c578063434caf25146113ef57806347ef3b3b146113af5780634a584432146113755780634ada90af146113575780634e79238f146113345780634ef4c3e11461131a5780634fd42e17146112fc57806351dff9891461129957806352d84d1e1461125757806355ee1fe114611228578063598ee1cb1461116f5780635c778605146111615780635ec88c79146111145780635f5af1aa146110f15780635fc7e71e146110d4578063607ef6c114610f1f5780636810dfa614610c515780636a56947e14610c435780636b79c38d14610bf15780636d154ea514610bb25780636d35bf9114610ba4578063731f0c2b14610b65578063741b252514610b445780637dc0d1d014610b1b57806387f7630314610af55780638c57804e14610aa35780638e8f294b14610a485780638ebf636414610974578063929fe9a11461091c57806394b2294b146108fe578063986ab838146108c45780639d1b5a0a14610895578063a76b3fda14610872578063a7f0e23114610849578063aa9007541461082b578063abfceffc146107f1578063ac0b0bb7146107cb578063b0772d0b1461079f578063b21be7fd1461074e578063bb82aa5e14610725578063bdcdc25814610709578063bea6b8b8146106cf578063c2998238146105c8578063c488847b146105a3578063ca0af04314610552578063cc7ebdc414610518578063d02f7351146104fb578063da3d454c146104e2578063dce1544914610489578063dcfbc0c714610460578063e4028eee14610439578063e6653f3d14610413578063e8755446146103f5578063e9af0292146103c9578063eabe7d91146103b0578063ede4edd0146103855763f851a4401461035757600080fd5b34610380576000366003190112610380576000546040516001600160a01b039091168152602090f35b600080fd5b346103805760203660031901126103805760206103a86103a3611fa2565b6125b4565b604051908152f35b346103805760206103a86103c33661219b565b91612906565b34610380576020366003190112610380576103f36103e5611fa2565b6103ed61235f565b90614f37565b005b34610380576000366003190112610380576020600554604051908152f35b3461038057600036600319011261038057602060ff600a5460a81c166040519015158152f35b346103805760403660031901126103805760206103a8610457611fa2565b60243590614256565b34610380576000366003190112610380576003546040516001600160a01b039091168152602090f35b34610380576040366003190112610380576104a2611fa2565b6024359060018060a01b03809116600052600860205260406000208054831015610380576020926104d29161221d565b9190546040519260031b1c168152f35b346103805760206103a86104f53661219b565b916129bd565b346103805760206103a861050e36612235565b5092919091612f0f565b34610380576020366003190112610380576001600160a01b03610539611fa2565b1660005260146020526020604060002054604051908152f35b346103805760403660031901126103805761056b611fa2565b610573611fb8565b9060018060a01b038091166000526013602052604060002091166000526020526020604060002054604051908152f35b346103805760406105bc6105b63661219b565b91613fa2565b82519182526020820152f35b34610380576020806003193601126103805760043567ffffffffffffffff8111610380576105fa9036906004016122b5565b8051610605816120a3565b906106136040519283612081565b80825261061f816120a3565b8285019390601f190136853760005b8281106106795750505090604051928392818401908285525180915260408401929160005b82811061066257505050500390f35b835185528695509381019392810192600101610653565b610696336001600160a01b0361068f8486612454565b5116612468565b9060128210156106b9576106b4916106ae8287612454565b5261242f565b61062e565b634e487b7160e01b600052602160045260246000fd5b34610380576020366003190112610380576001600160a01b036106f0611fa2565b1660005260186020526020604060002054604051908152f35b346103805760206103a861071c36612121565b92919091613084565b34610380576000366003190112610380576002546040516001600160a01b039091168152602090f35b3461038057604036600319011261038057610767611fa2565b61076f611fb8565b9060018060a01b038091166000526012602052604060002091166000526020526020604060002054604051908152f35b34610380576000366003190112610380576107c76107bb61235f565b6040519182918261231b565b0390f35b3461038057600036600319011261038057602060ff600a5460b81c166040519015158152f35b34610380576020366003190112610380576001600160a01b03610812611fa2565b1660005260086020526107c76107bb60406000206123d7565b34610380576000366003190112610380576020600e54604051908152f35b346103805760003660031901126103805760206040516a0c097ce7bc90715b34b9f160241b8152f35b346103805760203660031901126103805760206103a8610890611fa2565b6144c4565b3461038057600036600319011261038057602060405173c00e94cb662c3520282e6f5717214004a7f268888152f35b34610380576020366003190112610380576001600160a01b036108e5611fa2565b1660005260176020526020604060002054604051908152f35b34610380576000366003190112610380576020600754604051908152f35b3461038057604036600319011261038057610935611fa2565b6001600160a01b0380610946611fb8565b16600052600960205260026040600020019116600052602052602060ff604060002054166040519015158152f35b3461038057602036600319011261038057602061098f611ff1565b600a54906001600160a01b0333818416148015610a3b575b6109b0906147c1565b6000541633148015610a2f575b6109c69061481d565b15159060ff60b01b8260b01b169060ff60b01b191617600a557fef159d9a32b2472e32b098f954f3ce62d232939f1c207070b584df1814de2de060806040516040815260086040820152672a3930b739b332b960c11b60608201528385820152a1604051908152f35b508015156001146109bd565b50600054811633146109a7565b34610380576020366003190112610380576001600160a01b03610a69611fa2565b1660005260096020526060604060002060ff8154169060ff6003600183015492015416906040519215158352602083015215156040820152f35b34610380576020366003190112610380576001600160a01b03610ac4611fa2565b166000908152601160209081526040918290205482516001600160e01b038216815260e09190911c91810191909152f35b3461038057600036600319011261038057602060ff600a5460b01c166040519015158152f35b34610380576000366003190112610380576004546040516001600160a01b039091168152602090f35b34610380576020366003190112610380576103f3610b60611fa2565b614eaf565b34610380576020366003190112610380576001600160a01b03610b86611fa2565b16600052600b602052602060ff604060002054166040519015158152f35b34610380576103f336612235565b34610380576020366003190112610380576001600160a01b03610bd3611fa2565b16600052600c602052602060ff604060002054166040519015158152f35b34610380576020366003190112610380576001600160a01b03610c12611fa2565b166000908152601060209081526040918290205482516001600160e01b038216815260e09190911c91810191909152f35b34610380576103f336612121565b346103805760803660031901126103805767ffffffffffffffff60043581811161038057610c839036906004016122b5565b602491823590811161038057610c9d9036906004016120bb565b90604435801515809103610380576064908135918215158093036103805760005b85518110156103f3576001600160a01b03610cd98288612454565b511680600052600960205260ff6040600020541615610ee45760018414610dcb575b60018514610d13575b50610d0e9061242f565b610cbe565b9692610d23889793959297614862565b60005b8651811015610dbc57610db790610d506001600160a01b03610d48838b612454565b51168b614b9c565b6001600160a01b03610d62828a612454565b51166001600160a01b03610d76838b612454565b5116600052610d9160149182602052604060002054906151cc565b906001600160a01b03610da4848c612454565b511660005260205260406000205561242f565b610d26565b50929650929094610d0e610d04565b96909293956040519463aa5af0fd60e01b86526020866004818c5afa958615610ed857600096610ea4575b5060405195610e0487612048565b8652610e10868a614a7a565b60005b8751811015610e9757610e9290610e3e886001600160a01b03610e36848d612454565b51168d614d17565b6001600160a01b03610e50828b612454565b51166001600160a01b03610e64838c612454565b5116600052610e7f60149182602052604060002054906151cc565b906001600160a01b03610da4848d612454565b610e13565b5093919790969450610cfb565b9095506020813d602011610ed0575b81610ec060209383612081565b8101031261038057519489610df6565b3d9150610eb3565b6040513d6000823e3d90fd5b60405162461bcd60e51b8152602060048201526015818a0152741b585c9ad95d081b5d5cdd081899481b1a5cdd1959605a1b60448201528390fd5b346103805760403660031901126103805767ffffffffffffffff60043581811161038057610f51903690600401612284565b9160243590811161038057610f6a903690600401612284565b9260018060a01b03928360005416331480156110c7575b15611064578115158061105b575b156110265760005b828110610fa057005b80610faf6110219288876146a1565b3586610fc4610fbf8488886146a1565b6146b1565b16600052602090601682526040600020557f6f1951b2aad10f3fc81b86d91105b413a5b3f847a34bbc5ce1904201b14438f6611004610fbf8488886146a1565b9188611011858c8b6146a1565b35936040519485521692a261242f565b610f97565b60405162461bcd60e51b815260206004820152600d60248201526c1a5b9d985b1a59081a5b9c1d5d609a1b6044820152606490fd5b50848214610f8f565b60405162461bcd60e51b815260206004820152603560248201527f6f6e6c792061646d696e206f7220626f72726f772063617020677561726469616044820152746e2063616e2073657420626f72726f77206361707360581b6064820152608490fd5b5083601554163314610f81565b346103805760206103a86110e736612235565b9390929150612dbf565b346103805760203660031901126103805760206103a861110f611fa2565b6146c5565b3461038057602036600319011261038057611135611130611fa2565b6130f5565b601283929310156106b9576107c790604051938493846040919493926060820195825260208201520152565b34610380576103f33661219b565b3461038057604036600319011261038057611188611fa2565b7f386537fa92edc3319af95f1f904dcf1900021e4f3f4e08169a577a09076e66b36020602435926111bf6111ba6152c3565b6152e9565b6111c881614eaf565b83611209576001600160a01b03811660009081526018835260408120555b6001600160a01b03166000818152601783526040908190208590555193845292a2005b6001600160a01b038116600090815260188352604090204390556111e6565b34610380576020366003190112610380576004356001600160a01b0381168103610380576103a86020916141c0565b3461038057602036600319011261038057600435600d54811015610380576112806020916121d0565b905460405160039290921b1c6001600160a01b03168152f35b34610380576112a736612162565b1592509050816112f2575b506112b957005b60405162461bcd60e51b815260206004820152601160248201527072656465656d546f6b656e73207a65726f60781b6044820152606490fd5b90501515816112b2565b346103805760203660031901126103805760206103a8600435614431565b346103805760206103a861132d3661219b565b5090612879565b346103805761113561134536612162565b9290916001600160a01b031690613c7c565b34610380576000366003190112610380576020600654604051908152f35b34610380576020366003190112610380576001600160a01b03611396611fa2565b1660005260166020526020604060002054604051908152f35b346103805760c0366003190112610380576113c8611fa2565b506113d1611fb8565b506113da612000565b506064356001600160a01b0381160361038057005b3461038057604036600319011261038057611408611fa2565b602435906114176111ba6152c3565b6001600160a01b03166000818152600f60209081526040909120549192918281156114fa575060405163aa5af0fd60e01b8152908282600481885afa8015610ed85784926000916114c6575b506040516114859161147482612048565b815261147f87614862565b86614a7a565b0361148c57005b7f2ab93f65628379309f36cb125e90d7c902454a545c4f8b8cb0794af75c24b8079183600052600f825280604060002055604051908152a2005b809350848092503d83116114f3575b6114df8183612081565b810103126103805761148584925190611463565b503d6114d5565b90811561148557905060098252600160ff604060002054161515036116d75760008481526010835260409020548391906001600160e01b03908181161590816116cb575b5061161e575b60118452604060002054818116159081611612575b50611565575b50611485565b61160c906115ae60405161157881612016565b601c81527f626c6f636b206e756d6265722065786365656473203332206269747300000000878201526401000000004310615355565b63ffffffff604051916115c083612016565b6a0c097ce7bc90715b34b9f160241b835243821687840190815260008a81526011895260409020935190516001600160e01b039190921616911660e01b6001600160e01b031916179055565b8561155f565b905060e01c1587611559565b61166360405161162d81612016565b601c81527f626c6f636b206e756d6265722065786365656473203332206269747300000000868201526401000000004310615355565b6116c663ffffffff6040519061167882612016565b6a0c097ce7bc90715b34b9f160241b825243811687830190815260008a81526010895260409020925190516001600160e01b0391861691909116911660e01b6001600160e01b031916179055565b611544565b905060e01c158761153e565b60405162461bcd60e51b815260048101839052601960248201527f636f6d70206d61726b6574206973206e6f74206c6973746564000000000000006044820152606490fd5b34610380576000366003190112610380576020604051438152f35b34610380576103f336612162565b3461038057600036600319011261038057602060ff600a5460a01c166040519015158152f35b34610380576040366003190112610380576020611786611fa2565b7f71aec636243f9709bb0007ae15e9afb8150ab01716d75fd7573be5cc096e03b060a06117b1611fe2565b600180831b038094169384600052600986526117d460ff60406000205416614764565b80600a541633148015611861575b6117eb906147c1565b6000541633148015611855575b6118019061481d565b83600052600b85526118238160406000209060ff801983541691151516179055565b6040519384526060858501526004606085015263135a5b9d60e21b6080850152151592836040820152a1604051908152f35b508015156001146117f8565b50600054811633146117e2565b3461038057602036600319011261038057611887611fa2565b6000546001600160a01b0390811633036118fa57601580548383166001600160a01b031982161790915560408051929091166001600160a01b03908116835290921660208201527feda98690e518e9a05f8ec6837663e188211b2da8f4906648b323f2c1d4434e2991819081015b0390a1005b60405162461bcd60e51b815260206004820152602660248201527f6f6e6c792061646d696e2063616e2073657420626f72726f772063617020677560448201526530b93234b0b760d11b6064820152608490fd5b3461038057602036600319011261038057600054600435906001600160a01b031633036119b75760407f3b9670cf975d26958e754b57098eaa2ac914d8d2a31b83257997b9f346110fd991600554908060055582519182526020820152a1602060405160008152f35b60405162461bcd60e51b815260206004820152601f60248201527f6f6e6c792061646d696e2063616e2073657420636c6f736520666163746f72006044820152606490fd5b34610380576020366003190112610380576020611a17611ff1565b600a54906001600160a01b0333818416148015611ac0575b611a38906147c1565b6000541633148015611ab4575b611a4e9061481d565b15159060ff60b81b8260b81b169060ff60b81b191617600a557fef159d9a32b2472e32b098f954f3ce62d232939f1c207070b584df1814de2de060806040516040815260056040820152645365697a6560d81b60608201528385820152a1604051908152f35b50801515600114611a45565b5060005481163314611a2f565b3461038057604036600319011261038057611ae6611fa2565b602435611af16152c3565b15611b8e57611b0081836151cc565b611b4957604080516001600160a01b03909316835260208301919091527f98b2f82a3a07f223a0be64b3d0f47711c64dccd1feafb94aa28156b38cd9695c9190819081016118f5565b60405162461bcd60e51b815260206004820152601b60248201527f696e73756666696369656e7420636f6d7020666f72206772616e7400000000006044820152606490fd5b60405162461bcd60e51b815260206004820152601960248201527f6f6e6c792061646d696e2063616e206772616e7420636f6d70000000000000006044820152606490fd5b34610380576000366003190112610380576001546040516001600160a01b039091168152602090f35b3461038057600036600319011261038057600a546040516001600160a01b039091168152602090f35b346103805760206103a8611c3836612121565b50919050612d1a565b34610380576000366003190112610380576015546040516001600160a01b039091168152602090f35b346103805760a036600319011261038057611c83611fa2565b50611c8c611fb8565b506103f3612000565b34610380576020366003190112610380576001600160a01b03611cb6611fa2565b16600052600f6020526020604060002054604051908152f35b3461038057602080600319360112610380576004356001600160a01b0381811691829003610380576040516303e1469160e61b81528381600481865afa908115610ed857600091611e10575b50163303611dbb578160009160046040518094819363307a00cd60e21b83525af1908115610ed857600091611d8e575b50611d5257005b6064906040519062461bcd60e51b82526004820152601560248201527418da185b99d9481b9bdd08185d5d1a1bdc9a5e9959605a1b6044820152fd5b90508181813d8311611db4575b611da58183612081565b81010312610380575182611d4b565b503d611d9b565b60405162461bcd60e51b815260048101839052602760248201527f6f6e6c7920756e6974726f6c6c65722061646d696e2063616e206368616e676560448201526620627261696e7360c81b6064820152608490fd5b90508381813d8311611e3f575b611e278183612081565b81010312610380575181811681036103805784611d1b565b503d611e1d565b3461038057604036600319011261038057611e5f611fa2565b6024359067ffffffffffffffff8211610380576103ed6103f39236906004016120bb565b34610380576040366003190112610380576020611e9e611fa2565b7f71aec636243f9709bb0007ae15e9afb8150ab01716d75fd7573be5cc096e03b060a0611ec9611fe2565b600180831b03809416938460005260098652611eec60ff60406000205416614764565b80600a541633148015611f7b575b611f03906147c1565b6000541633148015611f6f575b611f199061481d565b83600052600c8552611f3b8160406000209060ff801983541691151516179055565b6040519384526060858501526006606085015265426f72726f7760d01b6080850152151592836040820152a1604051908152f35b50801515600114611f10565b5060005481163314611efa565b346103805760003660031901126103805780600160209252f35b600435906001600160a01b038216820361038057565b602435906001600160a01b038216820361038057565b35906001600160a01b038216820361038057565b60243590811515820361038057565b60043590811515820361038057565b604435906001600160a01b038216820361038057565b6040810190811067ffffffffffffffff82111761203257604052565b634e487b7160e01b600052604160045260246000fd5b6020810190811067ffffffffffffffff82111761203257604052565b610140810190811067ffffffffffffffff82111761203257604052565b90601f8019910116810190811067ffffffffffffffff82111761203257604052565b67ffffffffffffffff81116120325760051b60200190565b9080601f830112156103805760209082356120d5816120a3565b936120e36040519586612081565b818552838086019260051b820101928311610380578301905b82821061210a575050505090565b83809161211684611fce565b8152019101906120fc565b6080906003190112610380576001600160a01b0360043581811681036103805791602435828116810361038057916044359081168103610380579060643590565b6080906003190112610380576001600160a01b039060043582811681036103805791602435908116810361038057906044359060643590565b6060906003190112610380576001600160a01b0390600435828116810361038057916024359081168103610380579060443590565b600d5481101561220757600d6000527fd7b6990105719101dabeb77144f2a3385c8033acd3af97e9423a695e81ad1eb50190600090565b634e487b7160e01b600052603260045260246000fd5b80548210156122075760005260206000200190600090565b60a0906003190112610380576001600160a01b03906004358281168103610380579160243581811681036103805791604435828116810361038057916064359081168103610380579060843590565b9181601f840112156103805782359167ffffffffffffffff8311610380576020808501948460051b01011161038057565b9080601f830112156103805760209082356122cf816120a3565b936122dd6040519586612081565b818552838086019260051b820101928311610380578301905b828210612304575050505090565b83809161231084611fce565b8152019101906122f6565b6020908160408183019282815285518094520193019160005b828110612342575050505090565b83516001600160a01b031685529381019392810192600101612334565b60405190600d548083528260209182820190600d6000527fd7b6990105719101dabeb77144f2a3385c8033acd3af97e9423a695e81ad1eb5936000905b8282106123b4575050506123b292500383612081565b565b85546001600160a01b03168452600195860195889550938101939091019061239c565b9060405191828154918282526020928383019160005283600020936000905b82821061240c575050506123b292500383612081565b85546001600160a01b0316845260019586019588955093810193909101906123f6565b600019811461243e5760010190565b634e487b7160e01b600052601160045260246000fd5b80518210156122075760209160051b010190565b6001600160a01b0380821660009081526009602052604081208054919493929160ff161561255e576002918416855201602052604083208054600160ff82161515146125575760ff19166001179055600860205260408320805490600160401b8210156125435782612506836125249360017f3ab23ab0d51cccc0c3085aec51f99228625aa1a922b3a8ca89a26b0f2027a1a598979601815561221d565b90919060018060a01b038084549260031b9316831b921b1916179055565b604080516001600160a01b03928316815292909116602083015290a190565b634e487b7160e01b85526041600452602485fd5b5050505090565b5050505050600990565b9190826080910312610380578151916020810151916060604083015192015190565b1561259157565b634e487b7160e01b600052600160045260246000fd5b9190820391821161243e57565b604080516361bfb47160e11b81523360048201526001600160a01b0383811693909190608082602481885afa801561286e57600080938192612838575b506127e6576127b6579061260691339061292b565b8061278a5750826000526009602052600282600020013360005260205281600020805460ff8116156127805760ff191690556008602052612649826000206123d7565b928351928360005b818110612753575b508461266a9293949596501061258a565b33600052600860205280600020928354946000199586810190811161243e576126c9918361269b6126a5938961221d565b939054928961221d565b92909360031b1c169060018060a01b038084549260031b9316831b921b1916179055565b835493841561273d577fe699a64c18b07ac5b7301aa273f36a2287239eb9501d81950672794afba29a0d95612735950191612704838361221d565b815460039190911b9290921b19909116905555516001600160a01b0390911681523360208201529081906040820190565b0390a1600090565b634e487b7160e01b600052603160045260246000fd5b838561275f838a612454565b5116146127745761276f9061242f565b612651565b90955093508438612659565b5050505050600090565b8251600e81526003602082015292830152506000805160206154e48339815191529150606090a1600e90565b5050506000805160206154e483398151915291508060006060925191600c835260026020840152820152a1600c90565b845162461bcd60e51b815260206004820152602560248201527f657869744d61726b65743a206765744163636f756e74536e617073686f742066604482015264185a5b195960da1b6064820152608490fd5b91505061285d91925060803d8111612867575b6128558183612081565b810190612568565b50909291386125f1565b503d61284b565b84513d6000823e3d90fd5b6001600160a01b0381166000818152600b602052604090205491929160ff166128d057600052600960205260ff60406000205416156128c957816128bf6128c493614862565b614b9c565b600090565b5050600990565b60405162461bcd60e51b815260206004820152600e60248201526d1b5a5b9d081a5cc81c185d5cd95960921b6044820152606490fd5b9161291290828461292b565b9182612926576128c492506128bf81614862565b505090565b6001600160a01b03908116600081815260096020526040812080549195939160ff16156129b257600291851686520160205260ff604085205416156129ac5761297392613458565b91905060128110156129985780612992575061298c5790565b50600490565b91505090565b634e487b7160e01b83526021600452602483fd5b50505090565b505050505050600990565b9291909260018060a01b039384821691600093838552602093600c855260409160ff8388205416612ce3578187526009865282872060ff81541615612cd55760028a871691828a5201875260ff848920541615612c32575b50600498895416868360248c8751948593849263fc57d4df60e01b84528301525afa908115612c28578891612bf7575b5015612bea57818752601686528287205480612b30575b50612a6890828661378f565b9190506012811015612b1d5780612b125750612b0a57849082519889809263aa5af0fd60e01b82525afa938415612b00578594612ac7575b50612ac4949596505192612ab384612048565b8352612abf8382614a7a565b614d17565b90565b90935086813d8311612af9575b612ade8183612081565b81010312612af55794519394859492612ac4612aa0565b8380fd5b503d612ad4565b81513d87823e3d90fd5b505050505050565b985050505050505050565b634e487b7160e01b885260218a52602488fd5b83516308f7a6e360e31b815287818c81875afa8015612be05783908a90612bab575b612b5c92506153eb565b1015612b685738612a5c565b825162461bcd60e51b8152808a01879052601960248201527f6d61726b657420626f72726f77206361702072656163686564000000000000006044820152606490fd5b50508781813d8311612bd9575b612bc28183612081565b81010312612bd55782612b5c9151612b52565b8880fd5b503d612bb8565b85513d8b823e3d90fd5b50600d9750505050505050565b90508681813d8311612c21575b612c0e8183612081565b81010312612c1d575138612a45565b8780fd5b503d612c04565b84513d8a823e3d90fd5b823303612c9957612c438633612468565b6012811015612c855780612c795750828852600987526002848920019088528652612c7360ff848920541661258a565b38612a15565b99505050505050505050565b634e487b7160e01b89526021600452602489fd5b835162461bcd60e51b815260048101889052601560248201527439b2b73232b91036bab9ba1031329031aa37b5b2b760591b6044820152606490fd5b506009985050505050505050565b825162461bcd60e51b815260048101879052601060248201526f189bdc9c9bddc81a5cc81c185d5cd95960821b6044820152606490fd5b6001600160a01b03811660008181526009602052604081205490939060ff1615612db65760206004926040519384809263aa5af0fd60e01b82525afa918215612dab578492612d76575b50612ac49260405192612ab384612048565b9091506020813d8211612da3575b81612d9160209383612081565b81010312612af5575190612ac4612d64565b3d9150612d84565b6040513d86823e3d90fd5b50505050600990565b90929160018060a01b038092169160009483865260096020528160ff60408820541615918215612edc575b505061255e57612df982613a6e565b9190506012811015612ec85780612ebe575015612eb457602460209260405194859384926395dd919360e01b84521660048301525afa908115612ea9578391612e72575b50612e62670de0b6b3a76400009160055460405190612e5b82612048565b8152615449565b510410612e6c5790565b50601190565b90506020813d8211612ea1575b81612e8c60209383612081565b81010312612e9d5751612e62612e3d565b8280fd5b3d9150612e7f565b6040513d85823e3d90fd5b5050505050600390565b9550505050505090565b634e487b7160e01b87526021600452602487fd5b16865250604085205460ff16158138612dea565b9081602091031261038057516001600160a01b03811681036103805790565b9291909260ff600a5460b81c1661304d5760018060a01b038082169060009582875260206009815260409160ff838a20541615801561303a575b61302c578251948286600481635fe3b56760e01b948582525afa958615613022578a96612ff7575b5091809160048694865195869384928352165afa928315612fee5750908392918992612fc1575b505016911603612fb8576128bf612ac493612fb283614862565b82614b9c565b50505050600290565b612fe09250803d10612fe7575b612fd88183612081565b810190612ef0565b3880612f98565b503d612fce565b513d8a823e3d90fd5b8392908392975061301760049188963d8611612fe757612fd88183612081565b979250509192612f71565b84513d8c823e3d90fd5b505050505050505050600990565b50838116895260ff838a20541615612f49565b60405162461bcd60e51b815260206004820152600f60248201526e1cd95a5e99481a5cc81c185d5cd959608a1b6044820152606490fd5b909260ff600a5460b01c166130bb5761309e90848361292b565b806130b457506128bf6128c493612fb283614862565b9250505090565b60405162461bcd60e51b81526020600482015260126024820152711d1c985b9cd9995c881a5cc81c185d5cd95960721b6044820152606490fd5b60405161310181612064565b6000815260006020820152600060408201526000606082015260006080820152600060a082015260405161313481612048565b6000815260c082015260405161314981612048565b6000815260e082015260405161315e81612048565b6000815261010082015260405161317481612048565b6000815261012082015260018060a01b038216600052600860205261319c60406000206123d7565b6004549092906001600160a01b031660005b8451811015613415576001600160a01b036131c98287612454565b516040516361bfb47160e11b81526001600160a01b038616600482015291169190608081602481865afa8015610ed8576000916000916000916000916133f2575b506080890152606088015260408701526133e1578160005260096020526001604060002001546040519061323d82612048565b815260c086015260808501516040519061325682612048565b815260e086015260405163fc57d4df60e01b81526004810183905291602083602481875afa928315610ed8576000936133ad575b508260a0870152821561339b57604051613332936132a782612048565b81526101008701526132d16132c560c088015160e089015190615415565b61010088015190615415565b806101208801526132ff6040880151918851906132f8670de0b6b3a7640000948592615449565b51046153eb565b875261331e610100880151826132f860608b015160208c015193615449565b9182602089015215613337575b505061242f565b6131ae565b61337161338f928261335d6101208b0151600060405161335681612048565b5251615463565b8060405161336a81612048565b52046153eb565b9081602089015261335d610100890151600060405161335681612048565b6020860152388061332b565b50505050505050600d90600090600090565b9092506020813d6020116133d9575b816133c960209383612081565b810103126103805751913861328a565b3d91506133bc565b505050505050600f90600090600090565b9250505061340f915060803d608011612867576128558183612081565b3861320a565b50505090508051602082015180821160001461344557505080602061343e9251910151906125a7565b6000918290565b61344f92506125a7565b60009160009190565b916040519161346683612064565b6000835260006020840152600060408401526000606084015260006080840152600060a084015260405161349981612048565b6000815260c08401526040516134ae81612048565b6000815260e08401526040516134c381612048565b600081526101008401526040516134d981612048565b6000815261012084015260018060a01b038416600052600860205261350160406000206123d7565b6004549094906001600160a01b031660005b8651811015613764576001600160a01b0361352e8289612454565b516040516361bfb47160e11b81526001600160a01b038616600482015291169190608081602481865afa8015610ed857600091600091600091600091613741575b5060808b015260608a0152604089015261372e57816000526009602052600160406000200154604051906135a282612048565b815260c08801526080870151604051906135bb82612048565b815260e088015260405163fc57d4df60e01b815260048101839052602081602481875afa908115610ed8576000916136fc575b508060a089015280156136e8576136a19287916040519061360e82612048565b81526101008a01528861363961362d60c083015160e084015190615415565b61010083015190615415565b91826101208301526136616040830151938351906132f8670de0b6b3a7640000968792615449565b8252613680610100830151846132f86060860151602087015193615449565b60208301819052906001600160a01b038a16146136a6575b5050505061242f565b613513565b826132f86136da956101206136bc950151615449565b908160208b015261335d6101008b0151600060405161335681612048565b602088015285388881613698565b505050505050505050600d90600090600090565b90506020813d602011613726575b8161371760209383612081565b810103126103805751386135ee565b3d915061370a565b5050505050505050600f90600090600090565b9250505061375e915060803d608011612867576128558183612081565b3861356f565b505050505090508051602082015180821160001461344557505080602061343e9251910151906125a7565b6040519161379c83612064565b6000835260006020840152600060408401526000606084015260006080840152600060a08401526040516137cf81612048565b6000815260c08401526040516137e481612048565b6000815260e08401526040516137f981612048565b6000815261010084015260405161380f81612048565b6000815261012084015260018060a01b038216600052600860205261383760406000206123d7565b6004549094906001600160a01b031660005b8651811015613764576001600160a01b036138648289612454565b516040516361bfb47160e11b81526001600160a01b038816600482015291169190608081602481865afa8015610ed857600091600091600091600091613a4b575b5060808b015260608a0152604089015261372e57816000526009602052600160406000200154604051906138d882612048565b815260c08801526080870151604051906138f182612048565b815260e088015260405163fc57d4df60e01b81526004810183905291602083602481875afa928315610ed857600093613a17575b508260a089015282156136e8576040516139d19361394282612048565b815261010089015261396c61396060c08a015160e08b015190615415565b6101008a015190615415565b806101208a015261399360408a0151918a51906132f8670de0b6b3a7640000948592615449565b89526139b36101008a0151826132f88c6020606082015191015193615449565b60208a01819052916001600160a01b038816146139d657505061242f565b613849565b6139f5613a0b928261335d6101208d0151600060405161335681612048565b908160208b01526132f8876101008c0151615449565b6020880152388061332b565b9092506020813d602011613a43575b81613a3360209383612081565b8101031261038057519138613925565b3d9150613a26565b92505050613a68915060803d608011612867576128558183612081565b386138a5565b604051613a7a81612064565b6000815260006020820152600060408201526000606082015260006080820152600060a0820152604051613aad81612048565b6000815260c0820152604051613ac281612048565b6000815260e0820152604051613ad781612048565b60008152610100820152604051613aed81612048565b6000815261012082015260018060a01b0382166000526008602052613b1560406000206123d7565b6004549092906001600160a01b031660005b8451811015613415576001600160a01b03613b428287612454565b516040516361bfb47160e11b81526001600160a01b038616600482015291169190608081602481865afa8015610ed857600091600091600091600091613c59575b506080890152606088015260408701526133e15781600052600960205260016040600020015460405190613bb682612048565b815260c0860152608085015160405190613bcf82612048565b815260e086015260405163fc57d4df60e01b81526004810183905291602083602481875afa928315610ed857600093613c25575b508260a0870152821561339b57604051613c20936132a782612048565b613b27565b9092506020813d602011613c51575b81613c4160209383612081565b8101031261038057519138613c03565b3d9150613c34565b92505050613c76915060803d608011612867576128558183612081565b38613b83565b929160405192613c8b84612064565b6000845260006020850152600060408501526000606085015260006080850152600060a0850152604051613cbe81612048565b6000815260c0850152604051613cd381612048565b6000815260e0850152604051613ce881612048565b60008152610100850152604051613cfe81612048565b6000815261012085015260018060a01b0385166000526008602052613d2660406000206123d7565b6004549095906001600160a01b031660005b8751811015613f76576001600160a01b03613d53828a612454565b516040516361bfb47160e11b81526001600160a01b038616600482015291169190608081602481865afa8015610ed857600091600091600091600091613f53575b5060808c015260608b015260408a0152613f3f5781600052600960205260016040600020015460405190613dc782612048565b815260c0890152608088015160405190613de082612048565b815260e089015260405163fc57d4df60e01b815260048101839052602081602481875afa908115610ed857600091613f0d575b508060a08a01528015613ef857613eb992879160405190613e3382612048565b81526101008b015289613e5261362d60c083015160e084015190615415565b9182610120830152613e7a6040830151938351906132f8670de0b6b3a7640000968792615449565b8252613e99610100830151846132f86060860151602087015193615449565b60208301819052906001600160a01b038c1614613ebe575050505061242f565b613d38565b826132f8613eea95610120613ed4950151615449565b908160208c01526132f8886101008d0151615449565b602089015285388981613698565b50505050505050505050600d90600090600090565b90506020813d602011613f37575b81613f2860209383612081565b81010312610380575138613e13565b3d9150613f1b565b505050505050505050600f90600090600090565b92505050613f70915060803d608011612867576128558183612081565b38613d94565b50505050505090508051602082015180821160001461344557505080602061343e9251910151906125a7565b909160018060a01b038060045416936040938451928063fc57d4df60e01b9283865216600485015260209283856024818b5afa9485156141b557600095614186575b509083911691602487518099819382528560048301525afa95861561413657600096614157575b508215801561414f575b614141578160049186519283809263182df0f560e01b82525afa91821561413657600092614100575b50506140956140b0926000865161405481612048565b526000865161406281612048565b526000865161407081612048565b5260065486519061408082612048565b815286519161408e83612048565b8252615415565b948451906140a282612048565b815284519161408e83612048565b92600083516140be81612048565b525191670de0b6b3a7640000938484029380850486149015171561243e576140f7936140eb915190615335565b905190612e5b82612048565b51049060009190565b81819392933d831161412f575b6141178183612081565b8101031261412c5750516140956140b061403e565b80fd5b503d61410d565b85513d6000823e3d90fd5b505050505050600d90600090565b508515614015565b90958282813d831161417f575b61416e8183612081565b8101031261412c575051943861400b565b503d614164565b90948482813d83116141ae575b61419d8183612081565b8101031261412c5750519383613fe4565b503d614193565b87513d6000823e3d90fd5b6000546001600160a01b039081163303614228577fd52b2b9b7e9ee655fcb95d2e5b9e0c9f69e7ef2b8e9d2d0ea78402d576d22e229181604092600454921690816bffffffffffffffffffffffff60a01b8416176004558351921682526020820152a1600090565b50506000805160206154e48339815191526060604051600181526010602082015260006040820152a1600190565b6000805490926001600160a01b0392909183163303614402578216918284526020600981526040918286209060ff825416156143d457835161429781612048565b8581528451906142a682612048565b670c7d713b49da000080925251116143a657828515159182614334575b5050614307576001018054908490558251948552908401528201527f70483e6592cd5182d45ac970e05bc62cdcc90e9d8ef2c2dbe686cf383bcd7fc590606090a190565b50915060609250928360096000805160206154e4833981519152955193600d8552840152820152a1600d90565b602492506004541685519283809263fc57d4df60e01b82528a60048301525afa90811561439c57879161436b575b501582386142c3565b90508281813d8311614395575b6143828183612081565b81010312614391575138614362565b8680fd5b503d614378565b84513d89823e3d90fd5b5050915060609250928360086000805160206154e483398151915295519360068552840152820152a1600690565b5050915060609250928360076000805160206154e483398151915295519360098552840152820152a1600990565b50505060606000805160206154e4833981519152916040519060018252600660208301526040820152a1600190565b6000546001600160a01b0316330361447f5760407faeba5a6c40a8ac138134bff1aaa65debf25971188a58804bad717f82f0ec131691600654908060065582519182526020820152a1600090565b506000805160206154e4833981519152606060405160018152600b602082015260006040820152a1600190565b90816020910312610380575180151581036103805790565b600080546001600160a01b039392908416330361467157831680825260209060098252604060ff8185205416614645578051637f4e225760e11b81526004969084818981875afa801561463b5761460e575b508285526009845281852085600160ff1992818482541617815560039384820190815416905501558591600d54925b8381106145af57505050600160401b81101561459c577fcf583bb0c569eb967f806b11601c4cb93c10310485c67add5f8362c2f212321f94959650826125068260016145949401600d556121d0565b51908152a190565b634e487b7160e01b855260418752602485fd5b85826145ba836121d0565b905490861b1c16146145d4576145cf9061242f565b614545565b845162461bcd60e51b8152808b0188905260146024820152731b585c9ad95d08185b1c9958591e48185919195960621b6044820152606490fd5b61462d90853d8711614634575b6146258183612081565b8101906144ac565b5038614516565b503d61461b565b83513d88823e3d90fd5b6000805160206154e483398151915294955060609391506011815193600a8552840152820152a1600a90565b506000805160206154e48339815191529192506060906040519060018252601260208301526040820152a1600190565b91908110156122075760051b0190565b356001600160a01b03811681036103805790565b6000546001600160a01b03908116330361473657600a80549282166001600160a01b03198416811790915560408051929093166001600160a01b0390811683521660208201527f0613b6ee6a04f0d09f390e4d9318894b9f6ac7fd83897cd8d18896ba579c401e9181908101612735565b50506000805160206154e48339815191526060604051600181526013602082015260006040820152a1600190565b1561476b57565b60405162461bcd60e51b815260206004820152602860248201527f63616e6e6f742070617573652061206d61726b65742074686174206973206e6f6044820152671d081b1a5cdd195960c21b6064820152608490fd5b156147c857565b60405162461bcd60e51b815260206004820152602760248201527f6f6e6c7920706175736520677561726469616e20616e642061646d696e2063616044820152666e20706175736560c81b6064820152608490fd5b1561482457565b60405162461bcd60e51b81526020600482015260166024820152756f6e6c792061646d696e2063616e20756e706175736560501b6044820152606490fd5b60018060a01b0316906000828152602060108152604093848320600f83528584205495614893825460e01c436125a7565b8015158080614a71575b156149f9575081516318160ddd60e01b8152908582600481885afa9182156149ef5787926149be575b506123b297986148d591615472565b81156149a657614908916148e8916154aa565b925482516001600160e01b039491851661490182612048565b81526153bc565b519461494d825161491881612016565b601a81527f6e657720696e646578206578636565647320323234206269747300000000000087820152600160e01b8810615355565b61495b825161157881612016565b601063ffffffff95848451986149708a612016565b1688524387168189019081529583525220935191516001600160e01b039190921616911660e01b6001600160e01b031916179055565b505061490881516149b681612048565b8681526148e8565b9091508581813d83116149e8575b6149d68183612081565b810103126143915751906123b26148c6565b503d6149cc565b83513d89823e3d90fd5b935050929495509250614a0b57505050565b6123b2927f626c6f636b206e756d6265722065786365656473203332206269747300000000614a53925191614a3f83612016565b601c83528201526401000000004310615355565b80546001600160e01b03164360e01b6001600160e01b031916179055565b5088151561489d565b91909160018060a01b031660009080825260209060118252604080842090600f84528085205496614aaf835460e01c436125a7565b908115158080614b93575b15614b80575082516308f7a6e360e31b81528681600481895afa908115612c28578891614b51575b5098614af5614afb926123b29a9b615485565b92615472565b8115614b4157614b0e916148e8916154aa565b5194614b1e825161491881612016565b614b2c825161157881612016565b601163ffffffff95848451986149708a612016565b5050614b0e81516149b681612048565b90508681813d8311614b79575b614b688183612081565b81010312612c1d5751614af5614ae2565b503d614b5e565b94505050929495509250614a0b57505050565b50891515614aba565b6001600160a01b03908116600081815260106020908152604080832054815197969591939291906001600160e01b0316614bd589612048565b8852848352601282528383209516948583528152614c2783832054845190614bfc82612048565b815288518685526012845285852088865284528585205580511580614d0d575b614cf7575b886153f8565b9683516370a0823160e01b81528660048201528281602481895afa908115614ced578491614cbe575b50614c906a0c097ce7bc90715b34b9f160241b917f2caecd17d02f56fa897705dcc740da2d237c373f70686f4e0d9bd3bf0400ea7a9798999a5190615472565b04928781526014835284614ca785828420546153eb565b9189815260148552205551908351928352820152a3565b90508281813d8311614ce6575b614cd58183612081565b81010312612af55751614c90614c50565b503d614ccb565b85513d86823e3d90fd5b6a0c097ce7bc90715b34b9f160241b8152614c21565b5088511515614c1c565b6001600160a01b0390811660008181526011602090815260408083205481519798979495919491906001600160e01b0316614d5183612048565b825285845260138352848420961695868452825283832054845190614d7582612048565b81528151868552601384528585208886528452858520558051614d9e575b505050505050509050565b614da890826153f8565b9784516395dd919360e01b815287600482015283816024818a5afa908115614ea5578591614e54575b507f1fc3ecc087d8d2d15e23d0032af5a47059c3892d003d8e139fdcb6bb327c99a696979899614e136a0c097ce7bc90715b34b9f160241b93614e1b93615485565b905190615472565b04928781526014835284614e3285828420546153eb565b9189815260148552205551908351928352820152a38038808080808080614d93565b90508381813d8311614e9e575b614e6b8183612081565b81010312614e9a57517f1fc3ecc087d8d2d15e23d0032af5a47059c3892d003d8e139fdcb6bb327c99a6614dd1565b8480fd5b503d614e61565b86513d87823e3d90fd5b60018060a01b0316600090808252601760205260408220546018602052614eda6040842054436125a7565b80151580614f2e575b614eee575b50505050565b614f0d91614efb91615472565b828452601460205260408420546153eb565b90825260146020526040822055601860205260404391205538808080614ee8565b50811515614ee3565b906040908151614f4681612016565b6001928382526020948583019386368637835115612207576001600160a01b0391821690945291929091906000855b614f83575b50505050505050565b81518110156151c75782614f978284612454565b5116806000526009885260ff8560002054161561518b57845163aa5af0fd60e01b81528881600481855afa90811561518057600091615153575b5085518897969594939291614fe582612048565b8152614ff18183614a7a565b6000885b6150b6575b505061500581614862565b6000875b615023575b50506150199061242f565b9091929394614f75565b8697919293949596518110156150a9578061504d8761504561509c948c612454565b511685614b9c565b8a61507f8a8961506a85826150628286612454565b511693612454565b511660005260148093528a60002054906151cc565b908861508b848d612454565b51166000528c52886000205561242f565b8197969594939291615009565b819796959493925061500e565b958596888c819b9495969798849b51841015615141576151228461511c615133976150ef8b8d876150e7878c612454565b511690614d17565b846150fa8489612454565b51169085615108858a612454565b5116600052601480975260002054906151cc565b94612454565b51166000528d52896000205561242f565b819897969594939291614ff5565b50505050959493929181989750614ffa565b908982813d8311615179575b6151698183612081565b8101031261412c57505138614fd1565b503d61515f565b86513d6000823e3d90fd5b845162461bcd60e51b81526004810189905260156024820152741b585c9ad95d081b5d5cdd081899481b1a5cdd1959605a1b6044820152606490fd5b614f7a565b6040516370a0823160e01b81523060048201526020929173c00e94cb662c3520282e6f5717214004a7f26888918481602481865afa908115610ed857600091615296575b50831515908161528b575b50615227575050905090565b60405163a9059cbb60e01b81526001600160a01b0391909116600482015260248101929092528290829060449082906000905af18015610ed85761526d575b5050600090565b8161528392903d10614634576146258183612081565b503880615266565b90508311153861521b565b908582813d83116152bc575b6152ac8183612081565b8101031261412c57505138615210565b503d6152a2565b600054336001600160a01b03918216149081156152de575090565b905060025416331490565b156152f057565b60405162461bcd60e51b815260206004820152601d60248201527f6f6e6c792061646d696e2063616e2073657420636f6d702073706565640000006044820152606490fd5b811561533f570490565b634e487b7160e01b600052601260045260246000fd5b1561535d5750565b6040519062461bcd60e51b82528160208060048301528251908160248401526000935b8285106153a3575050604492506000838284010152601f80199101168101030190fd5b8481018201518686016044015293810193859350615380565b906153d99160006040516153cf81612048565b52519051906153eb565b604051906153e682612048565b815290565b9190820180921161243e57565b906153d991600060405161540b81612048565b52519051906125a7565b670de0b6b3a76400009161543b91600060405161543181612048565b5251905190615472565b04604051906153e682612048565b906153d991600060405161545c81612048565b5251615472565b90600160009215171561243e57565b8181029291811591840414171561243e57565b670de0b6b3a76400009081810291818304149015171561243e57612ac4915190615335565b9060006040516154b981612048565b526a0c097ce7bc90715b34b9f160241b9182810292818404149015171561243e576153d99161533556fe45b96fe442630264581b197e84bbada861235052c5a1aadfff9ea4e40a969aa0a26469706673582212209390cb46ab11554a8b36941b1682cb4ee55d1447eaa06df520fc3ad6d991b53164736f6c63430008150033","linkReferences":{}},"methodIdentifiers":{"_become(address)":"1d504dc6","_borrowGuardianPaused()":"e6653f3d","_grantComp(address,uint256)":"27efe3cb","_mintGuardianPaused()":"3c94786f","_setBorrowCapGuardian(address)":"391957d7","_setBorrowPaused(address,bool)":"18c882a5","_setCloseFactor(uint256)":"317b0b77","_setCollateralFactor(address,uint256)":"e4028eee","_setCompSpeed(address,uint256)":"434caf25","_setContributorCompSpeed(address,uint256)":"598ee1cb","_setLiquidationIncentive(uint256)":"4fd42e17","_setMarketBorrowCaps(address[],uint256[])":"607ef6c1","_setMintPaused(address,bool)":"3bcf7ec1","_setPauseGuardian(address)":"5f5af1aa","_setPriceOracle(address)":"55ee1fe1","_setSeizePaused(bool)":"2d70db78","_setTransferPaused(bool)":"8ebf6364","_supportMarket(address)":"a76b3fda","accountAssets(address,uint256)":"dce15449","admin()":"f851a440","allMarkets(uint256)":"52d84d1e","borrowAllowed(address,address,uint256)":"da3d454c","borrowCapGuardian()":"21af4569","borrowCaps(address)":"4a584432","borrowGuardianPaused(address)":"6d154ea5","borrowVerify(address,address,uint256)":"5c778605","checkMembership(address,address)":"929fe9a1","claimComp(address)":"e9af0292","claimComp(address,address[])":"1c3db2e0","claimComp(address[],address[],bool,bool)":"6810dfa6","closeFactorMantissa()":"e8755446","compAccrued(address)":"cc7ebdc4","compBorrowState(address)":"8c57804e","compBorrowerIndex(address,address)":"ca0af043","compContributorSpeeds(address)":"986ab838","compInitialIndex()":"a7f0e231","compRate()":"aa900754","compSpeeds(address)":"1d7b33d7","compSupplierIndex(address,address)":"b21be7fd","compSupplyState(address)":"6b79c38d","comptrollerImplementation()":"bb82aa5e","enterMarkets(address[])":"c2998238","exitMarket(address)":"ede4edd0","getAccountLiquidity(address)":"5ec88c79","getAllMarkets()":"b0772d0b","getAssetsIn(address)":"abfceffc","getBlockNumber()":"42cbb15c","getCompAddress()":"9d1b5a0a","getHypotheticalAccountLiquidity(address,address,uint256,uint256)":"4e79238f","isComptroller()":"007e3dd2","lastContributorBlock(address)":"bea6b8b8","liquidateBorrowAllowed(address,address,address,address,uint256)":"5fc7e71e","liquidateBorrowVerify(address,address,address,address,uint256,uint256)":"47ef3b3b","liquidateCalculateSeizeTokens(address,address,uint256)":"c488847b","liquidationIncentiveMantissa()":"4ada90af","markets(address)":"8e8f294b","maxAssets()":"94b2294b","mintAllowed(address,address,uint256)":"4ef4c3e1","mintGuardianPaused(address)":"731f0c2b","mintVerify(address,address,uint256,uint256)":"41c728b9","oracle()":"7dc0d1d0","pauseGuardian()":"24a3d622","pendingAdmin()":"26782247","pendingComptrollerImplementation()":"dcfbc0c7","redeemAllowed(address,address,uint256)":"eabe7d91","redeemVerify(address,address,uint256,uint256)":"51dff989","repayBorrowAllowed(address,address,address,uint256)":"24008a62","repayBorrowVerify(address,address,address,uint256,uint256)":"1ededc91","seizeAllowed(address,address,address,address,uint256)":"d02f7351","seizeGuardianPaused()":"ac0b0bb7","seizeVerify(address,address,address,address,uint256)":"6d35bf91","transferAllowed(address,address,address,uint256)":"bdcdc258","transferGuardianPaused()":"87f76303","transferVerify(address,address,address,uint256)":"6a56947e","updateContributorRewards(address)":"741b2525"},"id":5}