{"abi":[{"type":"constructor","inputs":[],"stateMutability":"nonpayable"},{"type":"function","name":"_become","inputs":[{"name":"unitroller","type":"address","internalType":"contract Unitroller"}],"outputs":[],"stateMutability":"nonpayable"},{"type":"function","name":"_borrowGuardianPaused","inputs":[],"outputs":[{"name":"","type":"bool","internalType":"bool"}],"stateMutability":"view"},{"type":"function","name":"_grantComp","inputs":[{"name":"recipient","type":"address","internalType":"address"},{"name":"amount","type":"uint256","internalType":"uint256"}],"outputs":[],"stateMutability":"nonpayable"},{"type":"function","name":"_mintGuardianPaused","inputs":[],"outputs":[{"name":"","type":"bool","internalType":"bool"}],"stateMutability":"view"},{"type":"function","name":"_setBorrowCapGuardian","inputs":[{"name":"newBorrowCapGuardian","type":"address","internalType":"address"}],"outputs":[],"stateMutability":"nonpayable"},{"type":"function","name":"_setBorrowPaused","inputs":[{"name":"cToken","type":"address","internalType":"contract CToken"},{"name":"state","type":"bool","internalType":"bool"}],"outputs":[{"name":"","type":"bool","internalType":"bool"}],"stateMutability":"nonpayable"},{"type":"function","name":"_setCloseFactor","inputs":[{"name":"newCloseFactorMantissa","type":"uint256","internalType":"uint256"}],"outputs":[{"name":"","type":"uint256","internalType":"uint256"}],"stateMutability":"nonpayable"},{"type":"function","name":"_setCollateralFactor","inputs":[{"name":"cToken","type":"address","internalType":"contract CToken"},{"name":"newCollateralFactorMantissa","type":"uint256","internalType":"uint256"}],"outputs":[{"name":"","type":"uint256","internalType":"uint256"}],"stateMutability":"nonpayable"},{"type":"function","name":"_setCompSpeed","inputs":[{"name":"cToken","type":"address","internalType":"contract CToken"},{"name":"compSpeed","type":"uint256","internalType":"uint256"}],"outputs":[],"stateMutability":"nonpayable"},{"type":"function","name":"_setContributorCompSpeed","inputs":[{"name":"contributor","type":"address","internalType":"address"},{"name":"compSpeed","type":"uint256","internalType":"uint256"}],"outputs":[],"stateMutability":"nonpayable"},{"type":"function","name":"_setLiquidationIncentive","inputs":[{"name":"newLiquidationIncentiveMantissa","type":"uint256","internalType":"uint256"}],"outputs":[{"name":"","type":"uint256","internalType":"uint256"}],"stateMutability":"nonpayable"},{"type":"function","name":"_setMarketBorrowCaps","inputs":[{"name":"cTokens","type":"address[]","internalType":"contract CToken[]"},{"name":"newBorrowCaps","type":"uint256[]","internalType":"uint256[]"}],"outputs":[],"stateMutability":"nonpayable"},{"type":"function","name":"_setMintPaused","inputs":[{"name":"cToken","type":"address","internalType":"contract CToken"},{"name":"state","type":"bool","internalType":"bool"}],"outputs":[{"name":"","type":"bool","internalType":"bool"}],"stateMutability":"nonpayable"},{"type":"function","name":"_setPauseGuardian","inputs":[{"name":"newPauseGuardian","type":"address","internalType":"address"}],"outputs":[{"name":"","type":"uint256","internalType":"uint256"}],"stateMutability":"nonpayable"},{"type":"function","name":"_setPriceOracle","inputs":[{"name":"newOracle","type":"address","internalType":"contract PriceOracle"}],"outputs":[{"name":"","type":"uint256","internalType":"uint256"}],"stateMutability":"nonpayable"},{"type":"function","name":"_setSeizePaused","inputs":[{"name":"state","type":"bool","internalType":"bool"}],"outputs":[{"name":"","type":"bool","internalType":"bool"}],"stateMutability":"nonpayable"},{"type":"function","name":"_setTransferPaused","inputs":[{"name":"state","type":"bool","internalType":"bool"}],"outputs":[{"name":"","type":"bool","internalType":"bool"}],"stateMutability":"nonpayable"},{"type":"function","name":"_supportMarket","inputs":[{"name":"cToken","type":"address","internalType":"contract CToken"}],"outputs":[{"name":"","type":"uint256","internalType":"uint256"}],"stateMutability":"nonpayable"},{"type":"function","name":"accountAssets","inputs":[{"name":"","type":"address","internalType":"address"},{"name":"","type":"uint256","internalType":"uint256"}],"outputs":[{"name":"","type":"address","internalType":"contract CToken"}],"stateMutability":"view"},{"type":"function","name":"admin","inputs":[],"outputs":[{"name":"","type":"address","internalType":"address"}],"stateMutability":"view"},{"type":"function","name":"allMarkets","inputs":[{"name":"","type":"uint256","internalType":"uint256"}],"outputs":[{"name":"","type":"address","internalType":"contract CToken"}],"stateMutability":"view"},{"type":"function","name":"borrowAllowed","inputs":[{"name":"cToken","type":"address","internalType":"address"},{"name":"borrower","type":"address","internalType":"address"},{"name":"borrowAmount","type":"uint256","internalType":"uint256"}],"outputs":[{"name":"","type":"uint256","internalType":"uint256"}],"stateMutability":"nonpayable"},{"type":"function","name":"borrowCapGuardian","inputs":[],"outputs":[{"name":"","type":"address","internalType":"address"}],"stateMutability":"view"},{"type":"function","name":"borrowCaps","inputs":[{"name":"","type":"address","internalType":"address"}],"outputs":[{"name":"","type":"uint256","internalType":"uint256"}],"stateMutability":"view"},{"type":"function","name":"borrowGuardianPaused","inputs":[{"name":"","type":"address","internalType":"address"}],"outputs":[{"name":"","type":"bool","internalType":"bool"}],"stateMutability":"view"},{"type":"function","name":"borrowVerify","inputs":[{"name":"cToken","type":"address","internalType":"address"},{"name":"borrower","type":"address","internalType":"address"},{"name":"borrowAmount","type":"uint256","internalType":"uint256"}],"outputs":[],"stateMutability":"nonpayable"},{"type":"function","name":"checkMembership","inputs":[{"name":"account","type":"address","internalType":"address"},{"name":"cToken","type":"address","internalType":"contract CToken"}],"outputs":[{"name":"","type":"bool","internalType":"bool"}],"stateMutability":"view"},{"type":"function","name":"claimComp","inputs":[{"name":"holder","type":"address","internalType":"address"},{"name":"cTokens","type":"address[]","internalType":"contract CToken[]"}],"outputs":[],"stateMutability":"nonpayable"},{"type":"function","name":"claimComp","inputs":[{"name":"holders","type":"address[]","internalType":"address[]"},{"name":"cTokens","type":"address[]","internalType":"contract CToken[]"},{"name":"borrowers","type":"bool","internalType":"bool"},{"name":"suppliers","type":"bool","internalType":"bool"}],"outputs":[],"stateMutability":"nonpayable"},{"type":"function","name":"claimComp","inputs":[{"name":"holder","type":"address","internalType":"address"}],"outputs":[],"stateMutability":"nonpayable"},{"type":"function","name":"closeFactorMantissa","inputs":[],"outputs":[{"name":"","type":"uint256","internalType":"uint256"}],"stateMutability":"view"},{"type":"function","name":"compAccrued","inputs":[{"name":"","type":"address","internalType":"address"}],"outputs":[{"name":"","type":"uint256","internalType":"uint256"}],"stateMutability":"view"},{"type":"function","name":"compBorrowState","inputs":[{"name":"","type":"address","internalType":"address"}],"outputs":[{"name":"index","type":"uint224","internalType":"uint224"},{"name":"block","type":"uint32","internalType":"uint32"}],"stateMutability":"view"},{"type":"function","name":"compBorrowerIndex","inputs":[{"name":"","type":"address","internalType":"address"},{"name":"","type":"address","internalType":"address"}],"outputs":[{"name":"","type":"uint256","internalType":"uint256"}],"stateMutability":"view"},{"type":"function","name":"compContributorSpeeds","inputs":[{"name":"","type":"address","internalType":"address"}],"outputs":[{"name":"","type":"uint256","internalType":"uint256"}],"stateMutability":"view"},{"type":"function","name":"compInitialIndex","inputs":[],"outputs":[{"name":"","type":"uint224","internalType":"uint224"}],"stateMutability":"view"},{"type":"function","name":"compRate","inputs":[],"outputs":[{"name":"","type":"uint256","internalType":"uint256"}],"stateMutability":"view"},{"type":"function","name":"compSpeeds","inputs":[{"name":"","type":"address","internalType":"address"}],"outputs":[{"name":"","type":"uint256","internalType":"uint256"}],"stateMutability":"view"},{"type":"function","name":"compSupplierIndex","inputs":[{"name":"","type":"address","internalType":"address"},{"name":"","type":"address","internalType":"address"}],"outputs":[{"name":"","type":"uint256","internalType":"uint256"}],"stateMutability":"view"},{"type":"function","name":"compSupplyState","inputs":[{"name":"","type":"address","internalType":"address"}],"outputs":[{"name":"index","type":"uint224","internalType":"uint224"},{"name":"block","type":"uint32","internalType":"uint32"}],"stateMutability":"view"},{"type":"function","name":"comptrollerImplementation","inputs":[],"outputs":[{"name":"","type":"address","internalType":"address"}],"stateMutability":"view"},{"type":"function","name":"enterMarkets","inputs":[{"name":"cTokens","type":"address[]","internalType":"address[]"}],"outputs":[{"name":"","type":"uint256[]","internalType":"uint256[]"}],"stateMutability":"nonpayable"},{"type":"function","name":"exitMarket","inputs":[{"name":"cTokenAddress","type":"address","internalType":"address"}],"outputs":[{"name":"","type":"uint256","internalType":"uint256"}],"stateMutability":"nonpayable"},{"type":"function","name":"getAccountLiquidity","inputs":[{"name":"account","type":"address","internalType":"address"}],"outputs":[{"name":"","type":"uint256","internalType":"uint256"},{"name":"","type":"uint256","internalType":"uint256"},{"name":"","type":"uint256","internalType":"uint256"}],"stateMutability":"view"},{"type":"function","name":"getAllMarkets","inputs":[],"outputs":[{"name":"","type":"address[]","internalType":"contract CToken[]"}],"stateMutability":"view"},{"type":"function","name":"getAssetsIn","inputs":[{"name":"account","type":"address","internalType":"address"}],"outputs":[{"name":"","type":"address[]","internalType":"contract CToken[]"}],"stateMutability":"view"},{"type":"function","name":"getBlockNumber","inputs":[],"outputs":[{"name":"","type":"uint256","internalType":"uint256"}],"stateMutability":"view"},{"type":"function","name":"getCompAddress","inputs":[],"outputs":[{"name":"","type":"address","internalType":"address"}],"stateMutability":"view"},{"type":"function","name":"getHypotheticalAccountLiquidity","inputs":[{"name":"account","type":"address","internalType":"address"},{"name":"cTokenModify","type":"address","internalType":"address"},{"name":"redeemTokens","type":"uint256","internalType":"uint256"},{"name":"borrowAmount","type":"uint256","internalType":"uint256"}],"outputs":[{"name":"","type":"uint256","internalType":"uint256"},{"name":"","type":"uint256","internalType":"uint256"},{"name":"","type":"uint256","internalType":"uint256"}],"stateMutability":"view"},{"type":"function","name":"isComptroller","inputs":[],"outputs":[{"name":"","type":"bool","internalType":"bool"}],"stateMutability":"view"},{"type":"function","name":"lastContributorBlock","inputs":[{"name":"","type":"address","internalType":"address"}],"outputs":[{"name":"","type":"uint256","internalType":"uint256"}],"stateMutability":"view"},{"type":"function","name":"liquidateBorrowAllowed","inputs":[{"name":"cTokenBorrowed","type":"address","internalType":"address"},{"name":"cTokenCollateral","type":"address","internalType":"address"},{"name":"liquidator","type":"address","internalType":"address"},{"name":"borrower","type":"address","internalType":"address"},{"name":"repayAmount","type":"uint256","internalType":"uint256"}],"outputs":[{"name":"","type":"uint256","internalType":"uint256"}],"stateMutability":"nonpayable"},{"type":"function","name":"liquidateBorrowVerify","inputs":[{"name":"cTokenBorrowed","type":"address","internalType":"address"},{"name":"cTokenCollateral","type":"address","internalType":"address"},{"name":"liquidator","type":"address","internalType":"address"},{"name":"borrower","type":"address","internalType":"address"},{"name":"actualRepayAmount","type":"uint256","internalType":"uint256"},{"name":"seizeTokens","type":"uint256","internalType":"uint256"}],"outputs":[],"stateMutability":"nonpayable"},{"type":"function","name":"liquidateCalculateSeizeTokens","inputs":[{"name":"cTokenBorrowed","type":"address","internalType":"address"},{"name":"cTokenCollateral","type":"address","internalType":"address"},{"name":"actualRepayAmount","type":"uint256","internalType":"uint256"}],"outputs":[{"name":"","type":"uint256","internalType":"uint256"},{"name":"","type":"uint256","internalType":"uint256"}],"stateMutability":"view"},{"type":"function","name":"liquidationIncentiveMantissa","inputs":[],"outputs":[{"name":"","type":"uint256","internalType":"uint256"}],"stateMutability":"view"},{"type":"function","name":"markets","inputs":[{"name":"","type":"address","internalType":"address"}],"outputs":[{"name":"isListed","type":"bool","internalType":"bool"},{"name":"collateralFactorMantissa","type":"uint256","internalType":"uint256"},{"name":"isComped","type":"bool","internalType":"bool"}],"stateMutability":"view"},{"type":"function","name":"maxAssets","inputs":[],"outputs":[{"name":"","type":"uint256","internalType":"uint256"}],"stateMutability":"view"},{"type":"function","name":"mintAllowed","inputs":[{"name":"cToken","type":"address","internalType":"address"},{"name":"minter","type":"address","internalType":"address"},{"name":"mintAmount","type":"uint256","internalType":"uint256"}],"outputs":[{"name":"","type":"uint256","internalType":"uint256"}],"stateMutability":"nonpayable"},{"type":"function","name":"mintGuardianPaused","inputs":[{"name":"","type":"address","internalType":"address"}],"outputs":[{"name":"","type":"bool","internalType":"bool"}],"stateMutability":"view"},{"type":"function","name":"mintVerify","inputs":[{"name":"cToken","type":"address","internalType":"address"},{"name":"minter","type":"address","internalType":"address"},{"name":"actualMintAmount","type":"uint256","internalType":"uint256"},{"name":"mintTokens","type":"uint256","internalType":"uint256"}],"outputs":[],"stateMutability":"nonpayable"},{"type":"function","name":"oracle","inputs":[],"outputs":[{"name":"","type":"address","internalType":"contract PriceOracle"}],"stateMutability":"view"},{"type":"function","name":"pauseGuardian","inputs":[],"outputs":[{"name":"","type":"address","internalType":"address"}],"stateMutability":"view"},{"type":"function","name":"pendingAdmin","inputs":[],"outputs":[{"name":"","type":"address","internalType":"address"}],"stateMutability":"view"},{"type":"function","name":"pendingComptrollerImplementation","inputs":[],"outputs":[{"name":"","type":"address","internalType":"address"}],"stateMutability":"view"},{"type":"function","name":"redeemAllowed","inputs":[{"name":"cToken","type":"address","internalType":"address"},{"name":"redeemer","type":"address","internalType":"address"},{"name":"redeemTokens","type":"uint256","internalType":"uint256"}],"outputs":[{"name":"","type":"uint256","internalType":"uint256"}],"stateMutability":"nonpayable"},{"type":"function","name":"redeemVerify","inputs":[{"name":"cToken","type":"address","internalType":"address"},{"name":"redeemer","type":"address","internalType":"address"},{"name":"redeemAmount","type":"uint256","internalType":"uint256"},{"name":"redeemTokens","type":"uint256","internalType":"uint256"}],"outputs":[],"stateMutability":"nonpayable"},{"type":"function","name":"repayBorrowAllowed","inputs":[{"name":"cToken","type":"address","internalType":"address"},{"name":"payer","type":"address","internalType":"address"},{"name":"borrower","type":"address","internalType":"address"},{"name":"repayAmount","type":"uint256","internalType":"uint256"}],"outputs":[{"name":"","type":"uint256","internalType":"uint256"}],"stateMutability":"nonpayable"},{"type":"function","name":"repayBorrowVerify","inputs":[{"name":"cToken","type":"address","internalType":"address"},{"name":"payer","type":"address","internalType":"address"},{"name":"borrower","type":"address","internalType":"address"},{"name":"actualRepayAmount","type":"uint256","internalType":"uint256"},{"name":"borrowerIndex","type":"uint256","internalType":"uint256"}],"outputs":[],"stateMutability":"nonpayable"},{"type":"function","name":"seizeAllowed","inputs":[{"name":"cTokenCollateral","type":"address","internalType":"address"},{"name":"cTokenBorrowed","type":"address","internalType":"address"},{"name":"liquidator","type":"address","internalType":"address"},{"name":"borrower","type":"address","internalType":"address"},{"name":"seizeTokens","type":"uint256","internalType":"uint256"}],"outputs":[{"name":"","type":"uint256","internalType":"uint256"}],"stateMutability":"nonpayable"},{"type":"function","name":"seizeGuardianPaused","inputs":[],"outputs":[{"name":"","type":"bool","internalType":"bool"}],"stateMutability":"view"},{"type":"function","name":"seizeVerify","inputs":[{"name":"cTokenCollateral","type":"address","internalType":"address"},{"name":"cTokenBorrowed","type":"address","internalType":"address"},{"name":"liquidator","type":"address","internalType":"address"},{"name":"borrower","type":"address","internalType":"address"},{"name":"seizeTokens","type":"uint256","internalType":"uint256"}],"outputs":[],"stateMutability":"nonpayable"},{"type":"function","name":"transferAllowed","inputs":[{"name":"cToken","type":"address","internalType":"address"},{"name":"src","type":"address","internalType":"address"},{"name":"dst","type":"address","internalType":"address"},{"name":"transferTokens","type":"uint256","internalType":"uint256"}],"outputs":[{"name":"","type":"uint256","internalType":"uint256"}],"stateMutability":"nonpayable"},{"type":"function","name":"transferGuardianPaused","inputs":[],"outputs":[{"name":"","type":"bool","internalType":"bool"}],"stateMutability":"view"},{"type":"function","name":"transferVerify","inputs":[{"name":"cToken","type":"address","internalType":"address"},{"name":"src","type":"address","internalType":"address"},{"name":"dst","type":"address","internalType":"address"},{"name":"transferTokens","type":"uint256","internalType":"uint256"}],"outputs":[],"stateMutability":"nonpayable"},{"type":"function","name":"updateContributorRewards","inputs":[{"name":"contributor","type":"address","internalType":"address"}],"outputs":[],"stateMutability":"nonpayable"},{"type":"event","name":"ActionPaused","inputs":[{"name":"action","type":"string","indexed":false,"internalType":"string"},{"name":"pauseState","type":"bool","indexed":false,"internalType":"bool"}],"anonymous":false},{"type":"event","name":"ActionPaused","inputs":[{"name":"cToken","type":"address","indexed":false,"internalType":"contract CToken"},{"name":"action","type":"string","indexed":false,"internalType":"string"},{"name":"pauseState","type":"bool","indexed":false,"internalType":"bool"}],"anonymous":false},{"type":"event","name":"CompGranted","inputs":[{"name":"recipient","type":"address","indexed":false,"internalType":"address"},{"name":"amount","type":"uint256","indexed":false,"internalType":"uint256"}],"anonymous":false},{"type":"event","name":"CompSpeedUpdated","inputs":[{"name":"cToken","type":"address","indexed":true,"internalType":"contract CToken"},{"name":"newSpeed","type":"uint256","indexed":false,"internalType":"uint256"}],"anonymous":false},{"type":"event","name":"ContributorCompSpeedUpdated","inputs":[{"name":"contributor","type":"address","indexed":true,"internalType":"address"},{"name":"newSpeed","type":"uint256","indexed":false,"internalType":"uint256"}],"anonymous":false},{"type":"event","name":"DistributedBorrowerComp","inputs":[{"name":"cToken","type":"address","indexed":true,"internalType":"contract CToken"},{"name":"borrower","type":"address","indexed":true,"internalType":"address"},{"name":"compDelta","type":"uint256","indexed":false,"internalType":"uint256"},{"name":"compBorrowIndex","type":"uint256","indexed":false,"internalType":"uint256"}],"anonymous":false},{"type":"event","name":"DistributedSupplierComp","inputs":[{"name":"cToken","type":"address","indexed":true,"internalType":"contract CToken"},{"name":"supplier","type":"address","indexed":true,"internalType":"address"},{"name":"compDelta","type":"uint256","indexed":false,"internalType":"uint256"},{"name":"compSupplyIndex","type":"uint256","indexed":false,"internalType":"uint256"}],"anonymous":false},{"type":"event","name":"Failure","inputs":[{"name":"error","type":"uint256","indexed":false,"internalType":"uint256"},{"name":"info","type":"uint256","indexed":false,"internalType":"uint256"},{"name":"detail","type":"uint256","indexed":false,"internalType":"uint256"}],"anonymous":false},{"type":"event","name":"MarketEntered","inputs":[{"name":"cToken","type":"address","indexed":false,"internalType":"contract CToken"},{"name":"account","type":"address","indexed":false,"internalType":"address"}],"anonymous":false},{"type":"event","name":"MarketExited","inputs":[{"name":"cToken","type":"address","indexed":false,"internalType":"contract CToken"},{"name":"account","type":"address","indexed":false,"internalType":"address"}],"anonymous":false},{"type":"event","name":"MarketListed","inputs":[{"name":"cToken","type":"address","indexed":false,"internalType":"contract CToken"}],"anonymous":false},{"type":"event","name":"NewBorrowCap","inputs":[{"name":"cToken","type":"address","indexed":true,"internalType":"contract CToken"},{"name":"newBorrowCap","type":"uint256","indexed":false,"internalType":"uint256"}],"anonymous":false},{"type":"event","name":"NewBorrowCapGuardian","inputs":[{"name":"oldBorrowCapGuardian","type":"address","indexed":false,"internalType":"address"},{"name":"newBorrowCapGuardian","type":"address","indexed":false,"internalType":"address"}],"anonymous":false},{"type":"event","name":"NewCloseFactor","inputs":[{"name":"oldCloseFactorMantissa","type":"uint256","indexed":false,"internalType":"uint256"},{"name":"newCloseFactorMantissa","type":"uint256","indexed":false,"internalType":"uint256"}],"anonymous":false},{"type":"event","name":"NewCollateralFactor","inputs":[{"name":"cToken","type":"address","indexed":false,"internalType":"contract CToken"},{"name":"oldCollateralFactorMantissa","type":"uint256","indexed":false,"internalType":"uint256"},{"name":"newCollateralFactorMantissa","type":"uint256","indexed":false,"internalType":"uint256"}],"anonymous":false},{"type":"event","name":"NewLiquidationIncentive","inputs":[{"name":"oldLiquidationIncentiveMantissa","type":"uint256","indexed":false,"internalType":"uint256"},{"name":"newLiquidationIncentiveMantissa","type":"uint256","indexed":false,"internalType":"uint256"}],"anonymous":false},{"type":"event","name":"NewPauseGuardian","inputs":[{"name":"oldPauseGuardian","type":"address","indexed":false,"internalType":"address"},{"name":"newPauseGuardian","type":"address","indexed":false,"internalType":"address"}],"anonymous":false},{"type":"event","name":"NewPriceOracle","inputs":[{"name":"oldPriceOracle","type":"address","indexed":false,"internalType":"contract PriceOracle"},{"name":"newPriceOracle","type":"address","indexed":false,"internalType":"contract PriceOracle"}],"anonymous":false}],"bytecode":{"object":"0x608060405234801561001057600080fd5b50600080546001600160a01b03191633179055615037806100326000396000f3fe608060405234801561001057600080fd5b50600436106104485760003560e01c80636d154ea511610241578063b21be7fd1161013b578063da3d454c116100c3578063e875544611610087578063e875544614610b54578063e9af029214610b5d578063eabe7d9114610b70578063ede4edd014610b83578063f851a44014610b9657600080fd5b8063da3d454c14610af4578063dce1544914610b07578063dcfbc0c714610b1a578063e4028eee14610b2d578063e6653f3d14610b4057600080fd5b8063c29982381161010a578063c299823814610a4e578063c488847b14610a6e578063ca0af04314610a96578063cc7ebdc414610ac1578063d02f735114610ae157600080fd5b8063b21be7fd146109dd578063bb82aa5e14610a08578063bdcdc25814610a1b578063bea6b8b814610a2e57600080fd5b8063929fe9a1116101c9578063a7f0e2311161018d578063a7f0e2311461096a578063aa90075414610998578063abfceffc146109a1578063ac0b0bb7146109c1578063b0772d0b146109d557600080fd5b8063929fe9a1146108d357806394b2294b14610914578063986ab8381461091d5780639d1b5a0a1461093d578063a76b3fda1461095757600080fd5b80637dc0d1d0116102105780637dc0d1d01461080e57806387f76303146108215780638c57804e146108355780638e8f294b1461086d5780638ebf6364146108c057600080fd5b80636d154ea5146107a75780636d35bf91146107ca578063731f0c2b146107d8578063741b2525146107fb57600080fd5b8063434caf251161035257806355ee1fe1116102da5780635fc7e71e1161029e5780635fc7e71e14610704578063607ef6c1146107175780636810dfa61461072a5780636a56947e1461073d5780636b79c38d1461074b57600080fd5b806355ee1fe1146106a5578063598ee1cb146106b85780635c778605146106cb5780635ec88c79146106de5780635f5af1aa146106f157600080fd5b80634e79238f116103215780634e79238f1461062b5780634ef4c3e1146106595780634fd42e171461066c57806351dff9891461067f57806352d84d1e1461069257600080fd5b8063434caf25146105d957806347ef3b3b146105ec5780634a584432146106025780634ada90af1461062257600080fd5b806326782247116103d5578063391957d7116103a4578063391957d7146105855780633bcf7ec1146105985780633c94786f146105ab57806341c728b9146105bf57806342cbb15c146105d357600080fd5b8063267822471461053957806327efe3cb1461054c5780632d70db781461055f578063317b0b771461057257600080fd5b80631d7b33d71161041c5780631d7b33d7146104a55780631ededc91146104d357806321af4569146104e857806324008a621461051357806324a3d6221461052657600080fd5b80627e3dd21461044d57806318c882a51461046a5780631c3db2e01461047d5780631d504dc614610492575b600080fd5b610455600181565b60405190151581526020015b60405180910390f35b6104556104783660046146ec565b610ba9565b61049061048b366004614804565b610ceb565b005b6104906104a0366004614854565b610d4e565b6104c56104b3366004614854565b600f6020526000908152604090205481565b604051908152602001610461565b6104906104e1366004614871565b5050505050565b6015546104fb906001600160a01b031681565b6040516001600160a01b039091168152602001610461565b6104c56105213660046148cc565b610ecc565b600a546104fb906001600160a01b031681565b6001546104fb906001600160a01b031681565b61049061055a36600461491d565b610f8a565b61045561056d366004614949565b611081565b6104c5610580366004614966565b611171565b610490610593366004614854565b611218565b6104556105a63660046146ec565b6112e2565b600a5461045590600160a01b900460ff1681565b6104906105cd36600461497f565b50505050565b436104c5565b6104906105e736600461491d565b61140c565b6104906105fa3660046149c5565b505050505050565b6104c5610610366004614854565b60166020526000908152604090205481565b6104c560065481565b61063e61063936600461497f565b61146e565b60408051938452602084019290925290820152606001610461565b6104c5610667366004614a33565b6114ae565b6104c561067a366004614966565b61154f565b61049061068d36600461497f565b6115ac565b6104fb6106a0366004614966565b6115fb565b6104c56106b3366004614854565b611625565b6104906106c636600461491d565b61169e565b6104906106d9366004614a33565b505050565b61063e6106ec366004614854565b611795565b6104c56106ff366004614854565b6117d0565b6104c5610712366004614a74565b611849565b610490610725366004614b24565b6119a5565b610490610738366004614bf4565b611b83565b6104906105cd3660046148cc565b610783610759366004614854565b6010602052600090815260409020546001600160e01b03811690600160e01b900463ffffffff1682565b604080516001600160e01b03909316835263ffffffff909116602083015201610461565b6104556107b5366004614854565b600c6020526000908152604090205460ff1681565b6104906104e1366004614a74565b6104556107e6366004614854565b600b6020526000908152604090205460ff1681565b610490610809366004614854565b611e62565b6004546104fb906001600160a01b031681565b600a5461045590600160b01b900460ff1681565b610783610843366004614854565b6011602052600090815260409020546001600160e01b03811690600160e01b900463ffffffff1682565b6108a161087b366004614854565b60096020526000908152604090208054600182015460039092015460ff91821692911683565b6040805193151584526020840192909252151590820152606001610461565b6104556108ce366004614949565b611f0e565b6104556108e1366004614c7d565b6001600160a01b038082166000908152600960209081526040808320938616835260029093019052205460ff1692915050565b6104c560075481565b6104c561092b366004614854565b60176020526000908152604090205481565b73c00e94cb662c3520282e6f5717214004a7f268886104fb565b6104c5610965366004614854565b611ff5565b6109806ec097ce7bc90715b34b9f100000000081565b6040516001600160e01b039091168152602001610461565b6104c5600e5481565b6109b46109af366004614854565b61211e565b6040516104619190614cab565b600a5461045590600160b81b900460ff1681565b6109b4612194565b6104c56109eb366004614c7d565b601260209081526000928352604080842090915290825290205481565b6002546104fb906001600160a01b031681565b6104c5610a293660046148cc565b6121f6565b6104c5610a3c366004614854565b60186020526000908152604090205481565b610a61610a5c366004614cf8565b612281565b6040516104619190614d2d565b610a81610a7c366004614a33565b612349565b60408051928352602083019190915201610461565b6104c5610aa4366004614c7d565b601360209081526000928352604080842090915290825290205481565b6104c5610acf366004614854565b60146020526000908152604090205481565b6104c5610aef366004614a74565b612567565b6104c5610b02366004614a33565b61270e565b6104fb610b1536600461491d565b612ae1565b6003546104fb906001600160a01b031681565b6104c5610b3b36600461491d565b612b19565b600a5461045590600160a81b900460ff1681565b6104c560055481565b610490610b6b366004614854565b612cab565b6104c5610b7e366004614a33565b612d0f565b6104c5610b91366004614854565b612d4a565b6000546104fb906001600160a01b031681565b6001600160a01b03821660009081526009602052604081205460ff16610bea5760405162461bcd60e51b8152600401610be190614d65565b60405180910390fd5b600a546001600160a01b0316331480610c0d57506000546001600160a01b031633145b610c295760405162461bcd60e51b8152600401610be190614dad565b6000546001600160a01b0316331480610c4457506001821515145b610c605760405162461bcd60e51b8152600401610be190614df4565b6001600160a01b0383166000818152600c6020908152604091829020805460ff19168615159081179091558251938452606091840182905260069184019190915265426f72726f7760d01b6080840152908201527f71aec636243f9709bb0007ae15e9afb8150ab01716d75fd7573be5cc096e03b09060a0015b60405180910390a150805b92915050565b604080516001808252818301909252600091602080830190803683370190505090508281600081518110610d2157610d21614e24565b60200260200101906001600160a01b031690816001600160a01b0316815250506106d98183600180611b83565b806001600160a01b031663f851a4406040518163ffffffff1660e01b8152600401602060405180830381865afa158015610d8c573d6000803e3d6000fd5b505050506040513d601f19601f82011682018060405250810190610db09190614e3a565b6001600160a01b0316336001600160a01b031614610e205760405162461bcd60e51b815260206004820152602760248201527f6f6e6c7920756e6974726f6c6c65722061646d696e2063616e206368616e676560448201526620627261696e7360c81b6064820152608401610be1565b806001600160a01b031663c1e803346040518163ffffffff1660e01b81526004016020604051808303816000875af1158015610e60573d6000803e3d6000fd5b505050506040513d601f19601f82011682018060405250810190610e849190614e57565b15610ec95760405162461bcd60e51b815260206004820152601560248201527418da185b99d9481b9bdd08185d5d1a1bdc9a5e9959605a1b6044820152606401610be1565b50565b6001600160a01b03841660009081526009602052604081205460ff16610ef457506009610f82565b60006040518060200160405280876001600160a01b031663aa5af0fd6040518163ffffffff1660e01b8152600401602060405180830381865afa158015610f3f573d6000803e3d6000fd5b505050506040513d601f19601f82011682018060405250810190610f639190614e57565b90529050610f7186826130af565b610f7c86858361330f565b60009150505b949350505050565b610f92613475565b610fde5760405162461bcd60e51b815260206004820152601960248201527f6f6e6c792061646d696e2063616e206772616e7420636f6d70000000000000006044820152606401610be1565b6000610fea838361349e565b9050801561103a5760405162461bcd60e51b815260206004820152601b60248201527f696e73756666696369656e7420636f6d7020666f72206772616e7400000000006044820152606401610be1565b604080516001600160a01b0385168152602081018490527f98b2f82a3a07f223a0be64b3d0f47711c64dccd1feafb94aa28156b38cd9695c910160405180910390a1505050565b600a546000906001600160a01b03163314806110a757506000546001600160a01b031633145b6110c35760405162461bcd60e51b8152600401610be190614dad565b6000546001600160a01b03163314806110de57506001821515145b6110fa5760405162461bcd60e51b8152600401610be190614df4565b600a8054831515600160b81b0260ff60b81b199091161790556040517fef159d9a32b2472e32b098f954f3ce62d232939f1c207070b584df1814de2de0906111659084906040808252600590820152645365697a6560d81b6060820152901515602082015260800190565b60405180910390a15090565b600080546001600160a01b031633146111cc5760405162461bcd60e51b815260206004820152601f60248201527f6f6e6c792061646d696e2063616e2073657420636c6f736520666163746f72006044820152606401610be1565b600580549083905560408051828152602081018590527f3b9670cf975d26958e754b57098eaa2ac914d8d2a31b83257997b9f346110fd991015b60405180910390a160005b9392505050565b6000546001600160a01b031633146112815760405162461bcd60e51b815260206004820152602660248201527f6f6e6c792061646d696e2063616e2073657420626f72726f772063617020677560448201526530b93234b0b760d11b6064820152608401610be1565b601580546001600160a01b038381166001600160a01b031983168117909355604080519190921680825260208201939093527feda98690e518e9a05f8ec6837663e188211b2da8f4906648b323f2c1d4434e29910160405180910390a15050565b6001600160a01b03821660009081526009602052604081205460ff1661131a5760405162461bcd60e51b8152600401610be190614d65565b600a546001600160a01b031633148061133d57506000546001600160a01b031633145b6113595760405162461bcd60e51b8152600401610be190614dad565b6000546001600160a01b031633148061137457506001821515145b6113905760405162461bcd60e51b8152600401610be190614df4565b6001600160a01b0383166000818152600b6020908152604091829020805460ff19168615159081179091558251938452606091840182905260049184019190915263135a5b9d60e21b6080840152908201527f71aec636243f9709bb0007ae15e9afb8150ab01716d75fd7573be5cc096e03b09060a001610cda565b611414613475565b6114605760405162461bcd60e51b815260206004820152601d60248201527f6f6e6c792061646d696e2063616e2073657420636f6d702073706565640000006044820152606401610be1565b61146a82826135c3565b5050565b6000806000806000806114838a8a8a8a6138fa565b92509250925082601181111561149b5761149b614e70565b95509093509150505b9450945094915050565b6001600160a01b0383166000908152600b602052604081205460ff16156115085760405162461bcd60e51b815260206004820152600e60248201526d1b5a5b9d081a5cc81c185d5cd95960921b6044820152606401610be1565b6001600160a01b03841660009081526009602052604090205460ff166115325760095b9050611211565b61153b84613c2a565b6115458484613e80565b6000949350505050565b600080546001600160a01b0316331461156e57610ce56001600b614024565b600680549083905560408051828152602081018590527faeba5a6c40a8ac138134bff1aaa65debf25971188a58804bad717f82f0ec13169101611206565b801580156115ba5750600082115b156105cd5760405162461bcd60e51b815260206004820152601160248201527072656465656d546f6b656e73207a65726f60781b6044820152606401610be1565b600d818154811061160b57600080fd5b6000918252602090912001546001600160a01b0316905081565b600080546001600160a01b0316331461164457610ce560016010614024565b600480546001600160a01b038481166001600160a01b031983168117909355604080519190921680825260208201939093527fd52b2b9b7e9ee655fcb95d2e5b9e0c9f69e7ef2b8e9d2d0ea78402d576d22e229101611206565b6116a6613475565b6116f25760405162461bcd60e51b815260206004820152601d60248201527f6f6e6c792061646d696e2063616e2073657420636f6d702073706565640000006044820152606401610be1565b6116fb82611e62565b80600003611721576001600160a01b03821660009081526018602052604081205561173c565b436001600160a01b0383166000908152601860205260409020555b6001600160a01b03821660008181526017602052604090819020839055517f386537fa92edc3319af95f1f904dcf1900021e4f3f4e08169a577a09076e66b3906117899084815260200190565b60405180910390a25050565b6000806000806000806117ac8760008060006138fa565b9250925092508260118111156117c4576117c4614e70565b97919650945092505050565b600080546001600160a01b031633146117ef57610ce560016013614024565b600a80546001600160a01b038481166001600160a01b031983168117909355604080519190921680825260208201939093527f0613b6ee6a04f0d09f390e4d9318894b9f6ac7fd83897cd8d18896ba579c401e9101611206565b6001600160a01b03851660009081526009602052604081205460ff16158061188a57506001600160a01b03851660009081526009602052604090205460ff16155b156118995760095b905061199c565b6000806118a58561409d565b919350909150600090508260118111156118c1576118c1614e70565b146118e1578160118111156118d8576118d8614e70565b9250505061199c565b806000036118f05760036118d8565b6040516395dd919360e01b81526001600160a01b038681166004830152600091908a16906395dd919390602401602060405180830381865afa15801561193a573d6000803e3d6000fd5b505050506040513d601f19601f8201168201806040525081019061195e9190614e57565b9050600061197c6040518060200160405280600554815250836140bd565b90508086111561199357601194505050505061199c565b60009450505050505b95945050505050565b6000546001600160a01b03163314806119c857506015546001600160a01b031633145b611a325760405162461bcd60e51b815260206004820152603560248201527f6f6e6c792061646d696e206f7220626f72726f772063617020677561726469616044820152746e2063616e2073657420626f72726f77206361707360581b6064820152608401610be1565b82818115801590611a4257508082145b611a7e5760405162461bcd60e51b815260206004820152600d60248201526c1a5b9d985b1a59081a5b9c1d5d609a1b6044820152606401610be1565b60005b82811015611b7a57848482818110611a9b57611a9b614e24565b9050602002013560166000898985818110611ab857611ab8614e24565b9050602002016020810190611acd9190614854565b6001600160a01b03168152602081019190915260400160002055868682818110611af957611af9614e24565b9050602002016020810190611b0e9190614854565b6001600160a01b03167f6f1951b2aad10f3fc81b86d91105b413a5b3f847a34bbc5ce1904201b14438f6868684818110611b4a57611b4a614e24565b90506020020135604051611b6091815260200190565b60405180910390a280611b7281614e9c565b915050611a81565b50505050505050565b60005b83518110156104e1576000848281518110611ba357611ba3614e24565b6020908102919091018101516001600160a01b0381166000908152600990925260409091205490915060ff16611c135760405162461bcd60e51b81526020600482015260156024820152741b585c9ad95d081b5d5cdd081899481b1a5cdd1959605a1b6044820152606401610be1565b831515600103611d835760006040518060200160405280836001600160a01b031663aa5af0fd6040518163ffffffff1660e01b8152600401602060405180830381865afa158015611c68573d6000803e3d6000fd5b505050506040513d601f19601f82011682018060405250810190611c8c9190614e57565b90529050611c9a82826130af565b60005b8751811015611d8057611cca83898381518110611cbc57611cbc614e24565b60200260200101518461330f565b611d2b888281518110611cdf57611cdf614e24565b6020026020010151601460008b8581518110611cfd57611cfd614e24565b60200260200101516001600160a01b03166001600160a01b031681526020019081526020016000205461349e565b601460008a8481518110611d4157611d41614e24565b60200260200101516001600160a01b03166001600160a01b03168152602001908152602001600020819055508080611d7890614e9c565b915050611c9d565b50505b821515600103611e4f57611d9681613c2a565b60005b8651811015611e4d57611dc582888381518110611db857611db8614e24565b6020026020010151613e80565b611df8878281518110611dda57611dda614e24565b6020026020010151601460008a8581518110611cfd57611cfd614e24565b60146000898481518110611e0e57611e0e614e24565b60200260200101516001600160a01b03166001600160a01b03168152602001908152602001600020819055508080611e4590614e9c565b915050611d99565b505b5080611e5a81614e9c565b915050611b86565b6001600160a01b038116600090815260176020908152604080832054601890925282205490914391611e959083906140d5565b9050600081118015611ea75750600083115b156105cd576000611eb882856140e1565b6001600160a01b03861660009081526014602052604081205491925090611edf90836140ed565b6001600160a01b0387166000908152601460209081526040808320939093556018905220849055505050505050565b600a546000906001600160a01b0316331480611f3457506000546001600160a01b031633145b611f505760405162461bcd60e51b8152600401610be190614dad565b6000546001600160a01b0316331480611f6b57506001821515145b611f875760405162461bcd60e51b8152600401610be190614df4565b600a8054831515600160b01b0260ff60b01b199091161790556040517fef159d9a32b2472e32b098f954f3ce62d232939f1c207070b584df1814de2de0906111659084906040808252600890820152672a3930b739b332b960c11b6060820152901515602082015260800190565b600080546001600160a01b0316331461201457610ce560016012614024565b6001600160a01b03821660009081526009602052604090205460ff161561204157610ce5600a6011614024565b816001600160a01b031663fe9c44ae6040518163ffffffff1660e01b8152600401602060405180830381865afa15801561207f573d6000803e3d6000fd5b505050506040513d601f19601f820116820180604052508101906120a39190614eb5565b506001600160a01b03821660009081526009602052604081208054600160ff19918216811783556003830180549092169091558101919091556120e5836140f9565b6040516001600160a01b03841681527fcf583bb0c569eb967f806b11601c4cb93c10310485c67add5f8362c2f212321f90602001611206565b6001600160a01b038116600090815260086020908152604080832080548251818502810185019093528083526060949383018282801561218757602002820191906000526020600020905b81546001600160a01b03168152600190910190602001808311612169575b5093979650505050505050565b6060600d8054806020026020016040519081016040528092919081815260200182805480156121ec57602002820191906000526020600020905b81546001600160a01b031681526001909101906020018083116121ce575b5050505050905090565b600a54600090600160b01b900460ff16156122485760405162461bcd60e51b81526020600482015260126024820152711d1c985b9cd9995c881a5cc81c185d5cd95960721b6044820152606401610be1565b60006122558686856141e1565b90508015612264579050610f82565b61226d86613c2a565b6122778686613e80565b610f7c8685613e80565b805160609060008167ffffffffffffffff8111156122a1576122a1614725565b6040519080825280602002602001820160405280156122ca578160200160208202803683370190505b50905060005b828110156123415760008582815181106122ec576122ec614e24565b602002602001015190506123008133614299565b601181111561231157612311614e70565b83838151811061232357612323614e24565b6020908102919091010152508061233981614e9c565b9150506122d0565b509392505050565b6004805460405163fc57d4df60e01b81526001600160a01b03868116938201939093526000928392839291169063fc57d4df90602401602060405180830381865afa15801561239c573d6000803e3d6000fd5b505050506040513d601f19601f820116820180604052508101906123c09190614e57565b6004805460405163fc57d4df60e01b81526001600160a01b038981169382019390935292935060009291169063fc57d4df90602401602060405180830381865afa158015612412573d6000803e3d6000fd5b505050506040513d601f19601f820116820180604052508101906124369190614e57565b9050811580612443575080155b1561245757600d600093509350505061255f565b6000866001600160a01b031663182df0f56040518163ffffffff1660e01b8152600401602060405180830381865afa158015612497573d6000803e3d6000fd5b505050506040513d601f19601f820116820180604052508101906124bb9190614e57565b905060006124d56040518060200160405280600081525090565b6040805160208082018352600080835283518083018552908152835180830185526006548152845192830190945288825291926125119161438d565b925061253960405180602001604052808881525060405180602001604052808881525061438d565b915061254583836143d5565b9050612551818b6140bd565b600099509750505050505050505b935093915050565b600a54600090600160b81b900460ff16156125b65760405162461bcd60e51b815260206004820152600f60248201526e1cd95a5e99481a5cc81c185d5cd959608a1b6044820152606401610be1565b6001600160a01b03861660009081526009602052604090205460ff1615806125f757506001600160a01b03851660009081526009602052604090205460ff16155b15612603576009611892565b846001600160a01b0316635fe3b5676040518163ffffffff1660e01b8152600401602060405180830381865afa158015612641573d6000803e3d6000fd5b505050506040513d601f19601f820116820180604052508101906126659190614e3a565b6001600160a01b0316866001600160a01b0316635fe3b5676040518163ffffffff1660e01b8152600401602060405180830381865afa1580156126ac573d6000803e3d6000fd5b505050506040513d601f19601f820116820180604052508101906126d09190614e3a565b6001600160a01b0316146126e5576002611892565b6126ee86613c2a565b6126f88684613e80565b6127028685613e80565b60009695505050505050565b6001600160a01b0383166000908152600c602052604081205460ff161561276a5760405162461bcd60e51b815260206004820152601060248201526f189bdc9c9bddc81a5cc81c185d5cd95960821b6044820152606401610be1565b6001600160a01b03841660009081526009602052604090205460ff1661279157600961152b565b6001600160a01b038085166000908152600960209081526040808320938716835260029093019052205460ff1661288e57336001600160a01b038516146128125760405162461bcd60e51b815260206004820152601560248201527439b2b73232b91036bab9ba1031329031aa37b5b2b760591b6044820152606401610be1565b600061281e3385614299565b9050600081601181111561283457612834614e70565b146128535780601181111561284b5761284b614e70565b915050611211565b6001600160a01b038086166000908152600960209081526040808320938816835260029093019052205460ff1661288c5761288c614ed2565b505b6004805460405163fc57d4df60e01b81526001600160a01b038781169382019390935291169063fc57d4df90602401602060405180830381865afa1580156128da573d6000803e3d6000fd5b505050506040513d601f19601f820116820180604052508101906128fe9190614e57565b60000361290c57600d61152b565b6001600160a01b03841660009081526016602052604090205480156129f1576000856001600160a01b03166347bd37186040518163ffffffff1660e01b8152600401602060405180830381865afa15801561296b573d6000803e3d6000fd5b505050506040513d601f19601f8201168201806040525081019061298f9190614e57565b9050600061299d82866140ed565b90508281106129ee5760405162461bcd60e51b815260206004820152601960248201527f6d61726b657420626f72726f77206361702072656163686564000000000000006044820152606401610be1565b50505b600080612a0186886000886138fa565b91935090915060009050826011811115612a1d57612a1d614e70565b14612a3e57816011811115612a3457612a34614e70565b9350505050611211565b8015612a4b576004612a34565b60006040518060200160405280896001600160a01b031663aa5af0fd6040518163ffffffff1660e01b8152600401602060405180830381865afa158015612a96573d6000803e3d6000fd5b505050506040513d601f19601f82011682018060405250810190612aba9190614e57565b90529050612ac888826130af565b612ad388888361330f565b600098975050505050505050565b60086020528160005260406000208181548110612afd57600080fd5b6000918252602090912001546001600160a01b03169150829050565b600080546001600160a01b03163314612b3f57612b3860016006614024565b9050610ce5565b6001600160a01b0383166000908152600960205260409020805460ff16612b7457612b6c60096007614024565b915050610ce5565b60408051602080820183528582528251908101909252670c7d713b49da0000825290612ba281835190511090565b15612bbd57612bb360066008614024565b9350505050610ce5565b8415801590612c3957506004805460405163fc57d4df60e01b81526001600160a01b038981169382019390935291169063fc57d4df90602401602060405180830381865afa158015612c13573d6000803e3d6000fd5b505050506040513d601f19601f82011682018060405250810190612c379190614e57565b155b15612c4a57612bb3600d6009614024565b60018301805490869055604080516001600160a01b0389168152602081018390529081018790527f70483e6592cd5182d45ac970e05bc62cdcc90e9d8ef2c2dbe686cf383bcd7fc59060600160405180910390a16000979650505050505050565b610ec981600d805480602002602001604051908101604052809291908181526020018280548015612d0557602002820191906000526020600020905b81546001600160a01b03168152600190910190602001808311612ce7575b5050505050610ceb565b600080612d1d8585856141e1565b90508015612d2c579050611211565b612d3585613c2a565b612d3f8585613e80565b600095945050505050565b6040516361bfb47160e11b815233600482015260009082908290819081906001600160a01b0385169063c37f68e290602401608060405180830381865afa158015612d99573d6000803e3d6000fd5b505050506040513d601f19601f82011682018060405250810190612dbd9190614ee8565b5092509250925082600014612e225760405162461bcd60e51b815260206004820152602560248201527f657869744d61726b65743a206765744163636f756e74536e617073686f742066604482015264185a5b195960da1b6064820152608401610be1565b8015612e3e57612e34600c6002614024565b9695505050505050565b6000612e4b8733856141e1565b90508015612e6b57612e60600e60038361440f565b979650505050505050565b6001600160a01b0385166000908152600960209081526040808320338452600281019092529091205460ff16612ea957600098975050505050505050565b3360009081526002820160209081526040808320805460ff191690556008825280832080548251818502810185019093528083529192909190830182828015612f1b57602002820191906000526020600020905b81546001600160a01b03168152600190910190602001808311612efd575b5050835193945083925060009150505b82811015612f7f57896001600160a01b0316848281518110612f4f57612f4f614e24565b60200260200101516001600160a01b031603612f6d57809150612f7f565b80612f7781614e9c565b915050612f2b565b50818110612f8f57612f8f614ed2565b33600090815260086020526040902080548190612fae90600190614f1e565b81548110612fbe57612fbe614e24565b9060005260206000200160009054906101000a90046001600160a01b0316818381548110612fee57612fee614e24565b9060005260206000200160006101000a8154816001600160a01b0302191690836001600160a01b031602179055508080548061302c5761302c614f31565b600082815260209020810160001990810180546001600160a01b03191690550190556040517fe699a64c18b07ac5b7301aa273f36a2287239eb9501d81950672794afba29a0d90613095908c9033906001600160a01b0392831681529116602082015260400190565b60405180910390a160009c9b505050505050505050505050565b6001600160a01b0382166000908152601160209081526040808320600f90925282205490914383549091506000906130f5908390600160e01b900463ffffffff166140d5565b90506000811180156131075750600083115b156132b5576000613179876001600160a01b03166347bd37186040518163ffffffff1660e01b8152600401602060405180830381865afa15801561314f573d6000803e3d6000fd5b505050506040513d601f19601f820116820180604052508101906131739190614e57565b87614487565b9050600061318783866140e1565b905060008083116131a757604051806020016040528060008152506131b1565b6131b182846144a5565b604080516020810190915288546001600160e01b031681529091506000906131d990836144e1565b9050604051806040016040528061322983600001516040518060400160405280601a81526020017f6e657720696e646578206578636565647320323234206269747300000000000081525061450d565b6001600160e01b03168152602001613264886040518060400160405280601c8152602001600080516020614fe283398151915281525061453c565b63ffffffff9081169091526001600160a01b038c16600090815260116020908152604090912083519390910151909116600160e01b026001600160e01b03909216919091179055506105fa92505050565b80156105fa576132e8826040518060400160405280601c8152602001600080516020614fe283398151915281525061453c565b845463ffffffff91909116600160e01b026001600160e01b03909116178455505050505050565b6001600160a01b0380841660008181526011602090815260408083208151808401835281546001600160e01b0316815282518085018452958552601384528285209689168086528785529285208054875281519390955295909252909155815190929190156105fa5760006133848383614564565b6040516395dd919360e01b81526001600160a01b0388811660048301529192506000916133d591908a16906395dd919390602401602060405180830381865afa15801561314f573d6000803e3d6000fd5b905060006133e38284614590565b6001600160a01b0389166000908152601460205260408120549192509061340a90836140ed565b6001600160a01b038a81166000818152601460209081526040918290208590558a518251888152918201529394509092918d16917f1fc3ecc087d8d2d15e23d0032af5a47059c3892d003d8e139fdcb6bb327c99a6910160405180910390a350505050505050505050565b600080546001600160a01b031633148061349957506002546001600160a01b031633145b905090565b60008073c00e94cb662c3520282e6f5717214004a7f268886040516370a0823160e01b81523060048201529091506000906001600160a01b038316906370a0823190602401602060405180830381865afa158015613500573d6000803e3d6000fd5b505050506040513d601f19601f820116820180604052508101906135249190614e57565b90506000841180156135365750808411155b156135ba5760405163a9059cbb60e01b81526001600160a01b0386811660048301526024820186905283169063a9059cbb906044016020604051808303816000875af115801561358a573d6000803e3d6000fd5b505050506040513d601f19601f820116820180604052508101906135ae9190614eb5565b50600092505050610ce5565b50919392505050565b6001600160a01b0382166000908152600f6020526040902054801561366e5760006040518060200160405280856001600160a01b031663aa5af0fd6040518163ffffffff1660e01b8152600401602060405180830381865afa15801561362d573d6000803e3d6000fd5b505050506040513d601f19601f820116820180604052508101906136519190614e57565b9052905061365e84613c2a565b61366884826130af565b50613899565b8115613899576001600160a01b0383166000908152600960205260409020805460ff1615156001146136e25760405162461bcd60e51b815260206004820152601960248201527f636f6d70206d61726b6574206973206e6f74206c6973746564000000000000006044820152606401610be1565b6001600160a01b0384166000908152601060205260409020546001600160e01b031615801561373457506001600160a01b038416600090815260106020526040902054600160e01b900463ffffffff16155b156137cf57604080518082019091526ec097ce7bc90715b34b9f1000000000815260208101613787435b6040518060400160405280601c8152602001600080516020614fe283398151915281525061453c565b63ffffffff9081169091526001600160a01b038616600090815260106020908152604090912083519390910151909116600160e01b026001600160e01b039092169190911790555b6001600160a01b0384166000908152601160205260409020546001600160e01b031615801561382157506001600160a01b038416600090815260116020526040902054600160e01b900463ffffffff16155b1561389757604080518082019091526ec097ce7bc90715b34b9f100000000081526020810161384f4361375e565b63ffffffff9081169091526001600160a01b038616600090815260116020908152604090912083519390910151909116600160e01b026001600160e01b039092169190911790555b505b8181146106d9576001600160a01b0383166000818152600f602052604090819020849055517f2ab93f65628379309f36cb125e90d7c902454a545c4f8b8cb0794af75c24b807906138ed9085815260200190565b60405180910390a2505050565b6000806000613907614627565b6001600160a01b03881660009081526008602090815260408083208054825181850281018501909352808352849383018282801561396e57602002820191906000526020600020905b81546001600160a01b03168152600190910190602001808311613950575b5050505050905060005b8151811015613bd457600082828151811061399557613995614e24565b60209081029190910101516040516361bfb47160e11b81526001600160a01b038e811660048301529192509082169063c37f68e290602401608060405180830381865afa1580156139ea573d6000803e3d6000fd5b505050506040513d601f19601f82011682018060405250810190613a0e9190614ee8565b60808901526060880152604087015293508315613a3a57600f60008097509750975050505050506114a4565b60408051602080820183526001600160a01b0384811660008181526009845285902060010154845260c08a01939093528351808301855260808a0151815260e08a015260048054855163fc57d4df60e01b815291820194909452935192169263fc57d4df92602480830193928290030181865afa158015613abf573d6000803e3d6000fd5b505050506040513d601f19601f82011682018060405250810190613ae39190614e57565b60a08601819052600003613b0657600d60008097509750975050505050506114a4565b604080516020810190915260a0860151815261010086015260c085015160e0860151613b4091613b359161438d565b86610100015161438d565b610120860181905260408601518651613b5a9291906145ba565b855261010085015160608601516020870151613b779291906145ba565b60208601526001600160a01b03808c1690821603613bc157613ba38561012001518b87602001516145ba565b60208601819052610100860151613bbb918b906145ba565b60208601525b5080613bcc81614e9c565b915050613978565b50602083015183511115613c055760208301518351600091613bf591614f1e565b60009550955095505050506114a4565b60008084600001518560200151613c1c9190614f1e565b9550955095505050506114a4565b6001600160a01b0381166000908152601060209081526040808320600f9092528220549091438354909150600090613c70908390600160e01b900463ffffffff166140d5565b9050600081118015613c825750600083115b15613e27576000856001600160a01b03166318160ddd6040518163ffffffff1660e01b8152600401602060405180830381865afa158015613cc7573d6000803e3d6000fd5b505050506040513d601f19601f82011682018060405250810190613ceb9190614e57565b90506000613cf983866140e1565b90506000808311613d195760405180602001604052806000815250613d23565b613d2382846144a5565b604080516020810190915288546001600160e01b03168152909150600090613d4b90836144e1565b90506040518060400160405280613d9b83600001516040518060400160405280601a81526020017f6e657720696e646578206578636565647320323234206269747300000000000081525061450d565b6001600160e01b03168152602001613dd6886040518060400160405280601c8152602001600080516020614fe283398151915281525061453c565b63ffffffff9081169091526001600160a01b038b16600090815260106020908152604090912083519390910151909116600160e01b026001600160e01b03909216919091179055506104e192505050565b80156104e157613e5a826040518060400160405280601c8152602001600080516020614fe283398151915281525061453c565b845463ffffffff91909116600160e01b026001600160e01b039091161784555050505050565b6001600160a01b0380831660008181526010602090815260408083208151808401835281546001600160e01b0316815282518085018452958552601284528285209688168086528785529285208054875281519390955295909252909155815190929190158015613ef15750815115155b15613f09576ec097ce7bc90715b34b9f100000000081525b6000613f158383614564565b6040516370a0823160e01b81526001600160a01b0387811660048301529192506000918816906370a0823190602401602060405180830381865afa158015613f61573d6000803e3d6000fd5b505050506040513d601f19601f82011682018060405250810190613f859190614e57565b90506000613f938284614590565b6001600160a01b03881660009081526014602052604081205491925090613fba90836140ed565b6001600160a01b038981166000818152601460209081526040918290208590558a518251888152918201529394509092918c16917f2caecd17d02f56fa897705dcc740da2d237c373f70686f4e0d9bd3bf0400ea7a910160405180910390a3505050505050505050565b60007f45b96fe442630264581b197e84bbada861235052c5a1aadfff9ea4e40a969aa083601181111561405957614059614e70565b83601381111561406b5761406b614e70565b60408051928352602083019190915260009082015260600160405180910390a182601181111561121157611211614e70565b60008060006140b08460008060006138fa565b9250925092509193909250565b6000806140ca84846145db565b9050610f8281614603565b60006112118284614f1e565b60006112118284614f47565b60006112118284614f5e565b60005b600d5481101561418e57816001600160a01b0316600d828154811061412357614123614e24565b6000918252602090912001546001600160a01b03160361417c5760405162461bcd60e51b81526020600482015260146024820152731b585c9ad95d08185b1c9958591e48185919195960621b6044820152606401610be1565b8061418681614e9c565b9150506140fc565b50600d80546001810182556000919091527fd7b6990105719101dabeb77144f2a3385c8033acd3af97e9423a695e81ad1eb50180546001600160a01b0319166001600160a01b0392909216919091179055565b6001600160a01b03831660009081526009602052604081205460ff1661420857600961152b565b6001600160a01b038085166000908152600960209081526040808320938716835260029093019052205460ff1661424057600061152b565b60008061425085878660006138fa565b9193509091506000905082601181111561426c5761426c614e70565b1461428c5781601181111561428357614283614e70565b92505050611211565b8015612702576004614283565b6001600160a01b0382166000908152600960205260408120805460ff166142c4576009915050610ce5565b6001600160a01b038316600090815260028201602052604090205460ff1615156001036142f5576000915050610ce5565b6001600160a01b03838116600081815260028401602090815260408083208054600160ff199091168117909155600883528184208054918201815584529282902090920180546001600160a01b031916948916948517905581519384528301919091527f3ab23ab0d51cccc0c3085aec51f99228625aa1a922b3a8ca89a26b0f2027a1a5910160405180910390a15060009392505050565b6040805160208101909152600081526040518060200160405280670de0b6b3a76400006143c2866000015186600001516140e1565b6143cc9190614f71565b90529392505050565b60408051602081019091526000815260405180602001604052806143cc6144088660000151670de0b6b3a76400006140e1565b855161461b565b60007f45b96fe442630264581b197e84bbada861235052c5a1aadfff9ea4e40a969aa084601181111561444457614444614e70565b84601381111561445657614456614e70565b604080519283526020830191909152810184905260600160405180910390a1836011811115610f8257610f82614e70565b600061121161449e84670de0b6b3a76400006140e1565b835161461b565b60408051602081019091526000815260405180602001604052806143cc6144db866ec097ce7bc90715b34b9f10000000006140e1565b8561461b565b60408051602081019091526000815260405180602001604052806143cc856000015185600001516140ed565b600081600160e01b84106145345760405162461bcd60e51b8152600401610be19190614f93565b509192915050565b60008164010000000084106145345760405162461bcd60e51b8152600401610be19190614f93565b60408051602081019091526000815260405180602001604052806143cc856000015185600001516140d5565b60006ec097ce7bc90715b34b9f10000000006145b08484600001516140e1565b6112119190614f71565b6000806145c785856145db565b905061199c6145d582614603565b846140ed565b60408051602081019091526000815260405180602001604052806143cc8560000151856140e1565b8051600090610ce590670de0b6b3a764000090614f71565b60006112118284614f71565b6040518061014001604052806000815260200160008152602001600081526020016000815260200160008152602001600081526020016146736040518060200160405280600081525090565b815260200161468e6040518060200160405280600081525090565b81526020016146a96040518060200160405280600081525090565b81526020016146c46040518060200160405280600081525090565b905290565b6001600160a01b0381168114610ec957600080fd5b8015158114610ec957600080fd5b600080604083850312156146ff57600080fd5b823561470a816146c9565b9150602083013561471a816146de565b809150509250929050565b634e487b7160e01b600052604160045260246000fd5b604051601f8201601f1916810167ffffffffffffffff8111828210171561476457614764614725565b604052919050565b600067ffffffffffffffff82111561478657614786614725565b5060051b60200190565b600082601f8301126147a157600080fd5b813560206147b66147b18361476c565b61473b565b82815260059290921b840181019181810190868411156147d557600080fd5b8286015b848110156147f95780356147ec816146c9565b83529183019183016147d9565b509695505050505050565b6000806040838503121561481757600080fd5b8235614822816146c9565b9150602083013567ffffffffffffffff81111561483e57600080fd5b61484a85828601614790565b9150509250929050565b60006020828403121561486657600080fd5b8135611211816146c9565b600080600080600060a0868803121561488957600080fd5b8535614894816146c9565b945060208601356148a4816146c9565b935060408601356148b4816146c9565b94979396509394606081013594506080013592915050565b600080600080608085870312156148e257600080fd5b84356148ed816146c9565b935060208501356148fd816146c9565b9250604085013561490d816146c9565b9396929550929360600135925050565b6000806040838503121561493057600080fd5b823561493b816146c9565b946020939093013593505050565b60006020828403121561495b57600080fd5b8135611211816146de565b60006020828403121561497857600080fd5b5035919050565b6000806000806080858703121561499557600080fd5b84356149a0816146c9565b935060208501356149b0816146c9565b93969395505050506040820135916060013590565b60008060008060008060c087890312156149de57600080fd5b86356149e9816146c9565b955060208701356149f9816146c9565b94506040870135614a09816146c9565b93506060870135614a19816146c9565b9598949750929560808101359460a0909101359350915050565b600080600060608486031215614a4857600080fd5b8335614a53816146c9565b92506020840135614a63816146c9565b929592945050506040919091013590565b600080600080600060a08688031215614a8c57600080fd5b8535614a97816146c9565b94506020860135614aa7816146c9565b93506040860135614ab7816146c9565b92506060860135614ac7816146c9565b949793965091946080013592915050565b60008083601f840112614aea57600080fd5b50813567ffffffffffffffff811115614b0257600080fd5b6020830191508360208260051b8501011115614b1d57600080fd5b9250929050565b60008060008060408587031215614b3a57600080fd5b843567ffffffffffffffff80821115614b5257600080fd5b614b5e88838901614ad8565b90965094506020870135915080821115614b7757600080fd5b50614b8487828801614ad8565b95989497509550505050565b600082601f830112614ba157600080fd5b81356020614bb16147b18361476c565b82815260059290921b84018101918181019086841115614bd057600080fd5b8286015b848110156147f9578035614be7816146c9565b8352918301918301614bd4565b60008060008060808587031215614c0a57600080fd5b843567ffffffffffffffff80821115614c2257600080fd5b614c2e88838901614b90565b95506020870135915080821115614c4457600080fd5b50614c5187828801614790565b9350506040850135614c62816146de565b91506060850135614c72816146de565b939692955090935050565b60008060408385031215614c9057600080fd5b8235614c9b816146c9565b9150602083013561471a816146c9565b6020808252825182820181905260009190848201906040850190845b81811015614cec5783516001600160a01b031683529284019291840191600101614cc7565b50909695505050505050565b600060208284031215614d0a57600080fd5b813567ffffffffffffffff811115614d2157600080fd5b610f8284828501614b90565b6020808252825182820181905260009190848201906040850190845b81811015614cec57835183529284019291840191600101614d49565b60208082526028908201527f63616e6e6f742070617573652061206d61726b65742074686174206973206e6f6040820152671d081b1a5cdd195960c21b606082015260800190565b60208082526027908201527f6f6e6c7920706175736520677561726469616e20616e642061646d696e2063616040820152666e20706175736560c81b606082015260800190565b6020808252601690820152756f6e6c792061646d696e2063616e20756e706175736560501b604082015260600190565b634e487b7160e01b600052603260045260246000fd5b600060208284031215614e4c57600080fd5b8151611211816146c9565b600060208284031215614e6957600080fd5b5051919050565b634e487b7160e01b600052602160045260246000fd5b634e487b7160e01b600052601160045260246000fd5b600060018201614eae57614eae614e86565b5060010190565b600060208284031215614ec757600080fd5b8151611211816146de565b634e487b7160e01b600052600160045260246000fd5b60008060008060808587031215614efe57600080fd5b505082516020840151604085015160609095015191969095509092509050565b81810381811115610ce557610ce5614e86565b634e487b7160e01b600052603160045260246000fd5b8082028115828204841417610ce557610ce5614e86565b80820180821115610ce557610ce5614e86565b600082614f8e57634e487b7160e01b600052601260045260246000fd5b500490565b600060208083528351808285015260005b81811015614fc057858101830151858201604001528201614fa4565b506000604082860101526040601f19601f830116850101925050509291505056fe626c6f636b206e756d6265722065786365656473203332206269747300000000a2646970667358221220085a02fb35619f361f90718158f762d2ca1e24785f474d12205b6666353f0d1d64736f6c63430008150033","linkReferences":{}},"methodIdentifiers":{"_become(address)":"1d504dc6","_borrowGuardianPaused()":"e6653f3d","_grantComp(address,uint256)":"27efe3cb","_mintGuardianPaused()":"3c94786f","_setBorrowCapGuardian(address)":"391957d7","_setBorrowPaused(address,bool)":"18c882a5","_setCloseFactor(uint256)":"317b0b77","_setCollateralFactor(address,uint256)":"e4028eee","_setCompSpeed(address,uint256)":"434caf25","_setContributorCompSpeed(address,uint256)":"598ee1cb","_setLiquidationIncentive(uint256)":"4fd42e17","_setMarketBorrowCaps(address[],uint256[])":"607ef6c1","_setMintPaused(address,bool)":"3bcf7ec1","_setPauseGuardian(address)":"5f5af1aa","_setPriceOracle(address)":"55ee1fe1","_setSeizePaused(bool)":"2d70db78","_setTransferPaused(bool)":"8ebf6364","_supportMarket(address)":"a76b3fda","accountAssets(address,uint256)":"dce15449","admin()":"f851a440","allMarkets(uint256)":"52d84d1e","borrowAllowed(address,address,uint256)":"da3d454c","borrowCapGuardian()":"21af4569","borrowCaps(address)":"4a584432","borrowGuardianPaused(address)":"6d154ea5","borrowVerify(address,address,uint256)":"5c778605","checkMembership(address,address)":"929fe9a1","claimComp(address)":"e9af0292","claimComp(address,address[])":"1c3db2e0","claimComp(address[],address[],bool,bool)":"6810dfa6","closeFactorMantissa()":"e8755446","compAccrued(address)":"cc7ebdc4","compBorrowState(address)":"8c57804e","compBorrowerIndex(address,address)":"ca0af043","compContributorSpeeds(address)":"986ab838","compInitialIndex()":"a7f0e231","compRate()":"aa900754","compSpeeds(address)":"1d7b33d7","compSupplierIndex(address,address)":"b21be7fd","compSupplyState(address)":"6b79c38d","comptrollerImplementation()":"bb82aa5e","enterMarkets(address[])":"c2998238","exitMarket(address)":"ede4edd0","getAccountLiquidity(address)":"5ec88c79","getAllMarkets()":"b0772d0b","getAssetsIn(address)":"abfceffc","getBlockNumber()":"42cbb15c","getCompAddress()":"9d1b5a0a","getHypotheticalAccountLiquidity(address,address,uint256,uint256)":"4e79238f","isComptroller()":"007e3dd2","lastContributorBlock(address)":"bea6b8b8","liquidateBorrowAllowed(address,address,address,address,uint256)":"5fc7e71e","liquidateBorrowVerify(address,address,address,address,uint256,uint256)":"47ef3b3b","liquidateCalculateSeizeTokens(address,address,uint256)":"c488847b","liquidationIncentiveMantissa()":"4ada90af","markets(address)":"8e8f294b","maxAssets()":"94b2294b","mintAllowed(address,address,uint256)":"4ef4c3e1","mintGuardianPaused(address)":"731f0c2b","mintVerify(address,address,uint256,uint256)":"41c728b9","oracle()":"7dc0d1d0","pauseGuardian()":"24a3d622","pendingAdmin()":"26782247","pendingComptrollerImplementation()":"dcfbc0c7","redeemAllowed(address,address,uint256)":"eabe7d91","redeemVerify(address,address,uint256,uint256)":"51dff989","repayBorrowAllowed(address,address,address,uint256)":"24008a62","repayBorrowVerify(address,address,address,uint256,uint256)":"1ededc91","seizeAllowed(address,address,address,address,uint256)":"d02f7351","seizeGuardianPaused()":"ac0b0bb7","seizeVerify(address,address,address,address,uint256)":"6d35bf91","transferAllowed(address,address,address,uint256)":"bdcdc258","transferGuardianPaused()":"87f76303","transferVerify(address,address,address,uint256)":"6a56947e","updateContributorRewards(address)":"741b2525"},"id":2}