{
  "abi": [
    {
      "inputs": [
        {
          "internalType": "uint256",
          "name": "baseRatePerYear",
          "type": "uint256"
        },
        {
          "internalType": "uint256",
          "name": "multiplierPerYear",
          "type": "uint256"
        }
      ],
      "stateMutability": "nonpayable",
      "type": "constructor"
    },
    {
      "anonymous": false,
      "inputs": [
        {
          "indexed": false,
          "internalType": "uint256",
          "name": "baseRatePerBlock",
          "type": "uint256"
        },
        {
          "indexed": false,
          "internalType": "uint256",
          "name": "multiplierPerBlock",
          "type": "uint256"
        }
      ],
      "name": "NewInterestParams",
      "type": "event"
    },
    {
      "inputs": [],
      "name": "baseRatePerBlock",
      "outputs": [
        {
          "internalType": "uint256",
          "name": "",
          "type": "uint256"
        }
      ],
      "stateMutability": "view",
      "type": "function"
    },
    {
      "inputs": [],
      "name": "blocksPerYear",
      "outputs": [
        {
          "internalType": "uint256",
          "name": "",
          "type": "uint256"
        }
      ],
      "stateMutability": "view",
      "type": "function"
    },
    {
      "inputs": [
        {
          "internalType": "uint256",
          "name": "cash",
          "type": "uint256"
        },
        {
          "internalType": "uint256",
          "name": "borrows",
          "type": "uint256"
        },
        {
          "internalType": "uint256",
          "name": "reserves",
          "type": "uint256"
        }
      ],
      "name": "getBorrowRate",
      "outputs": [
        {
          "internalType": "uint256",
          "name": "",
          "type": "uint256"
        }
      ],
      "stateMutability": "view",
      "type": "function"
    },
    {
      "inputs": [
        {
          "internalType": "uint256",
          "name": "cash",
          "type": "uint256"
        },
        {
          "internalType": "uint256",
          "name": "borrows",
          "type": "uint256"
        },
        {
          "internalType": "uint256",
          "name": "reserves",
          "type": "uint256"
        },
        {
          "internalType": "uint256",
          "name": "reserveFactorMantissa",
          "type": "uint256"
        }
      ],
      "name": "getSupplyRate",
      "outputs": [
        {
          "internalType": "uint256",
          "name": "",
          "type": "uint256"
        }
      ],
      "stateMutability": "view",
      "type": "function"
    },
    {
      "inputs": [],
      "name": "isInterestRateModel",
      "outputs": [
        {
          "internalType": "bool",
          "name": "",
          "type": "bool"
        }
      ],
      "stateMutability": "view",
      "type": "function"
    },
    {
      "inputs": [],
      "name": "multiplierPerBlock",
      "outputs": [
        {
          "internalType": "uint256",
          "name": "",
          "type": "uint256"
        }
      ],
      "stateMutability": "view",
      "type": "function"
    },
    {
      "inputs": [
        {
          "internalType": "uint256",
          "name": "cash",
          "type": "uint256"
        },
        {
          "internalType": "uint256",
          "name": "borrows",
          "type": "uint256"
        },
        {
          "internalType": "uint256",
          "name": "reserves",
          "type": "uint256"
        }
      ],
      "name": "utilizationRate",
      "outputs": [
        {
          "internalType": "uint256",
          "name": "",
          "type": "uint256"
        }
      ],
      "stateMutability": "pure",
      "type": "function"
    }
  ],
  "bytecode": {
    "object": "0x60803461009457601f61036138819003918201601f19168301916001600160401b038311848410176100995780849260409485528339810103126100945760408160207ff35fa19c15e9ba782633a5df62a98b20217151addc68e3ff2cd623a48d37ec27935191015190622014808091049182600155048060005582519182526020820152a16040516102b190816100b08239f35b600080fd5b634e487b7160e01b600052604160045260246000fdfe604060808152600436101561001357600080fd5b600090813560e01c806315f240531461017b5780632191f92a146101605780636e71e2d81461013e5780638726bb8914610122578063a385fb9614610105578063b81688161461008d5763f14039de1461006c57600080fd5b346100895781600319360112610089576020906001549051908152f35b5080fd5b5034610089576080366003190112610089576004359160243560443590670de0b6b3a7640000926064358403908482116100f157508282856100e26100dd946100dd6100e9988c9860209d6101eb565b6101b5565b049361021b565b049051908152f35b634e487b7160e01b81526011600452602490fd5b503461008957816003193601126100895760209051622014808152f35b5034610089578160031936011261008957602091549051908152f35b50346100895760209061015961015336610196565b9161021b565b9051908152f35b50346100895781600319360112610089576020905160018152f35b50346100895760209061015961019036610196565b916101eb565b60609060031901126101b057600435906024359060443590565b600080fd5b818102929181159184041417156101c857565b634e487b7160e01b600052601160045260246000fd5b919082018092116101c857565b61020561021893670de0b6b3a76400009361020e9361021b565b600054906101b5565b04600154906101de565b90565b811561027357670de0b6b3a7640000820291670de0b6b3a763ffff19818404016101c857610248916101de565b91808303928084116101c8571461025d570490565b634e487b7160e01b600052601260045260246000fd5b50505060009056fea2646970667358221220563bf266276a877595fc29b9d97219425261bf35c8e782f7abfa8e91b8464eb064736f6c63430008170033",
    "linkReferences": {}
  },
  "methodIdentifiers": {
    "baseRatePerBlock()": "f14039de",
    "blocksPerYear()": "a385fb96",
    "getBorrowRate(uint256,uint256,uint256)": "15f24053",
    "getSupplyRate(uint256,uint256,uint256,uint256)": "b8168816",
    "isInterestRateModel()": "2191f92a",
    "multiplierPerBlock()": "8726bb89",
    "utilizationRate(uint256,uint256,uint256)": "6e71e2d8"
  },
  "id": 17
}