{"abi":[{"type":"constructor","inputs":[{"name":"baseRatePerYear","type":"uint256","internalType":"uint256"},{"name":"multiplierPerYear","type":"uint256","internalType":"uint256"}],"stateMutability":"nonpayable"},{"type":"function","name":"baseRatePerBlock","inputs":[],"outputs":[{"name":"","type":"uint256","internalType":"uint256"}],"stateMutability":"view"},{"type":"function","name":"blocksPerYear","inputs":[],"outputs":[{"name":"","type":"uint256","internalType":"uint256"}],"stateMutability":"view"},{"type":"function","name":"getBorrowRate","inputs":[{"name":"cash","type":"uint256","internalType":"uint256"},{"name":"borrows","type":"uint256","internalType":"uint256"},{"name":"reserves","type":"uint256","internalType":"uint256"}],"outputs":[{"name":"","type":"uint256","internalType":"uint256"}],"stateMutability":"view"},{"type":"function","name":"getSupplyRate","inputs":[{"name":"cash","type":"uint256","internalType":"uint256"},{"name":"borrows","type":"uint256","internalType":"uint256"},{"name":"reserves","type":"uint256","internalType":"uint256"},{"name":"reserveFactorMantissa","type":"uint256","internalType":"uint256"}],"outputs":[{"name":"","type":"uint256","internalType":"uint256"}],"stateMutability":"view"},{"type":"function","name":"isInterestRateModel","inputs":[],"outputs":[{"name":"","type":"bool","internalType":"bool"}],"stateMutability":"view"},{"type":"function","name":"multiplierPerBlock","inputs":[],"outputs":[{"name":"","type":"uint256","internalType":"uint256"}],"stateMutability":"view"},{"type":"function","name":"utilizationRate","inputs":[{"name":"cash","type":"uint256","internalType":"uint256"},{"name":"borrows","type":"uint256","internalType":"uint256"},{"name":"reserves","type":"uint256","internalType":"uint256"}],"outputs":[{"name":"","type":"uint256","internalType":"uint256"}],"stateMutability":"pure"},{"type":"event","name":"NewInterestParams","inputs":[{"name":"baseRatePerBlock","type":"uint256","indexed":false,"internalType":"uint256"},{"name":"multiplierPerBlock","type":"uint256","indexed":false,"internalType":"uint256"}],"anonymous":false}],"bytecode":{"object":"0x608060405234801561001057600080fd5b5060405161040f38038061040f83398101604081905261002f91610099565b61003c62201480836100bd565b60015561004c62201480826100bd565b60008190556001546040517ff35fa19c15e9ba782633a5df62a98b20217151addc68e3ff2cd623a48d37ec279261008a928252602082015260400190565b60405180910390a150506100df565b600080604083850312156100ac57600080fd5b505080516020909101519092909150565b6000826100da57634e487b7160e01b600052601260045260246000fd5b500490565b610321806100ee6000396000f3fe608060405234801561001057600080fd5b506004361061007d5760003560e01c80638726bb891161005b5780638726bb89146100d3578063a385fb96146100dc578063b8168816146100e6578063f14039de146100f957600080fd5b806315f24053146100825780632191f92a146100a85780636e71e2d8146100c0575b600080fd5b610095610090366004610212565b610102565b6040519081526020015b60405180910390f35b6100b0600181565b604051901515815260200161009f565b6100956100ce366004610212565b61014b565b61009560005481565b6100956220148081565b6100956100f436600461023e565b610196565b61009560015481565b60008061011085858561014b565b9050600154670de0b6b3a76400006000548361012c9190610286565b61013691906102a3565b61014091906102c5565b9150505b9392505050565b60008260000361015d57506000610144565b8161016884866102c5565b61017291906102d8565b610184670de0b6b3a764000085610286565b61018e91906102a3565b949350505050565b6000806101ab83670de0b6b3a76400006102d8565b905060006101ba878787610102565b90506000670de0b6b3a76400006101d18484610286565b6101db91906102a3565b9050670de0b6b3a7640000816101f28a8a8a61014b565b6101fc9190610286565b61020691906102a3565b98975050505050505050565b60008060006060848603121561022757600080fd5b505081359360208301359350604090920135919050565b6000806000806080858703121561025457600080fd5b5050823594602084013594506040840135936060013592509050565b634e487b7160e01b600052601160045260246000fd5b808202811582820484141761029d5761029d610270565b92915050565b6000826102c057634e487b7160e01b600052601260045260246000fd5b500490565b8082018082111561029d5761029d610270565b8181038181111561029d5761029d61027056fea26469706673582212200b646bd024d10ead13a9dd8f21335ef9a97a203ba2fef9ecca1f79fb4790162b64736f6c63430008150033","linkReferences":{}},"methodIdentifiers":{"baseRatePerBlock()":"f14039de","blocksPerYear()":"a385fb96","getBorrowRate(uint256,uint256,uint256)":"15f24053","getSupplyRate(uint256,uint256,uint256,uint256)":"b8168816","isInterestRateModel()":"2191f92a","multiplierPerBlock()":"8726bb89","utilizationRate(uint256,uint256,uint256)":"6e71e2d8"},"id":17}