{
  "abi": [
    {
      "inputs": [],
      "name": "ADDRESSES_PROVIDER",
      "outputs": [
        {
          "internalType": "contract IPoolAddressesProvider",
          "name": "",
          "type": "address"
        }
      ],
      "stateMutability": "view",
      "type": "function"
    },
    {
      "inputs": [],
      "name": "POOL",
      "outputs": [
        {
          "internalType": "contract IPool",
          "name": "",
          "type": "address"
        }
      ],
      "stateMutability": "view",
      "type": "function"
    },
    {
      "inputs": [],
      "name": "USDC",
      "outputs": [
        {
          "internalType": "address",
          "name": "",
          "type": "address"
        }
      ],
      "stateMutability": "view",
      "type": "function"
    },
    {
      "inputs": [
        {
          "internalType": "bytes",
          "name": "_params",
          "type": "bytes"
        }
      ],
      "name": "execute",
      "outputs": [],
      "stateMutability": "nonpayable",
      "type": "function"
    },
    {
      "inputs": [
        {
          "internalType": "address",
          "name": "assets",
          "type": "address"
        },
        {
          "internalType": "uint256",
          "name": "amounts",
          "type": "uint256"
        },
        {
          "internalType": "uint256",
          "name": "premiums",
          "type": "uint256"
        },
        {
          "internalType": "address",
          "name": "initiator",
          "type": "address"
        },
        {
          "internalType": "bytes",
          "name": "params",
          "type": "bytes"
        }
      ],
      "name": "executeOperation",
      "outputs": [
        {
          "internalType": "bool",
          "name": "",
          "type": "bool"
        }
      ],
      "stateMutability": "nonpayable",
      "type": "function"
    },
    {
      "inputs": [],
      "name": "factory",
      "outputs": [
        {
          "internalType": "contract IUniswapV2Factory",
          "name": "",
          "type": "address"
        }
      ],
      "stateMutability": "view",
      "type": "function"
    },
    {
      "inputs": [],
      "name": "router",
      "outputs": [
        {
          "internalType": "contract IUniswapV2Router02",
          "name": "",
          "type": "address"
        }
      ],
      "stateMutability": "view",
      "type": "function"
    },
    {
      "inputs": [],
      "name": "withdraw",
      "outputs": [],
      "stateMutability": "nonpayable",
      "type": "function"
    }
  ],
  "bytecode": {
    "object": "0x608080604052346100955773e592427a0aece92de3edee1f18e0157c0586156460018060a01b0319737a250d5630b4cf539739df2c5dacb4c659f2488d816000541617600055735c69bee701ef814a2b6a3edd4b1652cb9cc5aa6f81600154161760015573a0b86991c6218b36c1d19d4a2e9eb0ce3606eb488160025416176002556003541617600355610b95908161009b8239f35b600080fdfe608080604052600436101561001357600080fd5b600090813560e01c9081630542975c1461097a5750806309c5eabe146108495780631b11d0ff1461021a5780633ccfd60b146101215780637535d246146100f457806389a30271146100cb578063c45a0155146100a25763f887ea401461007957600080fd5b3461009f578060031936011261009f57546040516001600160a01b039091168152602090f35b80fd5b503461009f578060031936011261009f576001546040516001600160a01b039091168152602090f35b503461009f578060031936011261009f576002546040516001600160a01b039091168152602090f35b503461009f578060031936011261009f57602061010f610a40565b6040516001600160a01b039091168152f35b503461009f578060031936011261009f576002546040516370a0823160e01b81523060048201526020918391906001600160a01b03168382602481845afa80156101d557849284916101e0575b5060405163a9059cbb60e01b8152336004820152602481019190915292839190829081604481015b03925af180156101d5576101a8578280f35b816101c792903d106101ce575b6101bf8183610a06565b810190610a28565b5038808280f35b503d6101b5565b6040513d85823e3d90fd5b9350509082813d8311610213575b6101f88183610a06565b8101031261020e5790518391839161019661016e565b600080fd5b503d6101ee565b503461009f5760a036600319011261009f576004356001600160a01b038116810361020e576064356001600160a01b0381160361020e5760843567ffffffffffffffff81116108455761027360c09136906004016109a8565b908092918101031261084557610288816109d6565b83610295602084016109d6565b6102a1604085016109d6565b926102ba60806102b3606088016109d6565b96016109d6565b60405163095ea7b360e01b81526001600160a01b0380871660048301526000196024830152919590916020908390604490829089908c165af18015610738578593602093606492610828575b50604051637af1e23160e11b81526001600160a01b039182166004820152602480359082015286821660448201529485938492165af180156101d5576107f9575b506040516370a0823160e01b81523060048201526020816024816001600160a01b0386165afa9081156101d55783916107c1575b5060405163db006a7560e01b815260048101919091529160209183916024918391906001600160a01b03165af1801561073857610796575b506040516370a0823160e01b81523060048201526020816024816001600160a01b0386165afa8015610738578590610762575b61042691506040516103f7816109ea565b601b81527f554e492062616c616e6365206166746572206c697175696461746500000000006020820152610ad4565b60035460405163095ea7b360e01b81526001600160a01b03918216600482015260001960248201529060209082906044908290899087165af1801561073857610743575b506040516370a0823160e01b81523060048201526020816024816001600160a01b0386165afa908115610738578591610706575b5060405161010081019181831067ffffffffffffffff8411176106f05760409283526001600160a01b0393841682528584166020838101918252610bb88486019081523060608601908152426080870190815260a0870195865260c087018c815260e088018d8152600354995163414bf38960e01b815298518b1660048a015295518a166024890152925162ffffff166044880152905188166064870152516084860152925160a4850152915160c484015251841660e48301529092909183916101049183918991165af180156106e5576106ba575b506040516370a0823160e01b815230600482015290602090829060249082906001600160a01b03165afa80156101d5578390610686575b6105eb91506040516105bc816109ea565b601a81527f555344432062616c616e6365206265666f7265207265706179200000000000006020820152610ad4565b6044356024350180602435116106725760405163095ea7b360e01b8152336004820152602481019190915291906020908390604490829085906001600160a01b03165af19081156106665750610647575b602060405160018152f35b61065f9060203d6020116101ce576101bf8183610a06565b503861063c565b604051903d90823e3d90fd5b634e487b7160e01b83526011600452602483fd5b506020813d6020116106b2575b816106a060209383610a06565b8101031261020e576105eb90516105ab565b3d9150610693565b602090813d83116106de575b6106d08183610a06565b8101031261020e5738610574565b503d6106c6565b6040513d86823e3d90fd5b634e487b7160e01b600052604160045260246000fd5b90506020813d602011610730575b8161072160209383610a06565b8101031261020e57513861049e565b3d9150610714565b6040513d87823e3d90fd5b61075b9060203d6020116101ce576101bf8183610a06565b503861046a565b506020813d60201161078e575b8161077c60209383610a06565b8101031261020e5761042690516103e6565b3d915061076f565b602090813d83116107ba575b6107ac8183610a06565b8101031261020e57386103b3565b503d6107a2565b919250506020813d6020116107f1575b816107de60209383610a06565b8101031261020e5751859190602461037b565b3d91506107d1565b6020809293503d8311610821575b6108118183610a06565b8101031261020e57849038610347565b503d610807565b61083e90853d87116101ce576101bf8183610a06565b5038610306565b8280fd5b503461009f57602036600319011261009f578067ffffffffffffffff6004358181116109765761087d9036906004016109a8565b929060c081858101031261097257610894816109d6565b506108a1602082016109d6565b506108ae604082016109d6565b506108bb606082016109d6565b6108c7608083016109d6565b506001600160a01b03806108d9610a40565b1691823b1561096e5760c4859188604051998a97889687946310ac2ddf60e21b865230600487015216602485015260a0810135604485015260a060648501528160a48501528484013783838284010152836084830152601f801991011681010301925af180156101d55761094b578280f35b811161095a5760405238808280f35b634e487b7160e01b82526041600452602482fd5b8480fd5b5080fd5b5050fd5b90503461097257816003193601126109725780732f39d218133afab8f2b819b1066c7e434ad94e9e60209252f35b9181601f8401121561020e5782359167ffffffffffffffff831161020e576020838186019501011161020e57565b35906001600160a01b038216820361020e57565b6040810190811067ffffffffffffffff8211176106f057604052565b90601f8019910116810190811067ffffffffffffffff8211176106f057604052565b9081602091031261020e5751801515810361020e5790565b60405163026b1d5f60e01b8152602081600481732f39d218133afab8f2b819b1066c7e434ad94e9e5afa908115610ac857600091610a86575b506001600160a01b031690565b6020813d602011610ac0575b81610a9f60209383610a06565b810103126109725751906001600160a01b038216820361009f575038610a79565b3d9150610a92565b6040513d6000823e3d90fd5b604051906020926020830193632d839cb360e21b85526040602485015282519283606486015260005b848110610b4b5750505091610b3860848284600097959688848199850101526044830152601f80199101168101036064810184520182610a06565b51906a636f6e736f6c652e6c6f675afa50565b818101830151868201608401528201610afd56fea26469706673582212203976050d618f0e0350ff750bd941bf76bf76b99165993ff4ec984e5b6831d9da64736f6c63430008170033",
    "linkReferences": {}
  },
  "methodIdentifiers": {
    "ADDRESSES_PROVIDER()": "0542975c",
    "POOL()": "7535d246",
    "USDC()": "89a30271",
    "execute(bytes)": "09c5eabe",
    "executeOperation(address,uint256,uint256,address,bytes)": "1b11d0ff",
    "factory()": "c45a0155",
    "router()": "f887ea40",
    "withdraw()": "3ccfd60b"
  },
  "id": 54
}