{"abi":[{"type":"constructor","inputs":[{"name":"underlying_","type":"address","internalType":"address"},{"name":"comptroller_","type":"address","internalType":"contract ComptrollerInterface"},{"name":"interestRateModel_","type":"address","internalType":"contract InterestRateModel"},{"name":"initialExchangeRateMantissa_","type":"uint256","internalType":"uint256"},{"name":"name_","type":"string","internalType":"string"},{"name":"symbol_","type":"string","internalType":"string"},{"name":"decimals_","type":"uint8","internalType":"uint8"},{"name":"admin_","type":"address","internalType":"address payable"},{"name":"implementation_","type":"address","internalType":"address"},{"name":"becomeImplementationData","type":"bytes","internalType":"bytes"}],"stateMutability":"nonpayable"},{"type":"fallback","stateMutability":"payable"},{"type":"function","name":"_acceptAdmin","inputs":[],"outputs":[{"name":"","type":"uint256","internalType":"uint256"}],"stateMutability":"nonpayable"},{"type":"function","name":"_addReserves","inputs":[{"name":"addAmount","type":"uint256","internalType":"uint256"}],"outputs":[{"name":"","type":"uint256","internalType":"uint256"}],"stateMutability":"nonpayable"},{"type":"function","name":"_reduceReserves","inputs":[{"name":"reduceAmount","type":"uint256","internalType":"uint256"}],"outputs":[{"name":"","type":"uint256","internalType":"uint256"}],"stateMutability":"nonpayable"},{"type":"function","name":"_setComptroller","inputs":[{"name":"newComptroller","type":"address","internalType":"contract ComptrollerInterface"}],"outputs":[{"name":"","type":"uint256","internalType":"uint256"}],"stateMutability":"nonpayable"},{"type":"function","name":"_setImplementation","inputs":[{"name":"implementation_","type":"address","internalType":"address"},{"name":"allowResign","type":"bool","internalType":"bool"},{"name":"becomeImplementationData","type":"bytes","internalType":"bytes"}],"outputs":[],"stateMutability":"nonpayable"},{"type":"function","name":"_setInterestRateModel","inputs":[{"name":"newInterestRateModel","type":"address","internalType":"contract InterestRateModel"}],"outputs":[{"name":"","type":"uint256","internalType":"uint256"}],"stateMutability":"nonpayable"},{"type":"function","name":"_setPendingAdmin","inputs":[{"name":"newPendingAdmin","type":"address","internalType":"address payable"}],"outputs":[{"name":"","type":"uint256","internalType":"uint256"}],"stateMutability":"nonpayable"},{"type":"function","name":"_setReserveFactor","inputs":[{"name":"newReserveFactorMantissa","type":"uint256","internalType":"uint256"}],"outputs":[{"name":"","type":"uint256","internalType":"uint256"}],"stateMutability":"nonpayable"},{"type":"function","name":"accrualBlockNumber","inputs":[],"outputs":[{"name":"","type":"uint256","internalType":"uint256"}],"stateMutability":"view"},{"type":"function","name":"accrueInterest","inputs":[],"outputs":[{"name":"","type":"uint256","internalType":"uint256"}],"stateMutability":"nonpayable"},{"type":"function","name":"admin","inputs":[],"outputs":[{"name":"","type":"address","internalType":"address payable"}],"stateMutability":"view"},{"type":"function","name":"allowance","inputs":[{"name":"owner","type":"address","internalType":"address"},{"name":"spender","type":"address","internalType":"address"}],"outputs":[{"name":"","type":"uint256","internalType":"uint256"}],"stateMutability":"view"},{"type":"function","name":"approve","inputs":[{"name":"spender","type":"address","internalType":"address"},{"name":"amount","type":"uint256","internalType":"uint256"}],"outputs":[{"name":"","type":"bool","internalType":"bool"}],"stateMutability":"nonpayable"},{"type":"function","name":"balanceOf","inputs":[{"name":"owner","type":"address","internalType":"address"}],"outputs":[{"name":"","type":"uint256","internalType":"uint256"}],"stateMutability":"view"},{"type":"function","name":"balanceOfUnderlying","inputs":[{"name":"owner","type":"address","internalType":"address"}],"outputs":[{"name":"","type":"uint256","internalType":"uint256"}],"stateMutability":"nonpayable"},{"type":"function","name":"borrow","inputs":[{"name":"borrowAmount","type":"uint256","internalType":"uint256"}],"outputs":[{"name":"","type":"uint256","internalType":"uint256"}],"stateMutability":"nonpayable"},{"type":"function","name":"borrowBalanceCurrent","inputs":[{"name":"account","type":"address","internalType":"address"}],"outputs":[{"name":"","type":"uint256","internalType":"uint256"}],"stateMutability":"nonpayable"},{"type":"function","name":"borrowBalanceStored","inputs":[{"name":"account","type":"address","internalType":"address"}],"outputs":[{"name":"","type":"uint256","internalType":"uint256"}],"stateMutability":"view"},{"type":"function","name":"borrowIndex","inputs":[],"outputs":[{"name":"","type":"uint256","internalType":"uint256"}],"stateMutability":"view"},{"type":"function","name":"borrowRatePerBlock","inputs":[],"outputs":[{"name":"","type":"uint256","internalType":"uint256"}],"stateMutability":"view"},{"type":"function","name":"comptroller","inputs":[],"outputs":[{"name":"","type":"address","internalType":"contract ComptrollerInterface"}],"stateMutability":"view"},{"type":"function","name":"decimals","inputs":[],"outputs":[{"name":"","type":"uint8","internalType":"uint8"}],"stateMutability":"view"},{"type":"function","name":"delegateToImplementation","inputs":[{"name":"data","type":"bytes","internalType":"bytes"}],"outputs":[{"name":"","type":"bytes","internalType":"bytes"}],"stateMutability":"nonpayable"},{"type":"function","name":"delegateToViewImplementation","inputs":[{"name":"data","type":"bytes","internalType":"bytes"}],"outputs":[{"name":"","type":"bytes","internalType":"bytes"}],"stateMutability":"view"},{"type":"function","name":"exchangeRateCurrent","inputs":[],"outputs":[{"name":"","type":"uint256","internalType":"uint256"}],"stateMutability":"nonpayable"},{"type":"function","name":"exchangeRateStored","inputs":[],"outputs":[{"name":"","type":"uint256","internalType":"uint256"}],"stateMutability":"view"},{"type":"function","name":"getAccountSnapshot","inputs":[{"name":"account","type":"address","internalType":"address"}],"outputs":[{"name":"","type":"uint256","internalType":"uint256"},{"name":"","type":"uint256","internalType":"uint256"},{"name":"","type":"uint256","internalType":"uint256"},{"name":"","type":"uint256","internalType":"uint256"}],"stateMutability":"view"},{"type":"function","name":"getCash","inputs":[],"outputs":[{"name":"","type":"uint256","internalType":"uint256"}],"stateMutability":"view"},{"type":"function","name":"implementation","inputs":[],"outputs":[{"name":"","type":"address","internalType":"address"}],"stateMutability":"view"},{"type":"function","name":"interestRateModel","inputs":[],"outputs":[{"name":"","type":"address","internalType":"contract InterestRateModel"}],"stateMutability":"view"},{"type":"function","name":"isCToken","inputs":[],"outputs":[{"name":"","type":"bool","internalType":"bool"}],"stateMutability":"view"},{"type":"function","name":"liquidateBorrow","inputs":[{"name":"borrower","type":"address","internalType":"address"},{"name":"repayAmount","type":"uint256","internalType":"uint256"},{"name":"cTokenCollateral","type":"address","internalType":"contract CTokenInterface"}],"outputs":[{"name":"","type":"uint256","internalType":"uint256"}],"stateMutability":"nonpayable"},{"type":"function","name":"mint","inputs":[{"name":"mintAmount","type":"uint256","internalType":"uint256"}],"outputs":[{"name":"","type":"uint256","internalType":"uint256"}],"stateMutability":"nonpayable"},{"type":"function","name":"name","inputs":[],"outputs":[{"name":"","type":"string","internalType":"string"}],"stateMutability":"view"},{"type":"function","name":"pendingAdmin","inputs":[],"outputs":[{"name":"","type":"address","internalType":"address payable"}],"stateMutability":"view"},{"type":"function","name":"protocolSeizeShareMantissa","inputs":[],"outputs":[{"name":"","type":"uint256","internalType":"uint256"}],"stateMutability":"view"},{"type":"function","name":"redeem","inputs":[{"name":"redeemTokens","type":"uint256","internalType":"uint256"}],"outputs":[{"name":"","type":"uint256","internalType":"uint256"}],"stateMutability":"nonpayable"},{"type":"function","name":"redeemUnderlying","inputs":[{"name":"redeemAmount","type":"uint256","internalType":"uint256"}],"outputs":[{"name":"","type":"uint256","internalType":"uint256"}],"stateMutability":"nonpayable"},{"type":"function","name":"repayBorrow","inputs":[{"name":"repayAmount","type":"uint256","internalType":"uint256"}],"outputs":[{"name":"","type":"uint256","internalType":"uint256"}],"stateMutability":"nonpayable"},{"type":"function","name":"repayBorrowBehalf","inputs":[{"name":"borrower","type":"address","internalType":"address"},{"name":"repayAmount","type":"uint256","internalType":"uint256"}],"outputs":[{"name":"","type":"uint256","internalType":"uint256"}],"stateMutability":"nonpayable"},{"type":"function","name":"reserveFactorMantissa","inputs":[],"outputs":[{"name":"","type":"uint256","internalType":"uint256"}],"stateMutability":"view"},{"type":"function","name":"seize","inputs":[{"name":"liquidator","type":"address","internalType":"address"},{"name":"borrower","type":"address","internalType":"address"},{"name":"seizeTokens","type":"uint256","internalType":"uint256"}],"outputs":[{"name":"","type":"uint256","internalType":"uint256"}],"stateMutability":"nonpayable"},{"type":"function","name":"supplyRatePerBlock","inputs":[],"outputs":[{"name":"","type":"uint256","internalType":"uint256"}],"stateMutability":"view"},{"type":"function","name":"sweepToken","inputs":[{"name":"token","type":"address","internalType":"contract EIP20NonStandardInterface"}],"outputs":[],"stateMutability":"nonpayable"},{"type":"function","name":"symbol","inputs":[],"outputs":[{"name":"","type":"string","internalType":"string"}],"stateMutability":"view"},{"type":"function","name":"totalBorrows","inputs":[],"outputs":[{"name":"","type":"uint256","internalType":"uint256"}],"stateMutability":"view"},{"type":"function","name":"totalBorrowsCurrent","inputs":[],"outputs":[{"name":"","type":"uint256","internalType":"uint256"}],"stateMutability":"nonpayable"},{"type":"function","name":"totalReserves","inputs":[],"outputs":[{"name":"","type":"uint256","internalType":"uint256"}],"stateMutability":"view"},{"type":"function","name":"totalSupply","inputs":[],"outputs":[{"name":"","type":"uint256","internalType":"uint256"}],"stateMutability":"view"},{"type":"function","name":"transfer","inputs":[{"name":"dst","type":"address","internalType":"address"},{"name":"amount","type":"uint256","internalType":"uint256"}],"outputs":[{"name":"","type":"bool","internalType":"bool"}],"stateMutability":"nonpayable"},{"type":"function","name":"transferFrom","inputs":[{"name":"src","type":"address","internalType":"address"},{"name":"dst","type":"address","internalType":"address"},{"name":"amount","type":"uint256","internalType":"uint256"}],"outputs":[{"name":"","type":"bool","internalType":"bool"}],"stateMutability":"nonpayable"},{"type":"function","name":"underlying","inputs":[],"outputs":[{"name":"","type":"address","internalType":"address"}],"stateMutability":"view"},{"type":"event","name":"AccrueInterest","inputs":[{"name":"cashPrior","type":"uint256","indexed":false,"internalType":"uint256"},{"name":"interestAccumulated","type":"uint256","indexed":false,"internalType":"uint256"},{"name":"borrowIndex","type":"uint256","indexed":false,"internalType":"uint256"},{"name":"totalBorrows","type":"uint256","indexed":false,"internalType":"uint256"}],"anonymous":false},{"type":"event","name":"Approval","inputs":[{"name":"owner","type":"address","indexed":true,"internalType":"address"},{"name":"spender","type":"address","indexed":true,"internalType":"address"},{"name":"amount","type":"uint256","indexed":false,"internalType":"uint256"}],"anonymous":false},{"type":"event","name":"Borrow","inputs":[{"name":"borrower","type":"address","indexed":false,"internalType":"address"},{"name":"borrowAmount","type":"uint256","indexed":false,"internalType":"uint256"},{"name":"accountBorrows","type":"uint256","indexed":false,"internalType":"uint256"},{"name":"totalBorrows","type":"uint256","indexed":false,"internalType":"uint256"}],"anonymous":false},{"type":"event","name":"LiquidateBorrow","inputs":[{"name":"liquidator","type":"address","indexed":false,"internalType":"address"},{"name":"borrower","type":"address","indexed":false,"internalType":"address"},{"name":"repayAmount","type":"uint256","indexed":false,"internalType":"uint256"},{"name":"cTokenCollateral","type":"address","indexed":false,"internalType":"address"},{"name":"seizeTokens","type":"uint256","indexed":false,"internalType":"uint256"}],"anonymous":false},{"type":"event","name":"Mint","inputs":[{"name":"minter","type":"address","indexed":false,"internalType":"address"},{"name":"mintAmount","type":"uint256","indexed":false,"internalType":"uint256"},{"name":"mintTokens","type":"uint256","indexed":false,"internalType":"uint256"}],"anonymous":false},{"type":"event","name":"NewAdmin","inputs":[{"name":"oldAdmin","type":"address","indexed":false,"internalType":"address"},{"name":"newAdmin","type":"address","indexed":false,"internalType":"address"}],"anonymous":false},{"type":"event","name":"NewComptroller","inputs":[{"name":"oldComptroller","type":"address","indexed":false,"internalType":"contract ComptrollerInterface"},{"name":"newComptroller","type":"address","indexed":false,"internalType":"contract ComptrollerInterface"}],"anonymous":false},{"type":"event","name":"NewImplementation","inputs":[{"name":"oldImplementation","type":"address","indexed":false,"internalType":"address"},{"name":"newImplementation","type":"address","indexed":false,"internalType":"address"}],"anonymous":false},{"type":"event","name":"NewMarketInterestRateModel","inputs":[{"name":"oldInterestRateModel","type":"address","indexed":false,"internalType":"contract InterestRateModel"},{"name":"newInterestRateModel","type":"address","indexed":false,"internalType":"contract InterestRateModel"}],"anonymous":false},{"type":"event","name":"NewPendingAdmin","inputs":[{"name":"oldPendingAdmin","type":"address","indexed":false,"internalType":"address"},{"name":"newPendingAdmin","type":"address","indexed":false,"internalType":"address"}],"anonymous":false},{"type":"event","name":"NewReserveFactor","inputs":[{"name":"oldReserveFactorMantissa","type":"uint256","indexed":false,"internalType":"uint256"},{"name":"newReserveFactorMantissa","type":"uint256","indexed":false,"internalType":"uint256"}],"anonymous":false},{"type":"event","name":"Redeem","inputs":[{"name":"redeemer","type":"address","indexed":false,"internalType":"address"},{"name":"redeemAmount","type":"uint256","indexed":false,"internalType":"uint256"},{"name":"redeemTokens","type":"uint256","indexed":false,"internalType":"uint256"}],"anonymous":false},{"type":"event","name":"RepayBorrow","inputs":[{"name":"payer","type":"address","indexed":false,"internalType":"address"},{"name":"borrower","type":"address","indexed":false,"internalType":"address"},{"name":"repayAmount","type":"uint256","indexed":false,"internalType":"uint256"},{"name":"accountBorrows","type":"uint256","indexed":false,"internalType":"uint256"},{"name":"totalBorrows","type":"uint256","indexed":false,"internalType":"uint256"}],"anonymous":false},{"type":"event","name":"ReservesAdded","inputs":[{"name":"benefactor","type":"address","indexed":false,"internalType":"address"},{"name":"addAmount","type":"uint256","indexed":false,"internalType":"uint256"},{"name":"newTotalReserves","type":"uint256","indexed":false,"internalType":"uint256"}],"anonymous":false},{"type":"event","name":"ReservesReduced","inputs":[{"name":"admin","type":"address","indexed":false,"internalType":"address"},{"name":"reduceAmount","type":"uint256","indexed":false,"internalType":"uint256"},{"name":"newTotalReserves","type":"uint256","indexed":false,"internalType":"uint256"}],"anonymous":false},{"type":"event","name":"Transfer","inputs":[{"name":"from","type":"address","indexed":true,"internalType":"address"},{"name":"to","type":"address","indexed":true,"internalType":"address"},{"name":"amount","type":"uint256","indexed":false,"internalType":"uint256"}],"anonymous":false}],"bytecode":{"object":"0x60808060405234620000e85762001bd680380380916200001f8262000103565b83396101408183019112620000e8576200003862000166565b906200004362000177565b926200004e62000186565b60e051610100516001600160401b0396929190878111620000e8578562000077918601620001f6565b9061012051888111620000e8578662000092918701620001f6565b926200009d62000243565b94620000a862000195565b96620000b3620001a5565b986101a0519b8c11620000e857620000d89b620000d19201620001f6565b986200027c565b6040516116ba90816200051c8239f35b600080fd5b634e487b7160e01b600052604160045260246000fd5b6080601f91909101601f19168101906001600160401b038211908210176200012a57604052565b620000ed565b601f909101601f19168101906001600160401b038211908210176200012a57604052565b6001600160a01b03811603620000e857565b60805190620001758262000154565b565b60a05190620001758262000154565b60c05190620001758262000154565b6101605190620001758262000154565b6101805190620001758262000154565b6001600160401b0381116200012a57601f01601f191660200190565b60005b838110620001e55750506000910152565b8181015183820152602001620001d4565b81601f82011215620000e85780516200020f81620001b5565b926200021f604051948562000130565b81845260208284010111620000e857620002409160208085019101620001d1565b90565b610140519060ff82168203620000e857565b906020916200027081518092818552858086019101620001d1565b601f01601f1916010190565b60038054610100600160a81b0319163360081b610100600160a81b0316179055604051631a31d46560e01b60208201526001600160a01b0391821660248201529181166044830152919091166064820152608481019190915260e060a482015262000175969495620003499594909362000342936200033b928492909160ff916200032591620003129061010487019062000255565b8581036023190160c48701529062000255565b911660e483015203601f19810183528262000130565b82620004c5565b5062000383565b60038054610100600160a81b03191660089290921b610100600160a81b0316919091179055565b9060206200024092818152019062000255565b6003546001600160a01b039060081c811633036200045a576200041f62000438916200042e7fd604de94d45953f9138079ec1b82d533cb2160c906d1076d1f7ed54befbca97a9562000402620003e060125460018060a01b031690565b601280546001600160a01b0319166001600160a01b0390991698909817909755565b604051630adccee560e31b60208201529384916024830162000370565b03601f19810184528362000130565b60125416620004c5565b50601254604080516001600160a01b03938416815292909116602083015290a1565b60405162461bcd60e51b815260206004820152603960248201527f43457263323044656c656761746f723a3a5f736574496d706c656d656e74617460448201527f696f6e3a2043616c6c6572206d7573742062652061646d696e000000000000006064820152608490fd5b6000918291602082519201905af43d1562000512573d90620004e782620001b5565b91620004f7604051938462000130565b82523d6000602084013e5b156200050b5790565b60203d9101fd5b6060906200050256fe6080604052600436106115d25760003560e01c806306fdde031461034c5780630933c1ed14610347578063095ea7b3146103425780630e7527021461033d578063173b99041461033857806317bfdfbc1461033357806318160ddd1461032e578063182df0f5146103295780631be195601461032457806323b872dd1461031f5780632608f8181461031a5780632678224714610315578063313ce567146103105780633af9e6691461030b5780633b1d21a2146103065780633e941010146103015780634487152f146102fc5780634576b5db146102f757806347bd3718146102f2578063555bcc40146102ed5780635c60da1b146102e85780635fe3b567146102e3578063601a0bf1146102de5780636752e702146102d95780636c540baf146102d45780636f307dc3146102cf57806370a08231146102ca57806373acee98146102c5578063852a12e3146102c05780638f840ddd146102bb57806395d89b41146102b657806395dd9193146102b1578063a0712d68146102ac578063a6afed95146102a7578063a9059cbb146102a2578063aa5af0fd1461029d578063ae9d70b014610298578063b2a02ff114610293578063b71d1a0c1461028e578063bd6d894d14610289578063c37f68e214610284578063c5ebeaec1461027f578063db006a751461027a578063dd62ed3e14610275578063e9c714f214610270578063f2b3abbd1461026b578063f3fdb15a14610266578063f5e3c46214610261578063f851a4401461025c578063f8f9da2814610257578063fca7820b146102525763fe9c44ae036115d257611400565b6113c3565b61138e565b611361565b6112d3565b6112aa565b611256565b611221565b6111bc565b61117f565b611142565b6110aa565b611075565b611021565b610fce565b610f99565b610f7b565b610f1d565b610ee8565b610eab565b610e58565b610d95565b610d77565b610d3a565b610d05565b610cb2565b610c89565b610c6b565b610c49565b610c0c565b610be3565b610bba565b610a9d565b610a75565b610a21565b610a0d565b6109d0565b61099b565b610947565b610926565b6108fd565b61089f565b61084c565b6107cf565b610795565b610777565b61071a565b6106fc565b6106a9565b610625565b6105db565b61043e565b634e487b7160e01b600052604160045260246000fd5b6060810190811067ffffffffffffffff82111761038357604052565b610351565b6040810190811067ffffffffffffffff82111761038357604052565b60a0810190811067ffffffffffffffff82111761038357604052565b90601f8019910116810190811067ffffffffffffffff82111761038357604052565b60005b8381106103f55750506000910152565b81810151838201526020016103e5565b9060209161041e815180928185528580860191016103e2565b601f01601f1916010190565b90602061043b928181520190610405565b90565b3461054857600080600319360112610545576040519080600190815480831c9280821692831561053b575b602092838610851461052757858852602088019490811561050657506001146104ad575b6104a98761049d818903826103c0565b6040519182918261042a565b0390f35b600160005294509192917fb10e2d527612073b26eecdfd717e6a320cf44b4afac2b0732d9fcbe2b7fa0cf65b8386106104f5575050509101905061049d826104a9388061048d565b8054858701529482019481016104d9565b60ff191685525050505090151560051b01905061049d826104a9388061048d565b634e487b7160e01b82526022600452602482fd5b93607f1693610469565b80fd5b600080fd5b67ffffffffffffffff811161038357601f01601f191660200190565b81601f82011215610548578035906105808261054d565b9261058e60405194856103c0565b8284526020838301011161054857816000926020809301838601378301015290565b6020600319820112610548576004359067ffffffffffffffff82116105485761043b91600401610569565b34610548576104a96106006105ef366105b0565b6012546001600160a01b03166114e2565b604051918291602083526020830190610405565b6001600160a01b0381160361054857565b3461054857604036600319011261054857602061069f6106916106836105ef60043561065081610614565b60405163095ea7b360e01b878201526001600160a01b039091166024808301919091523560448201529182906064820190565b03601f1981018352826103c0565b82808251830101910161149d565b6040519015158152f35b346105485760203660031901126105485760206106f46106e660405163073a938160e11b848201526004356024820152602481526105ef81610367565b82808251830101910161148e565b604051908152f35b34610548576000366003190112610548576020600854604051908152f35b346105485760203660031901126105485760206106f46106e660043561073f81610614565b6040516305eff7ef60e21b858201526001600160a01b0391821660248083019190915281529061076e82610367565b601254166114e2565b34610548576000366003190112610548576020600d54604051908152f35b346105485760003660031901126105485760206106f46106e660405163182df0f560e01b84820152600481526107ca81610388565b611508565b346105485760203660031901126105485761081e6004356107ef81610614565b60405162df0cab60e51b60208201526001600160a01b0391821660248083019190915281529061076e82610367565b005b60609060031901126105485760043561083881610614565b9060243561084581610614565b9060443590565b3461054857602061069f6106916106836105ef61086836610820565b6040516323b872dd60e01b898201526001600160a01b03938416602482015292909116604483015260648201529182906084820190565b346105485760403660031901126105485760206106f46106e66106836105ef6004356108ca81610614565b6040516304c11f0360e31b878201526001600160a01b039091166024808301919091523560448201529182906064820190565b34610548576000366003190112610548576004546040516001600160a01b039091168152602090f35b3461054857600036600319011261054857602060ff60035416604051908152f35b346105485760203660031901126105485760206106f46106e660043561096c81610614565b604051633af9e66960e01b858201526001600160a01b0391821660248083019190915281529061076e82610367565b346105485760003660031901126105485760206106f46106e6604051631d8e90d160e11b84820152600481526107ca81610388565b346105485760203660031901126105485760206106f46106e66040516303e9410160e41b848201526004356024820152602481526105ef81610367565b34610548576104a96106006107ca366105b0565b346105485760203660031901126105485760206106f46106e6600435610a4681610614565b604051634576b5db60e01b858201526001600160a01b0391821660248083019190915281529061076e82610367565b34610548576000366003190112610548576020600b54604051908152f35b8015150361054857565b3461054857606036600319011261054857600435610aba81610614565b60243590610ac782610a93565b60443567ffffffffffffffff8111610548576106836105ef7fd604de94d45953f9138079ec1b82d533cb2160c906d1076d1f7ed54befbca97a94610b12610b71943690600401610569565b600354909190610b2f9060081c6001600160a01b0316331461141c565b610b93575b601280546001600160a01b039687166001600160a01b0319821617909155604051630adccee560e31b60208201529516949283916024830161042a565b50601254604080516001600160a01b03938416815292909116602083015290a1005b60405163153ab50560e01b602082015260048152610bb4906105ef81610388565b50610b34565b34610548576000366003190112610548576012546040516001600160a01b039091168152602090f35b34610548576000366003190112610548576005546040516001600160a01b039091168152602090f35b346105485760203660031901126105485760206106f46106e660405163601a0bf160e01b848201526004356024820152602481526105ef81610367565b34610548576000366003190112610548576020604051666379da05b600008152f35b34610548576000366003190112610548576020600954604051908152f35b34610548576000366003190112610548576011546040516001600160a01b039091168152602090f35b346105485760203660031901126105485760206106f46106e6600435610cd781610614565b6040516370a0823160e01b858201526001600160a01b0390911660248083019190915281526107ca81610367565b346105485760003660031901126105485760206106f46106e6604051630e759dd360e31b84820152600481526105ef81610388565b346105485760203660031901126105485760206106f46106e660405163852a12e360e01b848201526004356024820152602481526105ef81610367565b34610548576000366003190112610548576020600c54604051908152f35b34610548576000806003193601126105455760405190806002549060019180831c92808216928315610e4e575b60209283861085146105275785885260208801949081156105065750600114610df5576104a98761049d818903826103c0565b600260005294509192917f405787fa12a823e0f2b7631cc41b3ba8828b3321ca811111fa75cd3aa3bb5ace5b838610610e3d575050509101905061049d826104a9388061048d565b805485870152948201948101610e21565b93607f1693610dc2565b346105485760203660031901126105485760206106f46106e6600435610e7d81610614565b6040516395dd919360e01b858201526001600160a01b0390911660248083019190915281526107ca81610367565b346105485760203660031901126105485760206106f46106e660405163140e25ad60e31b848201526004356024820152602481526105ef81610367565b346105485760003660031901126105485760206106f46106e660405163a6afed9560e01b84820152600481526105ef81610388565b3461054857604036600319011261054857602061069f6106916106836105ef600435610f4881610614565b60405163a9059cbb60e01b878201526001600160a01b039091166024808301919091523560448201529182906064820190565b34610548576000366003190112610548576020600a54604051908152f35b346105485760003660031901126105485760206106f46106e6604051630ae9d70b60e41b84820152600481526107ca81610388565b346105485760206106f46106e66106836105ef610fea36610820565b60405163b2a02ff160e01b898201526001600160a01b03938416602482015292909116604483015260648201529182906084820190565b346105485760203660031901126105485760206106f46106e660043561104681610614565b604051632dc7468360e21b858201526001600160a01b0391821660248083019190915281529061076e82610367565b346105485760003660031901126105485760206106f46106e660405163bd6d894d60e01b84820152600481526105ef81610388565b34610548576020366003190112610548576110f96004356110ca81610614565b6040516361bfb47160e11b60208201526001600160a01b0390911660248083019190915281526107ca81610367565b6080818051810103126105485760208101516104a96040830151926080606082015191015190604051948594859094939260609260808301968352602083015260408201520152565b346105485760203660031901126105485760206106f46106e660405163317afabb60e21b848201526004356024820152602481526105ef81610367565b346105485760203660031901126105485760206106f46106e660405163db006a7560e01b848201526004356024820152602481526105ef81610367565b346105485760403660031901126105485760206106f46106e66004356111e181610614565b6107ca602435916111f183610614565b604051636eb1769f60e11b878201526001600160a01b039182166024820152921660448301528160648101610683565b346105485760003660031901126105485760206106f46106e66040516374e38a7960e11b84820152600481526105ef81610388565b346105485760203660031901126105485760206106f46106e660043561127b81610614565b60405163f2b3abbd60e01b858201526001600160a01b0391821660248083019190915281529061076e82610367565b34610548576000366003190112610548576006546040516001600160a01b039091168152602090f35b34610548576060366003190112610548576104a96113516113426004356112f981610614565b60443561130581610614565b60405191637af1e23160e11b602084015260018060a01b039182809216602485015260243560448501521660648301526064825261076e826103a4565b6020808251830101910161148e565b6040519081529081906020820190565b346105485760003660031901126105485760035460405160089190911c6001600160a01b03168152602090f35b346105485760003660031901126105485760206106f46106e6604051631f1f3b4560e31b84820152600481526107ca81610388565b346105485760203660031901126105485760206106f46106e660405163fca7820b60e01b848201526004356024820152602481526105ef81610367565b3461054857600036600319011261054857602060405160018152f35b1561142357565b60405162461bcd60e51b815260206004820152603960248201527f43457263323044656c656761746f723a3a5f736574496d706c656d656e74617460448201527f696f6e3a2043616c6c6572206d7573742062652061646d696e000000000000006064820152608490fd5b90816020910312610548575190565b90816020910312610548575161043b81610a93565b3d156114dd573d906114c38261054d565b916114d160405193846103c0565b82523d6000602084013e565b606090565b6000918291602082519201905af46114f86114b2565b90156115015790565b60203d9101fd5b6040519060209161152d8161068385820194630933c1ed60e01b86526024830161042a565b6000809281925190305afa916115416114b2565b92156115bd57825183019281818186019503126115b557818101519067ffffffffffffffff82116115b957019083603f830112156115b55780820151926115878461054d565b9461159560405196876103c0565b84865260408585010111610545575090604061043b9392850191016103e2565b8280fd5b8380fd5b90503d9101fd5b908160008237016000815290565b346116195760125460009081906001600160a01b0316604051806115f681366115c4565b03915af46116026114b2565b50604051903d6000833e15611615573d90f35b3d90fd5b60405162461bcd60e51b815260206004820152603760248201527f43457263323044656c656761746f723a66616c6c6261636b3a2063616e6e6f7460448201527f2073656e642076616c756520746f2066616c6c6261636b0000000000000000006064820152608490fdfea264697066735822122068f9354806129c383c97ef4e6f46dabba8c1ffb185a6559c25bf7a3da28bb13364736f6c63430008150033","linkReferences":{}},"methodIdentifiers":{"_acceptAdmin()":"e9c714f2","_addReserves(uint256)":"3e941010","_reduceReserves(uint256)":"601a0bf1","_setComptroller(address)":"4576b5db","_setImplementation(address,bool,bytes)":"555bcc40","_setInterestRateModel(address)":"f2b3abbd","_setPendingAdmin(address)":"b71d1a0c","_setReserveFactor(uint256)":"fca7820b","accrualBlockNumber()":"6c540baf","accrueInterest()":"a6afed95","admin()":"f851a440","allowance(address,address)":"dd62ed3e","approve(address,uint256)":"095ea7b3","balanceOf(address)":"70a08231","balanceOfUnderlying(address)":"3af9e669","borrow(uint256)":"c5ebeaec","borrowBalanceCurrent(address)":"17bfdfbc","borrowBalanceStored(address)":"95dd9193","borrowIndex()":"aa5af0fd","borrowRatePerBlock()":"f8f9da28","comptroller()":"5fe3b567","decimals()":"313ce567","delegateToImplementation(bytes)":"0933c1ed","delegateToViewImplementation(bytes)":"4487152f","exchangeRateCurrent()":"bd6d894d","exchangeRateStored()":"182df0f5","getAccountSnapshot(address)":"c37f68e2","getCash()":"3b1d21a2","implementation()":"5c60da1b","interestRateModel()":"f3fdb15a","isCToken()":"fe9c44ae","liquidateBorrow(address,uint256,address)":"f5e3c462","mint(uint256)":"a0712d68","name()":"06fdde03","pendingAdmin()":"26782247","protocolSeizeShareMantissa()":"6752e702","redeem(uint256)":"db006a75","redeemUnderlying(uint256)":"852a12e3","repayBorrow(uint256)":"0e752702","repayBorrowBehalf(address,uint256)":"2608f818","reserveFactorMantissa()":"173b9904","seize(address,address,uint256)":"b2a02ff1","supplyRatePerBlock()":"ae9d70b0","sweepToken(address)":"1be19560","symbol()":"95d89b41","totalBorrows()":"47bd3718","totalBorrowsCurrent()":"73acee98","totalReserves()":"8f840ddd","totalSupply()":"18160ddd","transfer(address,uint256)":"a9059cbb","transferFrom(address,address,uint256)":"23b872dd","underlying()":"6f307dc3"},"id":2}