{"abi":[{"type":"function","name":"_borrowGuardianPaused","inputs":[],"outputs":[{"name":"","type":"bool","internalType":"bool"}],"stateMutability":"view"},{"type":"function","name":"_mintGuardianPaused","inputs":[],"outputs":[{"name":"","type":"bool","internalType":"bool"}],"stateMutability":"view"},{"type":"function","name":"accountAssets","inputs":[{"name":"","type":"address","internalType":"address"},{"name":"","type":"uint256","internalType":"uint256"}],"outputs":[{"name":"","type":"address","internalType":"contract CToken"}],"stateMutability":"view"},{"type":"function","name":"admin","inputs":[],"outputs":[{"name":"","type":"address","internalType":"address"}],"stateMutability":"view"},{"type":"function","name":"allMarkets","inputs":[{"name":"","type":"uint256","internalType":"uint256"}],"outputs":[{"name":"","type":"address","internalType":"contract CToken"}],"stateMutability":"view"},{"type":"function","name":"borrowCapGuardian","inputs":[],"outputs":[{"name":"","type":"address","internalType":"address"}],"stateMutability":"view"},{"type":"function","name":"borrowCaps","inputs":[{"name":"","type":"address","internalType":"address"}],"outputs":[{"name":"","type":"uint256","internalType":"uint256"}],"stateMutability":"view"},{"type":"function","name":"borrowGuardianPaused","inputs":[{"name":"","type":"address","internalType":"address"}],"outputs":[{"name":"","type":"bool","internalType":"bool"}],"stateMutability":"view"},{"type":"function","name":"closeFactorMantissa","inputs":[],"outputs":[{"name":"","type":"uint256","internalType":"uint256"}],"stateMutability":"view"},{"type":"function","name":"compAccrued","inputs":[{"name":"","type":"address","internalType":"address"}],"outputs":[{"name":"","type":"uint256","internalType":"uint256"}],"stateMutability":"view"},{"type":"function","name":"compBorrowSpeeds","inputs":[{"name":"","type":"address","internalType":"address"}],"outputs":[{"name":"","type":"uint256","internalType":"uint256"}],"stateMutability":"view"},{"type":"function","name":"compBorrowState","inputs":[{"name":"","type":"address","internalType":"address"}],"outputs":[{"name":"index","type":"uint224","internalType":"uint224"},{"name":"block","type":"uint32","internalType":"uint32"}],"stateMutability":"view"},{"type":"function","name":"compBorrowerIndex","inputs":[{"name":"","type":"address","internalType":"address"},{"name":"","type":"address","internalType":"address"}],"outputs":[{"name":"","type":"uint256","internalType":"uint256"}],"stateMutability":"view"},{"type":"function","name":"compContributorSpeeds","inputs":[{"name":"","type":"address","internalType":"address"}],"outputs":[{"name":"","type":"uint256","internalType":"uint256"}],"stateMutability":"view"},{"type":"function","name":"compRate","inputs":[],"outputs":[{"name":"","type":"uint256","internalType":"uint256"}],"stateMutability":"view"},{"type":"function","name":"compReceivable","inputs":[{"name":"","type":"address","internalType":"address"}],"outputs":[{"name":"","type":"uint256","internalType":"uint256"}],"stateMutability":"view"},{"type":"function","name":"compSpeeds","inputs":[{"name":"","type":"address","internalType":"address"}],"outputs":[{"name":"","type":"uint256","internalType":"uint256"}],"stateMutability":"view"},{"type":"function","name":"compSupplierIndex","inputs":[{"name":"","type":"address","internalType":"address"},{"name":"","type":"address","internalType":"address"}],"outputs":[{"name":"","type":"uint256","internalType":"uint256"}],"stateMutability":"view"},{"type":"function","name":"compSupplySpeeds","inputs":[{"name":"","type":"address","internalType":"address"}],"outputs":[{"name":"","type":"uint256","internalType":"uint256"}],"stateMutability":"view"},{"type":"function","name":"compSupplyState","inputs":[{"name":"","type":"address","internalType":"address"}],"outputs":[{"name":"index","type":"uint224","internalType":"uint224"},{"name":"block","type":"uint32","internalType":"uint32"}],"stateMutability":"view"},{"type":"function","name":"comptrollerImplementation","inputs":[],"outputs":[{"name":"","type":"address","internalType":"address"}],"stateMutability":"view"},{"type":"function","name":"lastContributorBlock","inputs":[{"name":"","type":"address","internalType":"address"}],"outputs":[{"name":"","type":"uint256","internalType":"uint256"}],"stateMutability":"view"},{"type":"function","name":"liquidationIncentiveMantissa","inputs":[],"outputs":[{"name":"","type":"uint256","internalType":"uint256"}],"stateMutability":"view"},{"type":"function","name":"markets","inputs":[{"name":"","type":"address","internalType":"address"}],"outputs":[{"name":"isListed","type":"bool","internalType":"bool"},{"name":"collateralFactorMantissa","type":"uint256","internalType":"uint256"},{"name":"isComped","type":"bool","internalType":"bool"}],"stateMutability":"view"},{"type":"function","name":"maxAssets","inputs":[],"outputs":[{"name":"","type":"uint256","internalType":"uint256"}],"stateMutability":"view"},{"type":"function","name":"mintGuardianPaused","inputs":[{"name":"","type":"address","internalType":"address"}],"outputs":[{"name":"","type":"bool","internalType":"bool"}],"stateMutability":"view"},{"type":"function","name":"oracle","inputs":[],"outputs":[{"name":"","type":"address","internalType":"contract PriceOracle"}],"stateMutability":"view"},{"type":"function","name":"pauseGuardian","inputs":[],"outputs":[{"name":"","type":"address","internalType":"address"}],"stateMutability":"view"},{"type":"function","name":"pendingAdmin","inputs":[],"outputs":[{"name":"","type":"address","internalType":"address"}],"stateMutability":"view"},{"type":"function","name":"pendingComptrollerImplementation","inputs":[],"outputs":[{"name":"","type":"address","internalType":"address"}],"stateMutability":"view"},{"type":"function","name":"proposal65FixExecuted","inputs":[],"outputs":[{"name":"","type":"bool","internalType":"bool"}],"stateMutability":"view"},{"type":"function","name":"seizeGuardianPaused","inputs":[],"outputs":[{"name":"","type":"bool","internalType":"bool"}],"stateMutability":"view"},{"type":"function","name":"transferGuardianPaused","inputs":[],"outputs":[{"name":"","type":"bool","internalType":"bool"}],"stateMutability":"view"}],"bytecode":{"object":"0x608060405234801561001057600080fd5b50610736806100206000396000f3fe608060405234801561001057600080fd5b50600436106101fb5760003560e01c80638e8f294b1161011a578063ca0af043116100ad578063e6653f3d1161007c578063e6653f3d1461058d578063e8755446146105a1578063f00a7a92146105aa578063f4a433c0146105b7578063f851a440146105d757600080fd5b8063ca0af0431461051c578063cc7ebdc414610547578063dce1544914610567578063dcfbc0c71461057a57600080fd5b8063ac0b0bb7116100e9578063ac0b0bb7146104aa578063b21be7fd146104be578063bb82aa5e146104e9578063bea6b8b8146104fc57600080fd5b80638e8f294b1461042557806394b2294b14610478578063986ab83814610481578063aa900754146104a157600080fd5b80636aa875b5116101925780637dc0d1d0116101615780637dc0d1d0146103a657806385b7beb8146103b957806387f76303146103d95780638c57804e146103ed57600080fd5b80636aa875b5146102e45780636b79c38d146103045780636d154ea514610360578063731f0c2b1461038357600080fd5b80633c94786f116101ce5780633c94786f146102845780634a584432146102a85780634ada90af146102c857806352d84d1e146102d157600080fd5b80631d7b33d71461020057806321af45691461023357806324a3d6221461025e5780632678224714610271575b600080fd5b61022061020e366004610668565b600f6020526000908152604090205481565b6040519081526020015b60405180910390f35b601554610246906001600160a01b031681565b6040516001600160a01b03909116815260200161022a565b600a54610246906001600160a01b031681565b600154610246906001600160a01b031681565b600a5461029890600160a01b900460ff1681565b604051901515815260200161022a565b6102206102b6366004610668565b60166020526000908152604090205481565b61022060065481565b6102466102df36600461068a565b6105ea565b6102206102f2366004610668565b601a6020526000908152604090205481565b61033c610312366004610668565b6010602052600090815260409020546001600160e01b03811690600160e01b900463ffffffff1682565b604080516001600160e01b03909316835263ffffffff90911660208301520161022a565b61029861036e366004610668565b600c6020526000908152604090205460ff1681565b610298610391366004610668565b600b6020526000908152604090205460ff1681565b600454610246906001600160a01b031681565b6102206103c7366004610668565b601c6020526000908152604090205481565b600a5461029890600160b01b900460ff1681565b61033c6103fb366004610668565b6011602052600090815260409020546001600160e01b03811690600160e01b900463ffffffff1682565b610459610433366004610668565b60096020526000908152604090208054600182015460039092015460ff91821692911683565b604080519315158452602084019290925215159082015260600161022a565b61022060075481565b61022061048f366004610668565b60176020526000908152604090205481565b610220600e5481565b600a5461029890600160b81b900460ff1681565b6102206104cc3660046106a3565b601260209081526000928352604080842090915290825290205481565b600254610246906001600160a01b031681565b61022061050a366004610668565b60186020526000908152604090205481565b61022061052a3660046106a3565b601360209081526000928352604080842090915290825290205481565b610220610555366004610668565b60146020526000908152604090205481565b6102466105753660046106d6565b610614565b600354610246906001600160a01b031681565b600a5461029890600160a81b900460ff1681565b61022060055481565b601b546102989060ff1681565b6102206105c5366004610668565b60196020526000908152604090205481565b600054610246906001600160a01b031681565b600d81815481106105fa57600080fd5b6000918252602090912001546001600160a01b0316905081565b6008602052816000526040600020818154811061063057600080fd5b6000918252602090912001546001600160a01b03169150829050565b80356001600160a01b038116811461066357600080fd5b919050565b60006020828403121561067a57600080fd5b6106838261064c565b9392505050565b60006020828403121561069c57600080fd5b5035919050565b600080604083850312156106b657600080fd5b6106bf8361064c565b91506106cd6020840161064c565b90509250929050565b600080604083850312156106e957600080fd5b6106f28361064c565b94602093909301359350505056fea2646970667358221220cc56c5adfb9689667bcf7949e4e68b19e80c0180547582a485f7aa51434b2a1b64736f6c63430008150033","linkReferences":{}},"methodIdentifiers":{"_borrowGuardianPaused()":"e6653f3d","_mintGuardianPaused()":"3c94786f","accountAssets(address,uint256)":"dce15449","admin()":"f851a440","allMarkets(uint256)":"52d84d1e","borrowCapGuardian()":"21af4569","borrowCaps(address)":"4a584432","borrowGuardianPaused(address)":"6d154ea5","closeFactorMantissa()":"e8755446","compAccrued(address)":"cc7ebdc4","compBorrowSpeeds(address)":"f4a433c0","compBorrowState(address)":"8c57804e","compBorrowerIndex(address,address)":"ca0af043","compContributorSpeeds(address)":"986ab838","compRate()":"aa900754","compReceivable(address)":"85b7beb8","compSpeeds(address)":"1d7b33d7","compSupplierIndex(address,address)":"b21be7fd","compSupplySpeeds(address)":"6aa875b5","compSupplyState(address)":"6b79c38d","comptrollerImplementation()":"bb82aa5e","lastContributorBlock(address)":"bea6b8b8","liquidationIncentiveMantissa()":"4ada90af","markets(address)":"8e8f294b","maxAssets()":"94b2294b","mintGuardianPaused(address)":"731f0c2b","oracle()":"7dc0d1d0","pauseGuardian()":"24a3d622","pendingAdmin()":"26782247","pendingComptrollerImplementation()":"dcfbc0c7","proposal65FixExecuted()":"f00a7a92","seizeGuardianPaused()":"ac0b0bb7","transferGuardianPaused()":"87f76303"},"id":4}