{"abi":[{"type":"function","name":"_borrowGuardianPaused","inputs":[],"outputs":[{"name":"","type":"bool","internalType":"bool"}],"stateMutability":"view"},{"type":"function","name":"_mintGuardianPaused","inputs":[],"outputs":[{"name":"","type":"bool","internalType":"bool"}],"stateMutability":"view"},{"type":"function","name":"accountAssets","inputs":[{"name":"","type":"address","internalType":"address"},{"name":"","type":"uint256","internalType":"uint256"}],"outputs":[{"name":"","type":"address","internalType":"contract CToken"}],"stateMutability":"view"},{"type":"function","name":"admin","inputs":[],"outputs":[{"name":"","type":"address","internalType":"address"}],"stateMutability":"view"},{"type":"function","name":"borrowGuardianPaused","inputs":[{"name":"","type":"address","internalType":"address"}],"outputs":[{"name":"","type":"bool","internalType":"bool"}],"stateMutability":"view"},{"type":"function","name":"closeFactorMantissa","inputs":[],"outputs":[{"name":"","type":"uint256","internalType":"uint256"}],"stateMutability":"view"},{"type":"function","name":"comptrollerImplementation","inputs":[],"outputs":[{"name":"","type":"address","internalType":"address"}],"stateMutability":"view"},{"type":"function","name":"liquidationIncentiveMantissa","inputs":[],"outputs":[{"name":"","type":"uint256","internalType":"uint256"}],"stateMutability":"view"},{"type":"function","name":"markets","inputs":[{"name":"","type":"address","internalType":"address"}],"outputs":[{"name":"isListed","type":"bool","internalType":"bool"},{"name":"collateralFactorMantissa","type":"uint256","internalType":"uint256"},{"name":"isComped","type":"bool","internalType":"bool"}],"stateMutability":"view"},{"type":"function","name":"maxAssets","inputs":[],"outputs":[{"name":"","type":"uint256","internalType":"uint256"}],"stateMutability":"view"},{"type":"function","name":"mintGuardianPaused","inputs":[{"name":"","type":"address","internalType":"address"}],"outputs":[{"name":"","type":"bool","internalType":"bool"}],"stateMutability":"view"},{"type":"function","name":"oracle","inputs":[],"outputs":[{"name":"","type":"address","internalType":"contract PriceOracle"}],"stateMutability":"view"},{"type":"function","name":"pauseGuardian","inputs":[],"outputs":[{"name":"","type":"address","internalType":"address"}],"stateMutability":"view"},{"type":"function","name":"pendingAdmin","inputs":[],"outputs":[{"name":"","type":"address","internalType":"address"}],"stateMutability":"view"},{"type":"function","name":"pendingComptrollerImplementation","inputs":[],"outputs":[{"name":"","type":"address","internalType":"address"}],"stateMutability":"view"},{"type":"function","name":"seizeGuardianPaused","inputs":[],"outputs":[{"name":"","type":"bool","internalType":"bool"}],"stateMutability":"view"},{"type":"function","name":"transferGuardianPaused","inputs":[],"outputs":[{"name":"","type":"bool","internalType":"bool"}],"stateMutability":"view"}],"bytecode":{"object":"0x6080806040523461001657610434908161001c8239f35b600080fdfe60806040818152600436101561001457600080fd5b600091823560e01c90816324a3d622146103be5750806326782247146103965780633c94786f146103705780634ada90af146103525780636d154ea514610315578063731f0c2b146102d85780637dc0d1d0146102b057806387f763031461028a5780638e8f294b1461023157806394b2294b14610213578063ac0b0bb7146101ed578063bb82aa5e146101c5578063dce1544914610173578063dcfbc0c71461014b578063e6653f3d14610125578063e8755446146101075763f851a440146100dd57600080fd5b34610103578160031936011261010357905490516001600160a01b039091168152602090f35b5080fd5b50346101035781600319360112610103576020906005549051908152f35b503461010357816003193601126101035760209060ff600a5460a81c1690519015158152f35b503461010357816003193601126101035760035490516001600160a01b039091168152602090f35b503461010357806003193601126101035761018c6103e3565b6001600160a01b0390811683526008602052818320805460243591908210156101c15784526020938490200154915191168152f35b8480fd5b503461010357816003193601126101035760025490516001600160a01b039091168152602090f35b503461010357816003193601126101035760209060ff600a5460b81c1690519015158152f35b50346101035781600319360112610103576020906007549051908152f35b50346101035760203660031901126101035760609181906001600160a01b036102586103e3565b1681526009602052209060ff8254169160ff600360018301549201541690825193151584526020840152151590820152f35b503461010357816003193601126101035760209060ff600a5460b01c1690519015158152f35b503461010357816003193601126101035760045490516001600160a01b039091168152602090f35b50346101035760203660031901126101035760209160ff9082906001600160a01b036103026103e3565b168152600b855220541690519015158152f35b50346101035760203660031901126101035760209160ff9082906001600160a01b0361033f6103e3565b168152600c855220541690519015158152f35b50346101035781600319360112610103576020906006549051908152f35b503461010357816003193601126101035760209060ff600a5460a01c1690519015158152f35b503461010357816003193601126101035760015490516001600160a01b039091168152602090f35b839034610103578160031936011261010357600a546001600160a01b03168152602090f35b600435906001600160a01b03821682036103f957565b600080fdfea264697066735822122089627f6368db777c67e1be0bfeb24b7fd14a1df41b315cf83491c49bc0937d6c64736f6c63430008150033","linkReferences":{}},"methodIdentifiers":{"_borrowGuardianPaused()":"e6653f3d","_mintGuardianPaused()":"3c94786f","accountAssets(address,uint256)":"dce15449","admin()":"f851a440","borrowGuardianPaused(address)":"6d154ea5","closeFactorMantissa()":"e8755446","comptrollerImplementation()":"bb82aa5e","liquidationIncentiveMantissa()":"4ada90af","markets(address)":"8e8f294b","maxAssets()":"94b2294b","mintGuardianPaused(address)":"731f0c2b","oracle()":"7dc0d1d0","pauseGuardian()":"24a3d622","pendingAdmin()":"26782247","pendingComptrollerImplementation()":"dcfbc0c7","seizeGuardianPaused()":"ac0b0bb7","transferGuardianPaused()":"87f76303"},"id":7}